{
  "contractName": "DinoWarriors",
  "abi": [
    {
      "inputs": [
        {
          "internalType": "string",
          "name": "uri_",
          "type": "string"
        }
      ],
      "stateMutability": "nonpayable",
      "type": "constructor"
    },
    {
      "anonymous": false,
      "inputs": [
        {
          "indexed": true,
          "internalType": "address",
          "name": "account",
          "type": "address"
        },
        {
          "indexed": true,
          "internalType": "address",
          "name": "operator",
          "type": "address"
        },
        {
          "indexed": false,
          "internalType": "bool",
          "name": "approved",
          "type": "bool"
        }
      ],
      "name": "ApprovalForAll",
      "type": "event"
    },
    {
      "anonymous": false,
      "inputs": [
        {
          "indexed": true,
          "internalType": "address",
          "name": "account",
          "type": "address"
        },
        {
          "indexed": true,
          "internalType": "bytes32",
          "name": "token",
          "type": "bytes32"
        },
        {
          "indexed": false,
          "internalType": "uint256",
          "name": "minted",
          "type": "uint256"
        }
      ],
      "name": "Minted",
      "type": "event"
    },
    {
      "anonymous": false,
      "inputs": [
        {
          "indexed": true,
          "internalType": "address",
          "name": "previousOwner",
          "type": "address"
        },
        {
          "indexed": true,
          "internalType": "address",
          "name": "newOwner",
          "type": "address"
        }
      ],
      "name": "OwnershipTransferred",
      "type": "event"
    },
    {
      "anonymous": false,
      "inputs": [
        {
          "indexed": true,
          "internalType": "address",
          "name": "operator",
          "type": "address"
        },
        {
          "indexed": true,
          "internalType": "address",
          "name": "from",
          "type": "address"
        },
        {
          "indexed": true,
          "internalType": "address",
          "name": "to",
          "type": "address"
        },
        {
          "indexed": false,
          "internalType": "uint256[]",
          "name": "ids",
          "type": "uint256[]"
        },
        {
          "indexed": false,
          "internalType": "uint256[]",
          "name": "values",
          "type": "uint256[]"
        }
      ],
      "name": "TransferBatch",
      "type": "event"
    },
    {
      "anonymous": false,
      "inputs": [
        {
          "indexed": true,
          "internalType": "address",
          "name": "operator",
          "type": "address"
        },
        {
          "indexed": true,
          "internalType": "address",
          "name": "from",
          "type": "address"
        },
        {
          "indexed": true,
          "internalType": "address",
          "name": "to",
          "type": "address"
        },
        {
          "indexed": false,
          "internalType": "uint256",
          "name": "id",
          "type": "uint256"
        },
        {
          "indexed": false,
          "internalType": "uint256",
          "name": "value",
          "type": "uint256"
        }
      ],
      "name": "TransferSingle",
      "type": "event"
    },
    {
      "anonymous": false,
      "inputs": [
        {
          "indexed": false,
          "internalType": "string",
          "name": "value",
          "type": "string"
        },
        {
          "indexed": true,
          "internalType": "uint256",
          "name": "id",
          "type": "uint256"
        }
      ],
      "name": "URI",
      "type": "event"
    },
    {
      "inputs": [
        {
          "internalType": "address",
          "name": "account",
          "type": "address"
        },
        {
          "internalType": "uint256",
          "name": "id",
          "type": "uint256"
        }
      ],
      "name": "balanceOf",
      "outputs": [
        {
          "internalType": "uint256",
          "name": "",
          "type": "uint256"
        }
      ],
      "stateMutability": "view",
      "type": "function",
      "constant": true
    },
    {
      "inputs": [
        {
          "internalType": "address[]",
          "name": "accounts",
          "type": "address[]"
        },
        {
          "internalType": "uint256[]",
          "name": "ids",
          "type": "uint256[]"
        }
      ],
      "name": "balanceOfBatch",
      "outputs": [
        {
          "internalType": "uint256[]",
          "name": "",
          "type": "uint256[]"
        }
      ],
      "stateMutability": "view",
      "type": "function",
      "constant": true
    },
    {
      "inputs": [
        {
          "internalType": "address",
          "name": "account",
          "type": "address"
        },
        {
          "internalType": "address",
          "name": "operator",
          "type": "address"
        }
      ],
      "name": "isApprovedForAll",
      "outputs": [
        {
          "internalType": "bool",
          "name": "",
          "type": "bool"
        }
      ],
      "stateMutability": "view",
      "type": "function",
      "constant": true
    },
    {
      "inputs": [],
      "name": "latestDropWave",
      "outputs": [
        {
          "internalType": "uint256",
          "name": "",
          "type": "uint256"
        }
      ],
      "stateMutability": "view",
      "type": "function",
      "constant": true
    },
    {
      "inputs": [],
      "name": "legalTerms",
      "outputs": [
        {
          "internalType": "string",
          "name": "",
          "type": "string"
        }
      ],
      "stateMutability": "view",
      "type": "function",
      "constant": true
    },
    {
      "inputs": [],
      "name": "owner",
      "outputs": [
        {
          "internalType": "address",
          "name": "",
          "type": "address"
        }
      ],
      "stateMutability": "view",
      "type": "function",
      "constant": true
    },
    {
      "inputs": [],
      "name": "renounceOwnership",
      "outputs": [],
      "stateMutability": "nonpayable",
      "type": "function"
    },
    {
      "inputs": [
        {
          "internalType": "address",
          "name": "from",
          "type": "address"
        },
        {
          "internalType": "address",
          "name": "to",
          "type": "address"
        },
        {
          "internalType": "uint256[]",
          "name": "ids",
          "type": "uint256[]"
        },
        {
          "internalType": "uint256[]",
          "name": "amounts",
          "type": "uint256[]"
        },
        {
          "internalType": "bytes",
          "name": "data",
          "type": "bytes"
        }
      ],
      "name": "safeBatchTransferFrom",
      "outputs": [],
      "stateMutability": "nonpayable",
      "type": "function"
    },
    {
      "inputs": [
        {
          "internalType": "address",
          "name": "from",
          "type": "address"
        },
        {
          "internalType": "address",
          "name": "to",
          "type": "address"
        },
        {
          "internalType": "uint256",
          "name": "id",
          "type": "uint256"
        },
        {
          "internalType": "uint256",
          "name": "amount",
          "type": "uint256"
        },
        {
          "internalType": "bytes",
          "name": "data",
          "type": "bytes"
        }
      ],
      "name": "safeTransferFrom",
      "outputs": [],
      "stateMutability": "nonpayable",
      "type": "function"
    },
    {
      "inputs": [
        {
          "internalType": "address",
          "name": "operator",
          "type": "address"
        },
        {
          "internalType": "bool",
          "name": "approved",
          "type": "bool"
        }
      ],
      "name": "setApprovalForAll",
      "outputs": [],
      "stateMutability": "nonpayable",
      "type": "function"
    },
    {
      "inputs": [
        {
          "internalType": "bytes4",
          "name": "interfaceId",
          "type": "bytes4"
        }
      ],
      "name": "supportsInterface",
      "outputs": [
        {
          "internalType": "bool",
          "name": "",
          "type": "bool"
        }
      ],
      "stateMutability": "view",
      "type": "function",
      "constant": true
    },
    {
      "inputs": [
        {
          "internalType": "bytes32",
          "name": "",
          "type": "bytes32"
        }
      ],
      "name": "tiers",
      "outputs": [
        {
          "internalType": "uint256",
          "name": "price",
          "type": "uint256"
        },
        {
          "internalType": "uint256",
          "name": "mintable",
          "type": "uint256"
        },
        {
          "internalType": "uint256",
          "name": "dropWave",
          "type": "uint256"
        },
        {
          "internalType": "bytes32",
          "name": "tokenToBurn",
          "type": "bytes32"
        }
      ],
      "stateMutability": "view",
      "type": "function",
      "constant": true
    },
    {
      "inputs": [
        {
          "internalType": "bytes32",
          "name": "",
          "type": "bytes32"
        }
      ],
      "name": "tokenInfo",
      "outputs": [
        {
          "internalType": "uint256",
          "name": "id",
          "type": "uint256"
        },
        {
          "internalType": "uint256",
          "name": "mintedAmount",
          "type": "uint256"
        },
        {
          "internalType": "uint256",
          "name": "totalAmount",
          "type": "uint256"
        },
        {
          "internalType": "bytes32",
          "name": "tier",
          "type": "bytes32"
        }
      ],
      "stateMutability": "view",
      "type": "function",
      "constant": true
    },
    {
      "inputs": [
        {
          "internalType": "address",
          "name": "newOwner",
          "type": "address"
        }
      ],
      "name": "transferOwnership",
      "outputs": [],
      "stateMutability": "nonpayable",
      "type": "function"
    },
    {
      "inputs": [
        {
          "internalType": "uint256",
          "name": "",
          "type": "uint256"
        }
      ],
      "name": "uri",
      "outputs": [
        {
          "internalType": "string",
          "name": "",
          "type": "string"
        }
      ],
      "stateMutability": "view",
      "type": "function",
      "constant": true
    },
    {
      "inputs": [],
      "name": "wallet",
      "outputs": [
        {
          "internalType": "address",
          "name": "",
          "type": "address"
        }
      ],
      "stateMutability": "view",
      "type": "function",
      "constant": true
    },
    {
      "inputs": [
        {
          "internalType": "address",
          "name": "wallet_",
          "type": "address"
        }
      ],
      "name": "updateWallet",
      "outputs": [],
      "stateMutability": "nonpayable",
      "type": "function"
    },
    {
      "inputs": [
        {
          "internalType": "string",
          "name": "legalTerms_",
          "type": "string"
        }
      ],
      "name": "setLegalTerms",
      "outputs": [],
      "stateMutability": "nonpayable",
      "type": "function"
    },
    {
      "inputs": [
        {
          "internalType": "bytes32",
          "name": "name",
          "type": "bytes32"
        },
        {
          "internalType": "uint256",
          "name": "price_",
          "type": "uint256"
        },
        {
          "internalType": "uint256",
          "name": "mintable_",
          "type": "uint256"
        },
        {
          "internalType": "uint256",
          "name": "dropWave_",
          "type": "uint256"
        },
        {
          "internalType": "bytes32",
          "name": "tokenToBurn_",
          "type": "bytes32"
        }
      ],
      "name": "addTier",
      "outputs": [],
      "stateMutability": "nonpayable",
      "type": "function"
    },
    {
      "inputs": [
        {
          "internalType": "bytes32[]",
          "name": "names",
          "type": "bytes32[]"
        },
        {
          "internalType": "uint256[]",
          "name": "prices_",
          "type": "uint256[]"
        },
        {
          "internalType": "uint256[]",
          "name": "mintable_",
          "type": "uint256[]"
        },
        {
          "internalType": "uint256[]",
          "name": "dropWaves_",
          "type": "uint256[]"
        },
        {
          "internalType": "bytes32[]",
          "name": "tokensToBurn_",
          "type": "bytes32[]"
        }
      ],
      "name": "addTiersBatch",
      "outputs": [],
      "stateMutability": "nonpayable",
      "type": "function"
    },
    {
      "inputs": [
        {
          "internalType": "bytes32",
          "name": "name",
          "type": "bytes32"
        },
        {
          "internalType": "uint256",
          "name": "mintable_",
          "type": "uint256"
        }
      ],
      "name": "setTierMintability",
      "outputs": [],
      "stateMutability": "nonpayable",
      "type": "function"
    },
    {
      "inputs": [
        {
          "internalType": "bytes32",
          "name": "name",
          "type": "bytes32"
        },
        {
          "internalType": "uint256",
          "name": "price_",
          "type": "uint256"
        }
      ],
      "name": "setTierPrice",
      "outputs": [],
      "stateMutability": "nonpayable",
      "type": "function"
    },
    {
      "inputs": [
        {
          "internalType": "bytes32",
          "name": "name",
          "type": "bytes32"
        },
        {
          "internalType": "uint256",
          "name": "totalAmount_",
          "type": "uint256"
        },
        {
          "internalType": "bytes32",
          "name": "tier_",
          "type": "bytes32"
        }
      ],
      "name": "addToken",
      "outputs": [],
      "stateMutability": "nonpayable",
      "type": "function"
    },
    {
      "inputs": [
        {
          "internalType": "bytes32",
          "name": "name",
          "type": "bytes32"
        },
        {
          "internalType": "uint256",
          "name": "totalAmount_",
          "type": "uint256"
        },
        {
          "internalType": "bytes32",
          "name": "tier_",
          "type": "bytes32"
        },
        {
          "internalType": "uint256",
          "name": "amountToPreMint",
          "type": "uint256"
        }
      ],
      "name": "addToken",
      "outputs": [],
      "stateMutability": "nonpayable",
      "type": "function"
    },
    {
      "inputs": [
        {
          "internalType": "bytes32[]",
          "name": "names",
          "type": "bytes32[]"
        },
        {
          "internalType": "uint256[]",
          "name": "totalAmounts_",
          "type": "uint256[]"
        },
        {
          "internalType": "bytes32[]",
          "name": "tiers_",
          "type": "bytes32[]"
        },
        {
          "internalType": "uint256[]",
          "name": "amountsToPreMint_",
          "type": "uint256[]"
        }
      ],
      "name": "addTokensBatch",
      "outputs": [],
      "stateMutability": "nonpayable",
      "type": "function"
    },
    {
      "inputs": [
        {
          "internalType": "bytes32",
          "name": "name",
          "type": "bytes32"
        },
        {
          "internalType": "uint256",
          "name": "additionalTokenAmount",
          "type": "uint256"
        }
      ],
      "name": "increaseTokenAmount",
      "outputs": [],
      "stateMutability": "nonpayable",
      "type": "function"
    },
    {
      "inputs": [
        {
          "internalType": "bytes32",
          "name": "tokenToMint",
          "type": "bytes32"
        },
        {
          "internalType": "bytes32",
          "name": "tokenToUse",
          "type": "bytes32"
        }
      ],
      "name": "_mint",
      "outputs": [],
      "stateMutability": "payable",
      "type": "function",
      "payable": true
    },
    {
      "inputs": [
        {
          "internalType": "bytes32",
          "name": "tokenToMint",
          "type": "bytes32"
        }
      ],
      "name": "_mint",
      "outputs": [],
      "stateMutability": "payable",
      "type": "function",
      "payable": true
    }
  ],
  "bytecode": "0x608060405260016006553480156200001657600080fd5b5060405162005d9238038062005d9283398181016040528101906200003c919062000ba4565b806200004e816200099860201b60201c565b506200006f62000063620009b460201b60201c565b620009bc60201b60201c565b6200007f620009b460201b60201c565b600960006101000a81548173ffffffffffffffffffffffffffffffffffffffff021916908373ffffffffffffffffffffffffffffffffffffffff16021790555060405180610120016040528060e4815260200162005cae60e4913960089080519060200190620000f192919062000a82565b506040518060800160405280670214e8348c4f0000815260200160008152602001600181526020016000801916815250600560007f4f475f434152440000000000000000000000000000000000000000000000000081526020019081526020016000206000820151816000015560208201518160010155604082015181600201556060820151816003015590505060405180608001604052806000815260200160008152602001600181526020017f4f475f4341524400000000000000000000000000000000000000000000000000815250600560007f53494c564552000000000000000000000000000000000000000000000000000081526020019081526020016000206000820151816000015560208201518160010155604082015181600201556060820151816003015590505060405180608001604052806707a1fe1602770000815260200160008152602001600181526020016000801916815250600560007f474f4c440000000000000000000000000000000000000000000000000000000081526020019081526020016000206000820151816000015560208201518160010155604082015181600201556060820151816003015590505060405180608001604052806000815260200160028152602001600181526020016000801916815250600560007f4449414d4f4e44000000000000000000000000000000000000000000000000008152602001908152602001600020600082015181600001556020820151816001015560408201518160020155606082015181600301559050506040518060800160405280600081526020016000815260200161138881526020017f4f475f4341524400000000000000000000000000000000000000000000000000815250600460007f4f475f43415244000000000000000000000000000000000000000000000000008152602001908152602001600020600082015181600001556020820151816001015560408201518160020155606082015181600301559050506040518060800160405280605d815260200160008152602001606481526020017f474f4c4400000000000000000000000000000000000000000000000000000000815250600460007f56454c4f4349524150544f5200000000000000000000000000000000000000008152602001908152602001600020600082015181600001556020820151816001015560408201518160020155606082015181600301559050506040518060800160405280605e815260200160008152602001606481526020017f474f4c4400000000000000000000000000000000000000000000000000000000815250600460007f44494c4f50484f534155525553000000000000000000000000000000000000008152602001908152602001600020600082015181600001556020820151816001015560408201518160020155606082015181600301559050506040518060800160405280605f815260200160008152602001606481526020017f474f4c4400000000000000000000000000000000000000000000000000000000815250600460007f54524943455241544f505300000000000000000000000000000000000000000081526020019081526020016000206000820151816000015560208201518160010155604082015181600201556060820151816003015590505060405180608001604052806060815260200160008152602001606481526020017f474f4c4400000000000000000000000000000000000000000000000000000000815250600460007f535445474f53415552555300000000000000000000000000000000000000000081526020019081526020016000206000820151816000015560208201518160010155604082015181600201556060820151816003015590505060405180608001604052806061815260200160008152602001606481526020017f474f4c4400000000000000000000000000000000000000000000000000000000815250600460007f545952414e4e4f5341555200000000000000000000000000000000000000000081526020019081526020016000206000820151816000015560208201518160010155604082015181600201556060820151816003015590505060405180608001604052806062815260200160008152602001602881526020017f474f4c4400000000000000000000000000000000000000000000000000000000815250600460007f545952414e4e4f534155525f574954485f4c415345525f45594553000000000081526020019081526020016000206000820151816000015560208201518160010155604082015181600201556060820151816003015590505060405180608001604052806063815260200160008152602001602381526020017f474f4c4400000000000000000000000000000000000000000000000000000000815250600460007f4d414d4d414c5f4b494e4700000000000000000000000000000000000000000081526020019081526020016000206000820151816000015560208201518160010155604082015181600201556060820151816003015590505060405180608001604052806064815260200160008152602001601981526020017f474f4c4400000000000000000000000000000000000000000000000000000000815250600460007f4359424552534841524b0000000000000000000000000000000000000000000081526020019081526020016000206000820151816000015560208201518160010155604082015181600201556060820151816003015590505060405180608001604052806065815260200160008152602001600181526020017f4449414d4f4e4400000000000000000000000000000000000000000000000000815250600460007f4449414d4f4e440000000000000000000000000000000000000000000000000081526020019081526020016000206000820151816000015560208201518160010155604082015181600201556060820151816003015590505060666007819055505062000d1a565b8060029080519060200190620009b092919062000a82565b5050565b600033905090565b6000600360009054906101000a900473ffffffffffffffffffffffffffffffffffffffff16905081600360006101000a81548173ffffffffffffffffffffffffffffffffffffffff021916908373ffffffffffffffffffffffffffffffffffffffff1602179055508173ffffffffffffffffffffffffffffffffffffffff168173ffffffffffffffffffffffffffffffffffffffff167f8be0079c531659141344cd1fd0a4f28419497f9722a3daafe3b4186f6b6457e060405160405180910390a35050565b82805462000a909062000c86565b90600052602060002090601f01602090048101928262000ab4576000855562000b00565b82601f1062000acf57805160ff191683800117855562000b00565b8280016001018555821562000b00579182015b8281111562000aff57825182559160200191906001019062000ae2565b5b50905062000b0f919062000b13565b5090565b5b8082111562000b2e57600081600090555060010162000b14565b5090565b600062000b4962000b438462000c1d565b62000be9565b90508281526020810184848401111562000b6257600080fd5b62000b6f84828562000c50565b509392505050565b600082601f83011262000b8957600080fd5b815162000b9b84826020860162000b32565b91505092915050565b60006020828403121562000bb757600080fd5b600082015167ffffffffffffffff81111562000bd257600080fd5b62000be08482850162000b77565b91505092915050565b6000604051905081810181811067ffffffffffffffff8211171562000c135762000c1262000ceb565b5b8060405250919050565b600067ffffffffffffffff82111562000c3b5762000c3a62000ceb565b5b601f19601f8301169050602081019050919050565b60005b8381101562000c7057808201518184015260208101905062000c53565b8381111562000c80576000848401525b50505050565b6000600282049050600182168062000c9f57607f821691505b6020821081141562000cb65762000cb562000cbc565b5b50919050565b7f4e487b7100000000000000000000000000000000000000000000000000000000600052602260045260246000fd5b7f4e487b7100000000000000000000000000000000000000000000000000000000600052604160045260246000fd5b614f848062000d2a6000396000f3fe6080604052600436106101b65760003560e01c8063848b86e3116100ec578063ae15de3a1161008a578063e985e9c511610064578063e985e9c5146105ed578063ecc676241461062a578063f242432a14610653578063f2fde38b1461067c576101b6565b8063ae15de3a14610570578063b63093ee14610599578063c79b009a146105c2576101b6565b8063936a7773116100c6578063936a7773146104cc578063a22cb465146104f5578063aaec748a1461051e578063ad7feb8d14610547576101b6565b8063848b86e31461043857806389f902f6146104615780638da5cb5b146104a1576101b6565b8063521eb273116101595780636225924e116101335780636225924e146103b1578063702fa5e3146103cd578063715018a6146103f657806376f7d7de1461040d576101b6565b8063521eb2731461034157806352ce0e881461036c578063562d39a614610395576101b6565b80630e89341c116101955780630e89341c146102755780631c0e35ad146102b25780632eb2c2d6146102db5780634e1273f414610304576101b6565b8062fdd58e146101bb57806301ffc9a7146101f857806303565ea114610235575b600080fd5b3480156101c757600080fd5b506101e260048036038101906101dd919061359b565b6106a5565b6040516101ef91906149c8565b60405180910390f35b34801561020457600080fd5b5061021f600480360381019061021a91906139bf565b61076e565b60405161022c91906145cc565b60405180910390f35b34801561024157600080fd5b5061025c600480360381019061025791906137f5565b610850565b60405161026c9493929190614a0c565b60405180910390f35b34801561028157600080fd5b5061029c60048036038101906102979190613a52565b610880565b6040516102a991906146a6565b60405180910390f35b3480156102be57600080fd5b506102d960048036038101906102d49190613706565b610914565b005b3480156102e757600080fd5b5061030260048036038101906102fd9190613411565b610b6e565b005b34801561031057600080fd5b5061032b600480360381019061032691906135d7565b610c0f565b6040516103389190614573565b60405180910390f35b34801561034d57600080fd5b50610356610dc0565b6040516103639190614496565b60405180910390f35b34801561037857600080fd5b50610393600480360381019061038e9190613643565b610de6565b005b6103af60048036038101906103aa919061381e565b610f98565b005b6103cb60048036038101906103c691906137f5565b61132b565b005b3480156103d957600080fd5b506103f460048036038101906103ef919061385a565b611399565b005b34801561040257600080fd5b5061040b611434565b005b34801561041957600080fd5b506104226114bc565b60405161042f91906149c8565b60405180910390f35b34801561044457600080fd5b5061045f600480360381019061045a91906133ac565b6114c2565b005b34801561046d57600080fd5b50610488600480360381019061048391906137f5565b611582565b6040516104989493929190614a0c565b60405180910390f35b3480156104ad57600080fd5b506104b66115b2565b6040516104c39190614496565b60405180910390f35b3480156104d857600080fd5b506104f360048036038101906104ee919061385a565b6115dc565b005b34801561050157600080fd5b5061051c6004803603810190610517919061355f565b611689565b005b34801561052a57600080fd5b5061054560048036038101906105409190613a11565b61180a565b005b34801561055357600080fd5b5061056e6004803603810190610569919061385a565b6118a0565b005b34801561057c57600080fd5b5061059760048036038101906105929190613948565b61193b565b005b3480156105a557600080fd5b506105c060048036038101906105bb9190613896565b611ade565b005b3480156105ce57600080fd5b506105d7611bd1565b6040516105e491906146a6565b60405180910390f35b3480156105f957600080fd5b50610614600480360381019061060f91906133d5565b611c5f565b60405161062191906145cc565b60405180910390f35b34801561063657600080fd5b50610651600480360381019061064c91906138e5565b611cf3565b005b34801561065f57600080fd5b5061067a600480360381019061067591906134d0565b611f12565b005b34801561068857600080fd5b506106a3600480360381019061069e91906133ac565b611fb3565b005b60008073ffffffffffffffffffffffffffffffffffffffff168373ffffffffffffffffffffffffffffffffffffffff161415610716576040517f08c379a000000000000000000000000000000000000000000000000000000000815260040161070d90614728565b60405180910390fd5b60008083815260200190815260200160002060008473ffffffffffffffffffffffffffffffffffffffff1673ffffffffffffffffffffffffffffffffffffffff16815260200190815260200160002054905092915050565b60007fd9b67a26000000000000000000000000000000000000000000000000000000007bffffffffffffffffffffffffffffffffffffffffffffffffffffffff1916827bffffffffffffffffffffffffffffffffffffffffffffffffffffffff1916148061083957507f0e89341c000000000000000000000000000000000000000000000000000000007bffffffffffffffffffffffffffffffffffffffffffffffffffffffff1916827bffffffffffffffffffffffffffffffffffffffffffffffffffffffff1916145b806108495750610848826120ab565b5b9050919050565b60046020528060005260406000206000915090508060000154908060010154908060020154908060030154905084565b60606002805461088f90614cff565b80601f01602080910402602001604051908101604052809291908181526020018280546108bb90614cff565b80156109085780601f106108dd57610100808354040283529160200191610908565b820191906000526020600020905b8154815290600101906020018083116108eb57829003601f168201915b50505050509050919050565b61091c612115565b73ffffffffffffffffffffffffffffffffffffffff1661093a6115b2565b73ffffffffffffffffffffffffffffffffffffffff1614610990576040517f08c379a000000000000000000000000000000000000000000000000000000000815260040161098790614868565b60405180910390fd5b6000600190505b8551811015610b66573073ffffffffffffffffffffffffffffffffffffffff1663ae15de3a8783815181106109f5577f4e487b7100000000000000000000000000000000000000000000000000000000600052603260045260246000fd5b6020026020010151878481518110610a36577f4e487b7100000000000000000000000000000000000000000000000000000000600052603260045260246000fd5b6020026020010151878581518110610a77577f4e487b7100000000000000000000000000000000000000000000000000000000600052603260045260246000fd5b6020026020010151878681518110610ab8577f4e487b7100000000000000000000000000000000000000000000000000000000600052603260045260246000fd5b6020026020010151878781518110610af9577f4e487b7100000000000000000000000000000000000000000000000000000000600052603260045260246000fd5b60200260200101516040518663ffffffff1660e01b8152600401610b21959493929190614653565b600060405180830381600087803b158015610b3b57600080fd5b505af1158015610b4f573d6000803e3d6000fd5b505050508080610b5e90614d31565b915050610997565b505050505050565b610b76612115565b73ffffffffffffffffffffffffffffffffffffffff168573ffffffffffffffffffffffffffffffffffffffff161480610bbc5750610bbb85610bb6612115565b611c5f565b5b610bfb576040517f08c379a0000000000000000000000000000000000000000000000000000000008152600401610bf290614808565b60405180910390fd5b610c08858585858561211d565b5050505050565b60608151835114610c55576040517f08c379a0000000000000000000000000000000000000000000000000000000008152600401610c4c90614968565b60405180910390fd5b6000835167ffffffffffffffff811115610c98577f4e487b7100000000000000000000000000000000000000000000000000000000600052604160045260246000fd5b604051908082528060200260200182016040528015610cc65781602001602082028036833780820191505090505b50905060005b8451811015610db557610d5f858281518110610d11577f4e487b7100000000000000000000000000000000000000000000000000000000600052603260045260246000fd5b6020026020010151858381518110610d52577f4e487b7100000000000000000000000000000000000000000000000000000000600052603260045260246000fd5b60200260200101516106a5565b828281518110610d98577f4e487b7100000000000000000000000000000000000000000000000000000000600052603260045260246000fd5b60200260200101818152505080610dae90614d31565b9050610ccc565b508091505092915050565b600960009054906101000a900473ffffffffffffffffffffffffffffffffffffffff1681565b610dee612115565b73ffffffffffffffffffffffffffffffffffffffff16610e0c6115b2565b73ffffffffffffffffffffffffffffffffffffffff1614610e62576040517f08c379a0000000000000000000000000000000000000000000000000000000008152600401610e5990614868565b60405180910390fd5b6000600190505b8451811015610f9157610f7e858281518110610eae577f4e487b7100000000000000000000000000000000000000000000000000000000600052603260045260246000fd5b6020026020010151858381518110610eef577f4e487b7100000000000000000000000000000000000000000000000000000000600052603260045260246000fd5b6020026020010151858481518110610f30577f4e487b7100000000000000000000000000000000000000000000000000000000600052603260045260246000fd5b6020026020010151858581518110610f71577f4e487b7100000000000000000000000000000000000000000000000000000000600052603260045260246000fd5b6020026020010151611cf3565b8080610f8990614d31565b915050610e69565b5050505050565b6000610fa2612115565b905060006004600085815260200190815260200160002090508060010154816002015411611005576040517f08c379a0000000000000000000000000000000000000000000000000000000008152600401610ffc90614928565b60405180910390fd5b6000600560008360030154815260200190815260200160002060405180608001604052908160008201548152602001600182015481526020016002820154815260200160038201548152505090506006548160200151116111d457600060046000868152602001908152602001600020604051806080016040529081600082015481526020016001820154815260200160028201548152602001600382015481525050905060006005600083606001518152602001908152602001600020604051806080016040529081600082015481526020016001820154815260200160028201548152602001600382015481525050905060006111088684600001516106a5565b11611148576040517f08c379a000000000000000000000000000000000000000000000000000000000815260040161113f906148a8565b60405180910390fd5b600083602001511415801561117557508060400151836020015110158061117457506006548360200151145b5b6111b4576040517f08c379a00000000000000000000000000000000000000000000000000000000081526004016111ab90614908565b60405180910390fd5b85836060015114156111d1576111d0858360000151600161247d565b5b50505b6000816000015111156112975760003490508160000151811461122c576040517f08c379a000000000000000000000000000000000000000000000000000000000815260040161122390614708565b60405180910390fd5b600960009054906101000a900473ffffffffffffffffffffffffffffffffffffffff1673ffffffffffffffffffffffffffffffffffffffff166108fc829081150290604051600060405180830381858888f19350505050158015611294573d6000803e3d6000fd5b50505b6112b783836000015460016040518060200160405280600081525061269a565b8160010160008154809291906112cc90614d31565b9190505550848373ffffffffffffffffffffffffffffffffffffffff167fa076a0e133eaaa7a0d2293663374c22b5572fc5a479274e17e00ac210fe2367b846001015460405161131c91906149c8565b60405180910390a35050505050565b3073ffffffffffffffffffffffffffffffffffffffff1663562d39a6826040518263ffffffff1660e01b815260040161136491906145e7565b600060405180830381600087803b15801561137e57600080fd5b505af1158015611392573d6000803e3d6000fd5b5050505050565b6113a1612115565b73ffffffffffffffffffffffffffffffffffffffff166113bf6115b2565b73ffffffffffffffffffffffffffffffffffffffff1614611415576040517f08c379a000000000000000000000000000000000000000000000000000000000815260040161140c90614868565b60405180910390fd5b8060056000848152602001908152602001600020600101819055505050565b61143c612115565b73ffffffffffffffffffffffffffffffffffffffff1661145a6115b2565b73ffffffffffffffffffffffffffffffffffffffff16146114b0576040517f08c379a00000000000000000000000000000000000000000000000000000000081526004016114a790614868565b60405180910390fd5b6114ba6000612830565b565b60065481565b6114ca612115565b73ffffffffffffffffffffffffffffffffffffffff166114e86115b2565b73ffffffffffffffffffffffffffffffffffffffff161461153e576040517f08c379a000000000000000000000000000000000000000000000000000000000815260040161153590614868565b60405180910390fd5b80600960006101000a81548173ffffffffffffffffffffffffffffffffffffffff021916908373ffffffffffffffffffffffffffffffffffffffff16021790555050565b60056020528060005260406000206000915090508060000154908060010154908060020154908060030154905084565b6000600360009054906101000a900473ffffffffffffffffffffffffffffffffffffffff16905090565b6115e4612115565b73ffffffffffffffffffffffffffffffffffffffff166116026115b2565b73ffffffffffffffffffffffffffffffffffffffff1614611658576040517f08c379a000000000000000000000000000000000000000000000000000000000815260040161164f90614868565b60405180910390fd5b8060046000848152602001908152602001600020600201600082825461167e9190614bd7565b925050819055505050565b8173ffffffffffffffffffffffffffffffffffffffff166116a8612115565b73ffffffffffffffffffffffffffffffffffffffff1614156116ff576040517f08c379a00000000000000000000000000000000000000000000000000000000081526004016116f690614948565b60405180910390fd5b806001600061170c612115565b73ffffffffffffffffffffffffffffffffffffffff1673ffffffffffffffffffffffffffffffffffffffff16815260200190815260200160002060008473ffffffffffffffffffffffffffffffffffffffff1673ffffffffffffffffffffffffffffffffffffffff16815260200190815260200160002060006101000a81548160ff0219169083151502179055508173ffffffffffffffffffffffffffffffffffffffff166117b9612115565b73ffffffffffffffffffffffffffffffffffffffff167f17307eab39ab6107e8899845ad3d59bd9653f200f220920489ca2b5937696c31836040516117fe91906145cc565b60405180910390a35050565b611812612115565b73ffffffffffffffffffffffffffffffffffffffff166118306115b2565b73ffffffffffffffffffffffffffffffffffffffff1614611886576040517f08c379a000000000000000000000000000000000000000000000000000000000815260040161187d90614868565b60405180910390fd5b806008908051906020019061189c929190612ff9565b5050565b6118a8612115565b73ffffffffffffffffffffffffffffffffffffffff166118c66115b2565b73ffffffffffffffffffffffffffffffffffffffff161461191c576040517f08c379a000000000000000000000000000000000000000000000000000000000815260040161191390614868565b60405180910390fd5b8060056000848152602001908152602001600020600001819055505050565b611943612115565b73ffffffffffffffffffffffffffffffffffffffff166119616115b2565b73ffffffffffffffffffffffffffffffffffffffff16146119b7576040517f08c379a00000000000000000000000000000000000000000000000000000000081526004016119ae90614868565b60405180910390fd5b6006548210156119fc576040517f08c379a00000000000000000000000000000000000000000000000000000000081526004016119f3906147c8565b60405180910390fd5b6000600560008781526020019081526020016000206002015414611a55576040517f08c379a0000000000000000000000000000000000000000000000000000000008152600401611a4c906148e8565b60405180910390fd5b6040518060800160405280858152602001848152602001838152602001828152506005600087815260200190815260200160002060008201518160000155602082015181600101556040820151816002015560608201518160030155905050600654821115611ad75760066000815480929190611ad190614d31565b91905055505b5050505050565b611ae6612115565b73ffffffffffffffffffffffffffffffffffffffff16611b046115b2565b73ffffffffffffffffffffffffffffffffffffffff1614611b5a576040517f08c379a0000000000000000000000000000000000000000000000000000000008152600401611b5190614868565b60405180910390fd5b3073ffffffffffffffffffffffffffffffffffffffff1663ecc6762484848460006040518563ffffffff1660e01b8152600401611b9a949392919061460e565b600060405180830381600087803b158015611bb457600080fd5b505af1158015611bc8573d6000803e3d6000fd5b50505050505050565b60088054611bde90614cff565b80601f0160208091040260200160405190810160405280929190818152602001828054611c0a90614cff565b8015611c575780601f10611c2c57610100808354040283529160200191611c57565b820191906000526020600020905b815481529060010190602001808311611c3a57829003601f168201915b505050505081565b6000600160008473ffffffffffffffffffffffffffffffffffffffff1673ffffffffffffffffffffffffffffffffffffffff16815260200190815260200160002060008373ffffffffffffffffffffffffffffffffffffffff1673ffffffffffffffffffffffffffffffffffffffff16815260200190815260200160002060009054906101000a900460ff16905092915050565b611cfb612115565b73ffffffffffffffffffffffffffffffffffffffff16611d196115b2565b73ffffffffffffffffffffffffffffffffffffffff1614611d6f576040517f08c379a0000000000000000000000000000000000000000000000000000000008152600401611d6690614868565b60405180910390fd5b6000600460008681526020019081526020016000206002015414611dc8576040517f08c379a0000000000000000000000000000000000000000000000000000000008152600401611dbf90614788565b60405180910390fd5b60065460056000848152602001908152602001600020600201541015611e23576040517f08c379a0000000000000000000000000000000000000000000000000000000008152600401611e1a906148c8565b60405180910390fd5b82811115611e66576040517f08c379a0000000000000000000000000000000000000000000000000000000008152600401611e5d90614888565b60405180910390fd5b6040518060800160405280600754815260200182815260200184815260200183815250600460008681526020019081526020016000206000820151816000015560208201518160010155604082015181600201556060820151816003015590505060008114611ef457611ef3611eda612115565b600754836040518060200160405280600081525061269a565b5b60076000815480929190611f0790614d31565b919050555050505050565b611f1a612115565b73ffffffffffffffffffffffffffffffffffffffff168573ffffffffffffffffffffffffffffffffffffffff161480611f605750611f5f85611f5a612115565b611c5f565b5b611f9f576040517f08c379a0000000000000000000000000000000000000000000000000000000008152600401611f96906147a8565b60405180910390fd5b611fac85858585856128f6565b5050505050565b611fbb612115565b73ffffffffffffffffffffffffffffffffffffffff16611fd96115b2565b73ffffffffffffffffffffffffffffffffffffffff161461202f576040517f08c379a000000000000000000000000000000000000000000000000000000000815260040161202690614868565b60405180910390fd5b600073ffffffffffffffffffffffffffffffffffffffff168173ffffffffffffffffffffffffffffffffffffffff16141561209f576040517f08c379a000000000000000000000000000000000000000000000000000000000815260040161209690614748565b60405180910390fd5b6120a881612830565b50565b60007f01ffc9a7000000000000000000000000000000000000000000000000000000007bffffffffffffffffffffffffffffffffffffffffffffffffffffffff1916827bffffffffffffffffffffffffffffffffffffffffffffffffffffffff1916149050919050565b600033905090565b8151835114612161576040517f08c379a000000000000000000000000000000000000000000000000000000000815260040161215890614988565b60405180910390fd5b600073ffffffffffffffffffffffffffffffffffffffff168473ffffffffffffffffffffffffffffffffffffffff1614156121d1576040517f08c379a00000000000000000000000000000000000000000000000000000000081526004016121c8906147e8565b60405180910390fd5b60006121db612115565b90506121eb818787878787612b78565b60005b84518110156123e8576000858281518110612232577f4e487b7100000000000000000000000000000000000000000000000000000000600052603260045260246000fd5b602002602001015190506000858381518110612277577f4e487b7100000000000000000000000000000000000000000000000000000000600052603260045260246000fd5b60200260200101519050600080600084815260200190815260200160002060008b73ffffffffffffffffffffffffffffffffffffffff1673ffffffffffffffffffffffffffffffffffffffff16815260200190815260200160002054905081811015612318576040517f08c379a000000000000000000000000000000000000000000000000000000000815260040161230f90614848565b60405180910390fd5b81810360008085815260200190815260200160002060008c73ffffffffffffffffffffffffffffffffffffffff1673ffffffffffffffffffffffffffffffffffffffff168152602001908152602001600020819055508160008085815260200190815260200160002060008b73ffffffffffffffffffffffffffffffffffffffff1673ffffffffffffffffffffffffffffffffffffffff16815260200190815260200160002060008282546123cd9190614bd7565b92505081905550505050806123e190614d31565b90506121ee565b508473ffffffffffffffffffffffffffffffffffffffff168673ffffffffffffffffffffffffffffffffffffffff168273ffffffffffffffffffffffffffffffffffffffff167f4a39dc06d4c0dbc64b70af90fd698a233a518aa5d07e595d983b8c0526c8f7fb878760405161245f929190614595565b60405180910390a4612475818787878787612b80565b505050505050565b600073ffffffffffffffffffffffffffffffffffffffff168373ffffffffffffffffffffffffffffffffffffffff1614156124ed576040517f08c379a00000000000000000000000000000000000000000000000000000000081526004016124e490614828565b60405180910390fd5b60006124f7612115565b90506125278185600061250987612d50565b61251287612d50565b60405180602001604052806000815250612b78565b600080600085815260200190815260200160002060008673ffffffffffffffffffffffffffffffffffffffff1673ffffffffffffffffffffffffffffffffffffffff168152602001908152602001600020549050828110156125be576040517f08c379a00000000000000000000000000000000000000000000000000000000081526004016125b590614768565b60405180910390fd5b82810360008086815260200190815260200160002060008773ffffffffffffffffffffffffffffffffffffffff1673ffffffffffffffffffffffffffffffffffffffff16815260200190815260200160002081905550600073ffffffffffffffffffffffffffffffffffffffff168573ffffffffffffffffffffffffffffffffffffffff168373ffffffffffffffffffffffffffffffffffffffff167fc3d58168c5ae7397731d063d5bbf3d657854427343f4c083240f7aacaa2d0f62878760405161268b9291906149e3565b60405180910390a45050505050565b600073ffffffffffffffffffffffffffffffffffffffff168473ffffffffffffffffffffffffffffffffffffffff16141561270a576040517f08c379a0000000000000000000000000000000000000000000000000000000008152600401612701906149a8565b60405180910390fd5b6000612714612115565b90506127358160008761272688612d50565b61272f88612d50565b87612b78565b8260008086815260200190815260200160002060008773ffffffffffffffffffffffffffffffffffffffff1673ffffffffffffffffffffffffffffffffffffffff16815260200190815260200160002060008282546127949190614bd7565b925050819055508473ffffffffffffffffffffffffffffffffffffffff16600073ffffffffffffffffffffffffffffffffffffffff168273ffffffffffffffffffffffffffffffffffffffff167fc3d58168c5ae7397731d063d5bbf3d657854427343f4c083240f7aacaa2d0f6287876040516128129291906149e3565b60405180910390a461282981600087878787612e16565b5050505050565b6000600360009054906101000a900473ffffffffffffffffffffffffffffffffffffffff16905081600360006101000a81548173ffffffffffffffffffffffffffffffffffffffff021916908373ffffffffffffffffffffffffffffffffffffffff1602179055508173ffffffffffffffffffffffffffffffffffffffff168173ffffffffffffffffffffffffffffffffffffffff167f8be0079c531659141344cd1fd0a4f28419497f9722a3daafe3b4186f6b6457e060405160405180910390a35050565b600073ffffffffffffffffffffffffffffffffffffffff168473ffffffffffffffffffffffffffffffffffffffff161415612966576040517f08c379a000000000000000000000000000000000000000000000000000000000815260040161295d906147e8565b60405180910390fd5b6000612970612115565b905061299081878761298188612d50565b61298a88612d50565b87612b78565b600080600086815260200190815260200160002060008873ffffffffffffffffffffffffffffffffffffffff1673ffffffffffffffffffffffffffffffffffffffff16815260200190815260200160002054905083811015612a27576040517f08c379a0000000000000000000000000000000000000000000000000000000008152600401612a1e90614848565b60405180910390fd5b83810360008087815260200190815260200160002060008973ffffffffffffffffffffffffffffffffffffffff1673ffffffffffffffffffffffffffffffffffffffff168152602001908152602001600020819055508360008087815260200190815260200160002060008873ffffffffffffffffffffffffffffffffffffffff1673ffffffffffffffffffffffffffffffffffffffff1681526020019081526020016000206000828254612adc9190614bd7565b925050819055508573ffffffffffffffffffffffffffffffffffffffff168773ffffffffffffffffffffffffffffffffffffffff168373ffffffffffffffffffffffffffffffffffffffff167fc3d58168c5ae7397731d063d5bbf3d657854427343f4c083240f7aacaa2d0f628888604051612b599291906149e3565b60405180910390a4612b6f828888888888612e16565b50505050505050565b505050505050565b612b9f8473ffffffffffffffffffffffffffffffffffffffff16612fe6565b15612d48578373ffffffffffffffffffffffffffffffffffffffff1663bc197c8187878686866040518663ffffffff1660e01b8152600401612be59594939291906144b1565b602060405180830381600087803b158015612bff57600080fd5b505af1925050508015612c3057506040513d601f19601f82011682018060405250810190612c2d91906139e8565b60015b612cbf57612c3c614e25565b80612c475750612c84565b806040517f08c379a0000000000000000000000000000000000000000000000000000000008152600401612c7b91906146a6565b60405180910390fd5b6040517f08c379a0000000000000000000000000000000000000000000000000000000008152600401612cb6906146c8565b60405180910390fd5b63bc197c8160e01b7bffffffffffffffffffffffffffffffffffffffffffffffffffffffff1916817bffffffffffffffffffffffffffffffffffffffffffffffffffffffff191614612d46576040517f08c379a0000000000000000000000000000000000000000000000000000000008152600401612d3d906146e8565b60405180910390fd5b505b505050505050565b60606000600167ffffffffffffffff811115612d95577f4e487b7100000000000000000000000000000000000000000000000000000000600052604160045260246000fd5b604051908082528060200260200182016040528015612dc35781602001602082028036833780820191505090505b5090508281600081518110612e01577f4e487b7100000000000000000000000000000000000000000000000000000000600052603260045260246000fd5b60200260200101818152505080915050919050565b612e358473ffffffffffffffffffffffffffffffffffffffff16612fe6565b15612fde578373ffffffffffffffffffffffffffffffffffffffff1663f23a6e6187878686866040518663ffffffff1660e01b8152600401612e7b959493929190614519565b602060405180830381600087803b158015612e9557600080fd5b505af1925050508015612ec657506040513d601f19601f82011682018060405250810190612ec391906139e8565b60015b612f5557612ed2614e25565b80612edd5750612f1a565b806040517f08c379a0000000000000000000000000000000000000000000000000000000008152600401612f1191906146a6565b60405180910390fd5b6040517f08c379a0000000000000000000000000000000000000000000000000000000008152600401612f4c906146c8565b60405180910390fd5b63f23a6e6160e01b7bffffffffffffffffffffffffffffffffffffffffffffffffffffffff1916817bffffffffffffffffffffffffffffffffffffffffffffffffffffffff191614612fdc576040517f08c379a0000000000000000000000000000000000000000000000000000000008152600401612fd3906146e8565b60405180910390fd5b505b505050505050565b600080823b905060008111915050919050565b82805461300590614cff565b90600052602060002090601f016020900481019282613027576000855561306e565b82601f1061304057805160ff191683800117855561306e565b8280016001018555821561306e579182015b8281111561306d578251825591602001919060010190613052565b5b50905061307b919061307f565b5090565b5b80821115613098576000816000905550600101613080565b5090565b60006130af6130aa84614a82565b614a51565b905080838252602082019050828560208602820111156130ce57600080fd5b60005b858110156130fe57816130e4888261325c565b8452602084019350602083019250506001810190506130d1565b5050509392505050565b600061311b61311684614aae565b614a51565b9050808382526020820190508285602086028201111561313a57600080fd5b60005b8581101561316a57816131508882613304565b84526020840193506020830192505060018101905061313d565b5050509392505050565b600061318761318284614ada565b614a51565b905080838252602082019050828560208602820111156131a657600080fd5b60005b858110156131d657816131bc8882613397565b8452602084019350602083019250506001810190506131a9565b5050509392505050565b60006131f36131ee84614b06565b614a51565b90508281526020810184848401111561320b57600080fd5b613216848285614cbd565b509392505050565b600061323161322c84614b36565b614a51565b90508281526020810184848401111561324957600080fd5b613254848285614cbd565b509392505050565b60008135905061326b81614edb565b92915050565b600082601f83011261328257600080fd5b813561329284826020860161309c565b91505092915050565b600082601f8301126132ac57600080fd5b81356132bc848260208601613108565b91505092915050565b600082601f8301126132d657600080fd5b81356132e6848260208601613174565b91505092915050565b6000813590506132fe81614ef2565b92915050565b60008135905061331381614f09565b92915050565b60008135905061332881614f20565b92915050565b60008151905061333d81614f20565b92915050565b600082601f83011261335457600080fd5b81356133648482602086016131e0565b91505092915050565b600082601f83011261337e57600080fd5b813561338e84826020860161321e565b91505092915050565b6000813590506133a681614f37565b92915050565b6000602082840312156133be57600080fd5b60006133cc8482850161325c565b91505092915050565b600080604083850312156133e857600080fd5b60006133f68582860161325c565b92505060206134078582860161325c565b9150509250929050565b600080600080600060a0868803121561342957600080fd5b60006134378882890161325c565b95505060206134488882890161325c565b945050604086013567ffffffffffffffff81111561346557600080fd5b613471888289016132c5565b935050606086013567ffffffffffffffff81111561348e57600080fd5b61349a888289016132c5565b925050608086013567ffffffffffffffff8111156134b757600080fd5b6134c388828901613343565b9150509295509295909350565b600080600080600060a086880312156134e857600080fd5b60006134f68882890161325c565b95505060206135078882890161325c565b945050604061351888828901613397565b935050606061352988828901613397565b925050608086013567ffffffffffffffff81111561354657600080fd5b61355288828901613343565b9150509295509295909350565b6000806040838503121561357257600080fd5b60006135808582860161325c565b9250506020613591858286016132ef565b9150509250929050565b600080604083850312156135ae57600080fd5b60006135bc8582860161325c565b92505060206135cd85828601613397565b9150509250929050565b600080604083850312156135ea57600080fd5b600083013567ffffffffffffffff81111561360457600080fd5b61361085828601613271565b925050602083013567ffffffffffffffff81111561362d57600080fd5b613639858286016132c5565b9150509250929050565b6000806000806080858703121561365957600080fd5b600085013567ffffffffffffffff81111561367357600080fd5b61367f8782880161329b565b945050602085013567ffffffffffffffff81111561369c57600080fd5b6136a8878288016132c5565b935050604085013567ffffffffffffffff8111156136c557600080fd5b6136d18782880161329b565b925050606085013567ffffffffffffffff8111156136ee57600080fd5b6136fa878288016132c5565b91505092959194509250565b600080600080600060a0868803121561371e57600080fd5b600086013567ffffffffffffffff81111561373857600080fd5b6137448882890161329b565b955050602086013567ffffffffffffffff81111561376157600080fd5b61376d888289016132c5565b945050604086013567ffffffffffffffff81111561378a57600080fd5b613796888289016132c5565b935050606086013567ffffffffffffffff8111156137b357600080fd5b6137bf888289016132c5565b925050608086013567ffffffffffffffff8111156137dc57600080fd5b6137e88882890161329b565b9150509295509295909350565b60006020828403121561380757600080fd5b600061381584828501613304565b91505092915050565b6000806040838503121561383157600080fd5b600061383f85828601613304565b925050602061385085828601613304565b9150509250929050565b6000806040838503121561386d57600080fd5b600061387b85828601613304565b925050602061388c85828601613397565b9150509250929050565b6000806000606084860312156138ab57600080fd5b60006138b986828701613304565b93505060206138ca86828701613397565b92505060406138db86828701613304565b9150509250925092565b600080600080608085870312156138fb57600080fd5b600061390987828801613304565b945050602061391a87828801613397565b935050604061392b87828801613304565b925050606061393c87828801613397565b91505092959194509250565b600080600080600060a0868803121561396057600080fd5b600061396e88828901613304565b955050602061397f88828901613397565b945050604061399088828901613397565b93505060606139a188828901613397565b92505060806139b288828901613304565b9150509295509295909350565b6000602082840312156139d157600080fd5b60006139df84828501613319565b91505092915050565b6000602082840312156139fa57600080fd5b6000613a088482850161332e565b91505092915050565b600060208284031215613a2357600080fd5b600082013567ffffffffffffffff811115613a3d57600080fd5b613a498482850161336d565b91505092915050565b600060208284031215613a6457600080fd5b6000613a7284828501613397565b91505092915050565b6000613a878383614478565b60208301905092915050565b613a9c81614c2d565b82525050565b6000613aad82614b76565b613ab78185614ba4565b9350613ac283614b66565b8060005b83811015613af3578151613ada8882613a7b565b9750613ae583614b97565b925050600181019050613ac6565b5085935050505092915050565b613b0981614c3f565b82525050565b613b1881614c4b565b82525050565b6000613b2982614b81565b613b338185614bb5565b9350613b43818560208601614ccc565b613b4c81614e07565b840191505092915050565b613b6081614cab565b82525050565b6000613b7182614b8c565b613b7b8185614bc6565b9350613b8b818560208601614ccc565b613b9481614e07565b840191505092915050565b6000613bac603483614bc6565b91507f455243313135353a207472616e7366657220746f206e6f6e204552433131353560008301527f526563656976657220696d706c656d656e7465720000000000000000000000006020830152604082019050919050565b6000613c12602883614bc6565b91507f455243313135353a204552433131353552656365697665722072656a6563746560008301527f6420746f6b656e730000000000000000000000000000000000000000000000006020830152604082019050919050565b6000613c78601083614bc6565b91507f496e76616c6964204554482070616964000000000000000000000000000000006000830152602082019050919050565b6000613cb8602b83614bc6565b91507f455243313135353a2062616c616e636520717565727920666f7220746865207a60008301527f65726f20616464726573730000000000000000000000000000000000000000006020830152604082019050919050565b6000613d1e602683614bc6565b91507f4f776e61626c653a206e6577206f776e657220697320746865207a65726f206160008301527f64647265737300000000000000000000000000000000000000000000000000006020830152604082019050919050565b6000613d84602483614bc6565b91507f455243313135353a206275726e20616d6f756e7420657863656564732062616c60008301527f616e6365000000000000000000000000000000000000000000000000000000006020830152604082019050919050565b6000613dea601483614bc6565b91507f546f6b656e20616c7265616479206578697374730000000000000000000000006000830152602082019050919050565b6000613e2a602983614bc6565b91507f455243313135353a2063616c6c6572206973206e6f74206f776e6572206e6f7260008301527f20617070726f76656400000000000000000000000000000000000000000000006020830152604082019050919050565b6000613e90601a83614bc6565b91507f596f752063616e6e6f7420676f206261636b20696e2074696d650000000000006000830152602082019050919050565b6000613ed0602583614bc6565b91507f455243313135353a207472616e7366657220746f20746865207a65726f20616460008301527f64726573730000000000000000000000000000000000000000000000000000006020830152604082019050919050565b6000613f36603283614bc6565b91507f455243313135353a207472616e736665722063616c6c6572206973206e6f742060008301527f6f776e6572206e6f7220617070726f76656400000000000000000000000000006020830152604082019050919050565b6000613f9c602383614bc6565b91507f455243313135353a206275726e2066726f6d20746865207a65726f206164647260008301527f65737300000000000000000000000000000000000000000000000000000000006020830152604082019050919050565b6000614002602a83614bc6565b91507f455243313135353a20696e73756666696369656e742062616c616e636520666f60008301527f72207472616e73666572000000000000000000000000000000000000000000006020830152604082019050919050565b6000614068602083614bc6565b91507f4f776e61626c653a2063616c6c6572206973206e6f7420746865206f776e65726000830152602082019050919050565b60006140a8603183614bc6565b91507f596f752063616e6e6f74206d696e74206d6f726520746f6b656e73207468616e60008301527f2074686520746f74616c20737570706c790000000000000000000000000000006020830152604082019050919050565b600061410e603183614bc6565b91507f596f752068617665206e6f2062616c616e6365206f662074686520616363657360008301527f7320746f6b656e2070726f76696465642e0000000000000000000000000000006020830152604082019050919050565b6000614174602883614bc6565b91507f596f752063616e6e6f742061646420746f6b656e7320666f722070726576696f60008301527f75732077617665730000000000000000000000000000000000000000000000006020830152604082019050919050565b6000815250565b60006141e1601383614bc6565b91507f5469657220616c726561647920657869737473000000000000000000000000006000830152602082019050919050565b6000614221603d83614bc6565b91507f596f7520617265206e6f7420616c6c6f77656420746f206d696e74207468697360008301527f20746f6b656e206174207468697320706f696e7420696e2074696d652e0000006020830152604082019050919050565b6000614287602a83614bc6565b91507f416c6c20746f6b656e732061726520616c7265616479206d696e74656420666f60008301527f72207468697320494421000000000000000000000000000000000000000000006020830152604082019050919050565b60006142ed602983614bc6565b91507f455243313135353a2073657474696e6720617070726f76616c2073746174757360008301527f20666f722073656c6600000000000000000000000000000000000000000000006020830152604082019050919050565b6000614353602983614bc6565b91507f455243313135353a206163636f756e747320616e6420696473206c656e67746860008301527f206d69736d6174636800000000000000000000000000000000000000000000006020830152604082019050919050565b60006143b9602883614bc6565b91507f455243313135353a2069647320616e6420616d6f756e7473206c656e6774682060008301527f6d69736d617463680000000000000000000000000000000000000000000000006020830152604082019050919050565b600061441f602183614bc6565b91507f455243313135353a206d696e7420746f20746865207a65726f2061646472657360008301527f73000000000000000000000000000000000000000000000000000000000000006020830152604082019050919050565b61448181614ca1565b82525050565b61449081614ca1565b82525050565b60006020820190506144ab6000830184613a93565b92915050565b600060a0820190506144c66000830188613a93565b6144d36020830187613a93565b81810360408301526144e58186613aa2565b905081810360608301526144f98185613aa2565b9050818103608083015261450d8184613b1e565b90509695505050505050565b600060a08201905061452e6000830188613a93565b61453b6020830187613a93565b6145486040830186614487565b6145556060830185614487565b81810360808301526145678184613b1e565b90509695505050505050565b6000602082019050818103600083015261458d8184613aa2565b905092915050565b600060408201905081810360008301526145af8185613aa2565b905081810360208301526145c38184613aa2565b90509392505050565b60006020820190506145e16000830184613b00565b92915050565b60006040820190506145fc6000830184613b0f565b614608602083016141cd565b92915050565b60006080820190506146236000830187613b0f565b6146306020830186614487565b61463d6040830185613b0f565b61464a6060830184613b57565b95945050505050565b600060a0820190506146686000830188613b0f565b6146756020830187614487565b6146826040830186614487565b61468f6060830185614487565b61469c6080830184613b0f565b9695505050505050565b600060208201905081810360008301526146c08184613b66565b905092915050565b600060208201905081810360008301526146e181613b9f565b9050919050565b6000602082019050818103600083015261470181613c05565b9050919050565b6000602082019050818103600083015261472181613c6b565b9050919050565b6000602082019050818103600083015261474181613cab565b9050919050565b6000602082019050818103600083015261476181613d11565b9050919050565b6000602082019050818103600083015261478181613d77565b9050919050565b600060208201905081810360008301526147a181613ddd565b9050919050565b600060208201905081810360008301526147c181613e1d565b9050919050565b600060208201905081810360008301526147e181613e83565b9050919050565b6000602082019050818103600083015261480181613ec3565b9050919050565b6000602082019050818103600083015261482181613f29565b9050919050565b6000602082019050818103600083015261484181613f8f565b9050919050565b6000602082019050818103600083015261486181613ff5565b9050919050565b600060208201905081810360008301526148818161405b565b9050919050565b600060208201905081810360008301526148a18161409b565b9050919050565b600060208201905081810360008301526148c181614101565b9050919050565b600060208201905081810360008301526148e181614167565b9050919050565b60006020820190508181036000830152614901816141d4565b9050919050565b6000602082019050818103600083015261492181614214565b9050919050565b600060208201905081810360008301526149418161427a565b9050919050565b60006020820190508181036000830152614961816142e0565b9050919050565b6000602082019050818103600083015261498181614346565b9050919050565b600060208201905081810360008301526149a1816143ac565b9050919050565b600060208201905081810360008301526149c181614412565b9050919050565b60006020820190506149dd6000830184614487565b92915050565b60006040820190506149f86000830185614487565b614a056020830184614487565b9392505050565b6000608082019050614a216000830187614487565b614a2e6020830186614487565b614a3b6040830185614487565b614a486060830184613b0f565b95945050505050565b6000604051905081810181811067ffffffffffffffff82111715614a7857614a77614dd8565b5b8060405250919050565b600067ffffffffffffffff821115614a9d57614a9c614dd8565b5b602082029050602081019050919050565b600067ffffffffffffffff821115614ac957614ac8614dd8565b5b602082029050602081019050919050565b600067ffffffffffffffff821115614af557614af4614dd8565b5b602082029050602081019050919050565b600067ffffffffffffffff821115614b2157614b20614dd8565b5b601f19601f8301169050602081019050919050565b600067ffffffffffffffff821115614b5157614b50614dd8565b5b601f19601f8301169050602081019050919050565b6000819050602082019050919050565b600081519050919050565b600081519050919050565b600081519050919050565b6000602082019050919050565b600082825260208201905092915050565b600082825260208201905092915050565b600082825260208201905092915050565b6000614be282614ca1565b9150614bed83614ca1565b9250827fffffffffffffffffffffffffffffffffffffffffffffffffffffffffffffffff03821115614c2257614c21614d7a565b5b828201905092915050565b6000614c3882614c81565b9050919050565b60008115159050919050565b6000819050919050565b60007fffffffff0000000000000000000000000000000000000000000000000000000082169050919050565b600073ffffffffffffffffffffffffffffffffffffffff82169050919050565b6000819050919050565b6000614cb682614ca1565b9050919050565b82818337600083830152505050565b60005b83811015614cea578082015181840152602081019050614ccf565b83811115614cf9576000848401525b50505050565b60006002820490506001821680614d1757607f821691505b60208210811415614d2b57614d2a614da9565b5b50919050565b6000614d3c82614ca1565b91507fffffffffffffffffffffffffffffffffffffffffffffffffffffffffffffffff821415614d6f57614d6e614d7a565b5b600182019050919050565b7f4e487b7100000000000000000000000000000000000000000000000000000000600052601160045260246000fd5b7f4e487b7100000000000000000000000000000000000000000000000000000000600052602260045260246000fd5b7f4e487b7100000000000000000000000000000000000000000000000000000000600052604160045260246000fd5b6000601f19601f8301169050919050565b60008160e01c9050919050565b600060443d1015614e3557614ed8565b60046000803e614e46600051614e18565b6308c379a08114614e575750614ed8565b60405160043d036004823e80513d602482011167ffffffffffffffff82111715614e8357505050614ed8565b808201805167ffffffffffffffff811115614ea2575050505050614ed8565b8060208301013d8501811115614ebd57505050505050614ed8565b614ec682614e07565b60208401016040528296505050505050505b90565b614ee481614c2d565b8114614eef57600080fd5b50565b614efb81614c3f565b8114614f0657600080fd5b50565b614f1281614c4b565b8114614f1d57600080fd5b50565b614f2981614c55565b8114614f3457600080fd5b50565b614f4081614ca1565b8114614f4b57600080fd5b5056fea26469706673582212208747f61b384d4e259110d352b5d10825243c38ead638fa5a619b4cad538a84f264736f6c634300080000334f6e6c79206c696d6974656420706572736f6e616c206e6f6e2d636f6d6d65726369616c2075736520616e6420726573616c652072696768747320696e20746865204e465420617265206772616e74656420616e6420616c6c20636f7079726967687420616e64206f7468657220726967687473206172652072657365727665642e20546865207465726d7320616e6420636f6e646974696f6e73206f6620416c69656e2053616d757261692044696e6f2057617272696f7273202868747470733a2f2f64696e6f77617272696f72732e696f2920617265206170706c696361626c652e",
  "immutableReferences": {},
  "source": "//SPDX-License-Identifier: UNLICENSED\npragma solidity ^0.8.0;\n\nimport \"openzeppelin-solidity/contracts/token/ERC1155/ERC1155.sol\";\nimport \"openzeppelin-solidity/contracts/access/Ownable.sol\";\nimport \"openzeppelin-solidity/contracts/utils/math/SafeMath.sol\";\n\n// In Remix, use:\n//import \"https://github.com/OpenZeppelin/openzeppelin-contracts/blob/master/contracts/token/ERC1155/ERC1155.sol\";\n//import \"https://github.com/OpenZeppelin/openzeppelin-contracts/blob/master/contracts/access/Ownable.sol\";\n\n/**\n * Smart contract used for Alien Samurai Dino Warriors NFT's. Legal terms:\n * Only limited personal non-commercial use and resale rights in the NFT are granted and all copyright and other rights are reserved.\n * The terms and conditions of Alien Samurai Dino Warriors (https://dinowarriors.io) are applicable.\n */\ncontract DinoWarriors is ERC1155, Ownable() {\n\n    using SafeMath for uint128;\n    using SafeMath for uint256;\n\n    /**\n     * Event emitting after each mint\n     * @param account The address that minted the token\n     * @param token The human readable name of the token in bytes32\n     * @param minted The amount of minted tokens of this type\n     */\n    event Minted(address indexed account, bytes32 indexed token, uint minted);\n\n    // Struct to keep info on all tokens\n    struct TokenInfo {\n        uint256 id;\n        uint256 mintedAmount;\n        uint256 totalAmount;\n        bytes32 tier; // Info on aggregated tier level\n    }\n\n    // Map each token description to the technical information\n    mapping(bytes32 => TokenInfo) public tokenInfo;\n\n    struct Tier {\n        uint256 price; // Price in Wei\n        uint256 mintable; /*By who can the token be minted?\n                            - 0: nobody can mint.\n                            - x: everyone with a drop reward between wave 1 and wave x can mint.\n                              x can be increased over time to have stepwise priority for pre-sales\n                            - Equal to latestDropWave + 1: everyone can mint */\n        uint256 dropWave; // In which drop was the tier released?\n        bytes32 tokenToBurn; // If this token is used to claim minting rights, burn it\n    }\n\n\n    // Map each tier to it's information\n    /** @dev Mapping with tier information */\n    mapping(bytes32 => Tier) public tiers;\n\n    // Keep track of latest drop\n    uint256 public latestDropWave = 1;\n\n    // Current token id\n    uint256 currentTokenId;\n\n    // A link to the legal terms of the smart contract\n    string public legalTerms;\n\n    // Address receiving the funds after minting with fees\n    address public wallet;\n\n    /**\n     * @dev The constructor will call the constructer of the ERC1155 contract,\n     * and hardcode:\n     * - legal terms of the contract\n     * - Initial tiers to start with\n     *- Initial tokens to start with\n     * - Which tokens are preminted by Envoy\n     * @param uri_ The URI to link metadata to the NFT's\n     */\n    constructor(\n        string memory uri_\n        )\n        ERC1155(uri_){\n            wallet = _msgSender();\n\n            legalTerms = \"Only limited personal non-commercial use and resale rights in the NFT are granted and all copyright and other rights are reserved. The terms and conditions of Alien Samurai Dino Warriors (https://dinowarriors.io) are applicable.\";\n            /* Set Tiers */\n            tiers['OG_CARD'] = Tier({price: 0.15 ether, mintable: 0, dropWave: 1, tokenToBurn: ''});\n            tiers['SILVER'] = Tier({price: 0, mintable: 0, dropWave: 1, tokenToBurn: 'OG_CARD'});\n            tiers['GOLD'] = Tier({price: 0.55 ether, mintable: 0, dropWave: 1, tokenToBurn: ''});\n            tiers['DIAMOND'] = Tier({price: 0, mintable: 2, dropWave: 1, tokenToBurn: ''});\n\n            // Token 0: OG_CARD\n            tokenInfo['OG_CARD'] = TokenInfo({id: 0, mintedAmount: 0, totalAmount: 5000, tier: 'OG_CARD'});\n            // Silver ASDW cards\n            // tokenInfo['REGULAR_T_REX'] = TokenInfo({id: 1, mintedAmount: 0, totalAmount: 200, tier: 'SILVER'});\n            // tokenInfo['REGULAR_TRICERATOPS'] = TokenInfo({id: 2, mintedAmount: 0, totalAmount: 200, tier: 'SILVER'});\n            // tokenInfo['REGULAR_DILOPHOSAURUS'] = TokenInfo({id: 3, mintedAmount: 0, totalAmount: 200, tier: 'SILVER'});\n            // tokenInfo['REGULAR_STEGOSAURUS'] = TokenInfo({id: 4, mintedAmount: 0, totalAmount: 200, tier: 'SILVER'});\n            // tokenInfo['REGULAR_VELOCIRAPTOR'] = TokenInfo({id: 5, mintedAmount: 0, totalAmount: 200, tier: 'SILVER'});\n            // tokenInfo['REGULAR_MAMMOTH'] = TokenInfo({id: 6, mintedAmount: 0, totalAmount: 300, tier: 'SILVER'});\n            // tokenInfo['REGULAR_SABRETOOTH_TIGER'] = TokenInfo({id: 7, mintedAmount: 0, totalAmount: 300, tier: 'SILVER'});\n            // tokenInfo['REGULAR_GORILLA'] = TokenInfo({id: 8, mintedAmount: 0, totalAmount: 300, tier: 'SILVER'});\n            // tokenInfo['REGULAR_HIPPO'] = TokenInfo({id: 9, mintedAmount: 0, totalAmount: 300, tier: 'SILVER'});\n            // tokenInfo['HOLOGRAPHIC_T_REX'] = TokenInfo({id: 10, mintedAmount: 0, totalAmount: 5, tier: 'SILVER'});\n            // tokenInfo['HOLOGRAPHIC_TRICERATOPS'] = TokenInfo({id: 11, mintedAmount: 0, totalAmount: 5, tier: 'SILVER'});\n            // tokenInfo['HOLOGRAPHIC_DILOPHOSAURUS'] = TokenInfo({id: 12, mintedAmount: 0, totalAmount: 5, tier: 'SILVER'});\n            // tokenInfo['HOLOGRAPHIC_STEGOSAURUS'] = TokenInfo({id: 13, mintedAmount: 0, totalAmount: 5, tier: 'SILVER'});\n            // tokenInfo['HOLOGRAPHIC_VELOCIRAPTOR'] = TokenInfo({id: 14, mintedAmount: 0, totalAmount: 5, tier: 'SILVER'});\n            // tokenInfo['HOLOGRAPHIC_MAMMOTH'] = TokenInfo({id: 15, mintedAmount: 0, totalAmount: 12, tier: 'SILVER'});\n            // tokenInfo['HOLOGRAPHIC_SABRETOOTH_TIGER'] = TokenInfo({id: 16, mintedAmount: 0, totalAmount: 12, tier: 'SILVER'});\n            // tokenInfo['HOLOGRAPHIC_GORILLA'] = TokenInfo({id: 17, mintedAmount: 0, totalAmount: 12, tier: 'SILVER'});\n            // tokenInfo['HOLOGRAPHIC_HIPPO'] = TokenInfo({id: 18, mintedAmount: 0, totalAmount: 12, tier: 'SILVER'});\n            // tokenInfo['REVERSE_HOLO_T_REX_NAKED'] = TokenInfo({id: 19, mintedAmount: 0, totalAmount: 1, tier: 'SILVER'});\n            // tokenInfo['REVERSE_HOLO_T_REX'] = TokenInfo({id: 20, mintedAmount: 0, totalAmount: 2, tier: 'SILVER'});\n            // tokenInfo['REVERSE_HOLO_TRICERATOPS'] = TokenInfo({id: 21, mintedAmount: 0, totalAmount: 2, tier: 'SILVER'});\n            // tokenInfo['REVERSE_HOLO_DILOPHOSAURUS'] = TokenInfo({id: 22, mintedAmount: 0, totalAmount: 2, tier: 'SILVER'});\n            // tokenInfo['REVERSE_HOLO_STEGOSAURUS'] = TokenInfo({id: 23, mintedAmount: 0, totalAmount: 2, tier: 'SILVER'});\n            // tokenInfo['REVERSE_HOLO_VELOCIRAPTOR'] = TokenInfo({id: 24, mintedAmount: 0, totalAmount: 2, tier: 'SILVER'});\n            // tokenInfo['REVERSE_HOLO_MAMMOTH'] = TokenInfo({id: 25, mintedAmount: 0, totalAmount: 4, tier: 'SILVER'});\n            // tokenInfo['REVERSE_HOLO_SABRETOOTH_TIGER'] = TokenInfo({id: 26, mintedAmount: 0, totalAmount: 4, tier: 'SILVER'});\n            // tokenInfo['REVERSE_HOLO_GORILLA'] = TokenInfo({id: 27, mintedAmount: 0, totalAmount: 4, tier: 'SILVER'});\n            // tokenInfo['REVERSE_HOLO_HIPPO'] = TokenInfo({id: 28, mintedAmount: 0, totalAmount: 4, tier: 'SILVER'});\n            // tokenInfo['ROSE_GOLD_T_REX_NAKED'] = TokenInfo({id: 29, mintedAmount: 0, totalAmount: 2, tier: 'SILVER'});\n            // tokenInfo['ROSE_GOLD_T_REX'] = TokenInfo({id: 30, mintedAmount: 0, totalAmount: 5, tier: 'SILVER'});\n            // tokenInfo['ROSE_GOLD_TRICERATOPS'] = TokenInfo({id: 31, mintedAmount: 0, totalAmount: 5, tier: 'SILVER'});\n            // tokenInfo['ROSE_GOLD_DILOPHOSAURUS'] = TokenInfo({id: 32, mintedAmount: 0, totalAmount: 5, tier: 'SILVER'});\n            // tokenInfo['ROSE_GOLD_STEGOSAURUS'] = TokenInfo({id: 33, mintedAmount: 0, totalAmount: 5, tier: 'SILVER'});\n            // tokenInfo['ROSE_GOLD_VELOCIRAPTOR'] = TokenInfo({id: 34, mintedAmount: 0, totalAmount: 5, tier: 'SILVER'});\n            // tokenInfo['ROSE_GOLD_MAMMOTH'] = TokenInfo({id: 35, mintedAmount: 0, totalAmount: 10, tier: 'SILVER'});\n            // tokenInfo['ROSE_GOLD_SABRETOOTH_TIGER'] = TokenInfo({id: 36, mintedAmount: 0, totalAmount: 10, tier: 'SILVER'});\n            // tokenInfo['ROSE_GOLD_GORILLA'] = TokenInfo({id: 37, mintedAmount: 0, totalAmount: 10, tier: 'SILVER'});\n            // tokenInfo['ROSE_GOLD_HIPPO'] = TokenInfo({id: 38, mintedAmount: 0, totalAmount: 10, tier: 'SILVER'});\n            // tokenInfo['GOLD_T_REX_NAKED'] = TokenInfo({id: 39, mintedAmount: 0, totalAmount: 3, tier: 'SILVER'});\n            // tokenInfo['GOLD_T_REX'] = TokenInfo({id: 40, mintedAmount: 0, totalAmount: 10, tier: 'SILVER'});\n            // tokenInfo['GOLD_TRICERATOPS'] = TokenInfo({id: 41, mintedAmount: 0, totalAmount: 10, tier: 'SILVER'});\n            // tokenInfo['GOLD_DILOPHOSAURUS'] = TokenInfo({id: 42, mintedAmount: 0, totalAmount: 10, tier: 'SILVER'});\n            // tokenInfo['GOLD_STEGOSAURUS'] = TokenInfo({id: 43, mintedAmount: 0, totalAmount: 10, tier: 'SILVER'});\n            // tokenInfo['GOLD_VELOCIRAPTOR'] = TokenInfo({id: 44, mintedAmount: 0, totalAmount: 10, tier: 'SILVER'});\n            // tokenInfo['GOLD_MAMMOTH'] = TokenInfo({id: 45, mintedAmount: 0, totalAmount: 20, tier: 'SILVER'});\n            // tokenInfo['GOLD_SABRETOOTH_TIGER'] = TokenInfo({id: 46, mintedAmount: 0, totalAmount: 20, tier: 'SILVER'});\n            // tokenInfo['GOLD_GORILLA'] = TokenInfo({id: 47, mintedAmount: 0, totalAmount: 20, tier: 'SILVER'});\n            // tokenInfo['GOLD_HIPPO'] = TokenInfo({id: 48, mintedAmount: 0, totalAmount: 20, tier: 'SILVER'});\n            // tokenInfo['SILVER_T_REX_NAKED'] = TokenInfo({id: 49, mintedAmount: 0, totalAmount: 4, tier: 'SILVER'});\n            // tokenInfo['SILVER_T_REX'] = TokenInfo({id: 50, mintedAmount: 0, totalAmount: 15, tier: 'SILVER'});\n            // tokenInfo['SILVER_TRICERATOPS'] = TokenInfo({id: 51, mintedAmount: 0, totalAmount: 15, tier: 'SILVER'});\n            // tokenInfo['SILVER_DILOPHOSAURUS'] = TokenInfo({id: 52, mintedAmount: 0, totalAmount: 15, tier: 'SILVER'});\n            // tokenInfo['SILVER_STEGOSAURUS'] = TokenInfo({id: 53, mintedAmount: 0, totalAmount: 15, tier: 'SILVER'});\n            // tokenInfo['SILVER_VELOCIRAPTOR'] = TokenInfo({id: 54, mintedAmount: 0, totalAmount: 15, tier: 'SILVER'});\n            // tokenInfo['SILVER_MAMMOTH'] = TokenInfo({id: 55, mintedAmount: 0, totalAmount: 25, tier: 'SILVER'});\n            // tokenInfo['SILVER_SABRETOOTH_TIGER'] = TokenInfo({id: 56, mintedAmount: 0, totalAmount: 25, tier: 'SILVER'});\n            // tokenInfo['SILVER_GORILLA'] = TokenInfo({id: 57, mintedAmount: 0, totalAmount: 25, tier: 'SILVER'});\n            // tokenInfo['SILVER_HIPPO'] = TokenInfo({id: 58, mintedAmount: 0, totalAmount: 25, tier: 'SILVER'});\n            // tokenInfo['BRONZE_T_REX_NAKED'] = TokenInfo({id: 59, mintedAmount: 0, totalAmount: 10, tier: 'SILVER'});\n            // tokenInfo['BRONZE_T_REX'] = TokenInfo({id: 60, mintedAmount: 0, totalAmount: 50, tier: 'SILVER'});\n            // tokenInfo['BRONZE_TRICERATOPS'] = TokenInfo({id: 61, mintedAmount: 0, totalAmount: 50, tier: 'SILVER'});\n            // tokenInfo['BRONZE_DILOPHOSAURUS'] = TokenInfo({id: 62, mintedAmount: 0, totalAmount: 50, tier: 'SILVER'});\n            // tokenInfo['BRONZE_STEGOSAURUS'] = TokenInfo({id: 63, mintedAmount: 0, totalAmount: 50, tier: 'SILVER'});\n            // tokenInfo['BRONZE_VELOCIRAPTOR'] = TokenInfo({id: 64, mintedAmount: 0, totalAmount: 50, tier: 'SILVER'});\n            // tokenInfo['BRONZE_MAMMOTH'] = TokenInfo({id: 65, mintedAmount: 0, totalAmount: 100, tier: 'SILVER'});\n            // tokenInfo['BRONZE_SABRETOOTH_TIGER'] = TokenInfo({id: 66, mintedAmount: 0, totalAmount: 100, tier: 'SILVER'});\n            // tokenInfo['BRONZE_GORILLA'] = TokenInfo({id: 67, mintedAmount: 0, totalAmount: 100, tier: 'SILVER'});\n            // tokenInfo['BRONZE_HIPPO'] = TokenInfo({id: 68, mintedAmount: 0, totalAmount: 100, tier: 'SILVER'});\n            // tokenInfo['RAINBOW_T_REX_NAKED'] = TokenInfo({id: 69, mintedAmount: 0, totalAmount: 1, tier: 'SILVER'});\n            // tokenInfo['RAINBOW_T_REX'] = TokenInfo({id: 70, mintedAmount: 0, totalAmount: 2, tier: 'SILVER'});\n            // tokenInfo['RAINBOW_TRICERATOPS'] = TokenInfo({id: 71, mintedAmount: 0, totalAmount: 2, tier: 'SILVER'});\n            // tokenInfo['RAINBOW_DILOPHOSAURUS'] = TokenInfo({id: 72, mintedAmount: 0, totalAmount: 2, tier: 'SILVER'});\n            // tokenInfo['RAINBOW_STEGOSAURUS'] = TokenInfo({id: 73, mintedAmount: 0, totalAmount: 2, tier: 'SILVER'});\n            // tokenInfo['RAINBOW_VELOCIRAPTOR'] = TokenInfo({id: 74, mintedAmount: 0, totalAmount: 2, tier: 'SILVER'});\n            // tokenInfo['RAINBOW_MAMMOTH'] = TokenInfo({id: 75, mintedAmount: 0, totalAmount: 5, tier: 'SILVER'});\n            // tokenInfo['RAINBOW_SABRETOOTH_TIGER'] = TokenInfo({id: 76, mintedAmount: 0, totalAmount: 5, tier: 'SILVER'});\n            // tokenInfo['RAINBOW_GORILLA'] = TokenInfo({id: 77, mintedAmount: 0, totalAmount: 5, tier: 'SILVER'});\n            // tokenInfo['RAINBOW_HIPPO'] = TokenInfo({id: 78, mintedAmount: 0, totalAmount: 5, tier: 'SILVER'});\n            // tokenInfo['8_BIT_T_REX'] = TokenInfo({id: 79, mintedAmount: 0, totalAmount: 150, tier: 'SILVER'});\n            // tokenInfo['8_BIT_TRICERATOPS'] = TokenInfo({id: 80, mintedAmount: 0, totalAmount: 150, tier: 'SILVER'});\n            // tokenInfo['8_BIT_DILOPHOSAURUS'] = TokenInfo({id: 81, mintedAmount: 0, totalAmount: 150, tier: 'SILVER'});\n            // tokenInfo['8_BIT_STEGOSAURUS'] = TokenInfo({id: 82, mintedAmount: 0, totalAmount: 150, tier: 'SILVER'});\n            // tokenInfo['8_BIT_VELOCIRAPTOR'] = TokenInfo({id: 83, mintedAmount: 0, totalAmount: 150, tier: 'SILVER'});\n            // tokenInfo['8_BIT_MAMMOTH'] = TokenInfo({id: 84, mintedAmount: 0, totalAmount: 195, tier: 'SILVER'});\n            // tokenInfo['8_BIT_SABRETOOTH_TIGER'] = TokenInfo({id: 85, mintedAmount: 0, totalAmount: 195, tier: 'SILVER'});\n            // tokenInfo['8_BIT_GORILLA'] = TokenInfo({id: 86, mintedAmount: 0, totalAmount: 195, tier: 'SILVER'});\n            // tokenInfo['8_BIT_HIPPO'] = TokenInfo({id: 87, mintedAmount: 0, totalAmount: 195, tier: 'SILVER'});\n            // tokenInfo['8_BIT_SELECT_PLAYER_1'] = TokenInfo({id: 88, mintedAmount: 0, totalAmount: 20, tier: 'SILVER'});\n            // tokenInfo['8_BIT_SELECT_PLAYER_2'] = TokenInfo({id: 89, mintedAmount: 0, totalAmount: 20, tier: 'SILVER'});\n            // tokenInfo['8_BIT_SELECT_PLAYER_3'] = TokenInfo({id: 90, mintedAmount: 0, totalAmount: 20, tier: 'SILVER'});\n            // tokenInfo['8_BIT_SELECT_PLAYER_4'] = TokenInfo({id: 91, mintedAmount: 0, totalAmount: 20, tier: 'SILVER'});\n            // tokenInfo['8_BIT_SELECT_PLAYER_5'] = TokenInfo({id: 92, mintedAmount: 0, totalAmount: 20, tier: 'SILVER'});\n            // Gold ASDW cards\n            tokenInfo['VELOCIRAPTOR'] = TokenInfo({id: 93, mintedAmount: 0, totalAmount: 100, tier: 'GOLD'});\n            tokenInfo['DILOPHOSAURUS'] = TokenInfo({id: 94, mintedAmount: 0, totalAmount: 100, tier: 'GOLD'});\n            tokenInfo['TRICERATOPS'] = TokenInfo({id: 95, mintedAmount: 0, totalAmount: 100, tier: 'GOLD'});\n            tokenInfo['STEGOSAURUS'] = TokenInfo({id: 96, mintedAmount: 0, totalAmount: 100, tier: 'GOLD'});\n            tokenInfo['TYRANNOSAUR'] = TokenInfo({id: 97, mintedAmount: 0, totalAmount: 100, tier: 'GOLD'});\n            tokenInfo['TYRANNOSAUR_WITH_LASER_EYES'] = TokenInfo({id: 98, mintedAmount: 0, totalAmount: 40, tier: 'GOLD'});\n            tokenInfo['MAMMAL_KING'] = TokenInfo({id: 99, mintedAmount: 0, totalAmount: 35, tier: 'GOLD'});\n            tokenInfo['CYBERSHARK'] = TokenInfo({id: 100, mintedAmount: 0, totalAmount: 25, tier: 'GOLD'});\n            // Diamond ASDW cards\n            \n            tokenInfo['DIAMOND'] = TokenInfo({id: 101, mintedAmount: 0, totalAmount: 1, tier: 'DIAMOND'});\n            currentTokenId = 102;\n            // Diamond minted by Envoy for direct auction\n            //_mint('DIAMOND');\n    }\n\n  //\n  // ******************* OWNERSHIP *******************\n  //\n\n    /**\n     * Function for the owner to update the wallet to which minting fees are sent.\n     * By default, this will be the owner of the contract\n     * @param wallet_ the address to receive funds\n     */\n    function updateWallet(address wallet_) external onlyOwner {\n        wallet = wallet_; \n    }\n\n    /**\n     * @notice Function for the owner to change the link to legal terms.\n     * @param legalTerms_ The link to the legal terms.\n     */\n    function setLegalTerms(string memory legalTerms_) external onlyOwner{\n        legalTerms = legalTerms_;\n    }\n\n    // Functions to manage tiers\n    \n    /**\n     * Functions to create new tiers, or to modify price and mintable of existing tier.\n     * Only the owner can run this function.\n     * Drop waves cannot be altered, and should always be higher than the latest drop wave.\n     * @param name The human readable key of the tier\n     * @param price_ The price that is required for minting tokens of this tier\n     * @param mintable_ Wetter the tokens in this tier are already mintable (0 for no).\n     * - 0: nobody can mint.\n     * - x: everyone with a drop reward between wave 1 and wave x can mint.\n     *      x can be increased over time to have stepwise priority for pre-sales\n     * - Equal to latestDropWave + 1: everyone can mint \n     * @param dropWave_ In which wave is this drop? For the ASDW cards, this will be 1.\n     * @param tokenToBurn_ If only current token owners are allowed to mint, they will need\n     * to burn their token in the minting process if it is this token.\n     */\n    function addTier(\n        bytes32 name,\n        uint256 price_,\n        uint256 mintable_,\n        uint256 dropWave_,\n        bytes32 tokenToBurn_) public onlyOwner{\n        \n        require(dropWave_ >= latestDropWave,\n            \"You cannot go back in time\");\n\n        require(tiers[name].dropWave == 0,\n            \"Tier already exists\");\n        \n\n        tiers[name] = Tier({price: price_,\n                            mintable: mintable_,\n                            dropWave: dropWave_,\n                            tokenToBurn: tokenToBurn_});\n\n        if (dropWave_ > latestDropWave) {\n            latestDropWave++;\n        }\n    }\n\n    /**\n     * Function to add multiple tiers in 1 transaction\n     * @param names The names of the tiers to add\n     * @param prices_ The price for each token\n     * @param mintable_ Which tiers can already be minted?\n     * @param dropWaves_ The different drop waves\n     * @param tokensToBurn_ Which tokens should be burned when provided in the minting process?\n     */\n    function addTiersBatch(\n        bytes32[] memory names,\n        uint256[] memory prices_,\n        uint256[] memory mintable_,\n        uint256[] memory dropWaves_,\n        bytes32[] memory tokensToBurn_) external onlyOwner{\n        \n        for(uint256 i = 1; i<names.length; i++){\n            this.addTier(names[i], prices_[i], mintable_[i], dropWaves_[i], tokensToBurn_[i]);\n        }    \n    }\n    /**\n     * Make a tier (un)mintable for (part of) the minters. Only the owner can run this function.\n     * @param name The human readable key of the tier\n     * @param mintable_ Wetter the tokens in this tier are already mintable (0 for no).\n     * - 0: nobody can mint.\n     * - x: everyone with a drop reward between wave 1 and wave x can mint.\n     *      x can be increased over time to have stepwise priority for pre-sales\n     * - Equal to latestDropWave + 1: everyone can mint \n     */\n    function setTierMintability(\n        bytes32 name,\n        uint256 mintable_) external onlyOwner{\n            tiers[name].mintable = mintable_;\n    }\n\n    /**\n     * Change the price of an existing tier.\n     * @param name The human readable key of the tier\n     * @param price_ New price in wei for the tier\n     */\n    function setTierPrice(\n        bytes32 name,\n        uint256 price_) external onlyOwner{\n            tiers[name].price = price_;\n    }\n\n\n    /**\n     * Function to add new tokens. Only the owner can run this function.\n     * New Tokens should always have a new human readable name as key,\n     * And they need to be in a tier of the latest wave available.\n     * @param name human readable name of the token\n     * @param totalAmount_ the total amount of tokens available for this token\n     * @param tier_ the tier in which the NFT is released, containing the price, dropwave,...\n     * @param amountToPreMint The amount of tokens to be preminted by the owner\n     */\n    function addToken(bytes32 name,\n        uint256 totalAmount_,\n        bytes32 tier_,\n        uint256 amountToPreMint) public onlyOwner{\n        \n        require(tokenInfo[name].totalAmount == 0,\n             \"Token already exists\");\n\n        // Implicit test if tier exists\n        require(tiers[tier_].dropWave >= latestDropWave,\n            \"You cannot add tokens for previous waves\");\n\n        require(amountToPreMint <= totalAmount_,\n            \"You cannot mint more tokens than the total supply\");\n\n        tokenInfo[name] = TokenInfo({id: currentTokenId,\n                                    mintedAmount: amountToPreMint,\n                                    totalAmount: totalAmount_,\n                                    tier: tier_\n                                    });\n\n        if(amountToPreMint != 0){\n            ERC1155._mint(_msgSender(), currentTokenId, amountToPreMint, \"\");\n        }\n\n        currentTokenId++;\n    }\n\n    /**\n     * Overload function when no tokens need to be preminted\n     */\n    function addToken(bytes32 name,\n        uint256 totalAmount_,\n        bytes32 tier_) public onlyOwner{\n        this.addToken(name, totalAmount_, tier_, 0);\n    }\n\n    /**\n     * Add multiple tokens at once.\n     * @param names Array containing the token names\n     * @param totalAmounts_ Array containing the total amount for each token. Should have the same length as names.\n     * @param tiers_ Array containing the tier for each token. Should have the same length as names.\n     * @param amountsToPreMint_ Array containing the amount of tokens to premint for each token.\n     *   Should have the same length as names.\n     */\n    function addTokensBatch(bytes32[] memory names,\n        uint256[] memory totalAmounts_,\n        bytes32[] memory tiers_,\n        uint256[] memory amountsToPreMint_) public onlyOwner{\n            for(uint256 i = 1; i<names.length; i++){\n                addToken(names[i], totalAmounts_[i], tiers_[i], amountsToPreMint_[i]);\n            }\n        }\n    /**\n     * Add new tokens of an existing token. Only the owner can run this function.\n     * @param name the name of the token to add\n     * @param additionalTokenAmount the amount of tokens to add\n     */\n    function increaseTokenAmount(bytes32 name,\n        uint256 additionalTokenAmount) external onlyOwner{\n        tokenInfo[name].totalAmount += additionalTokenAmount;\n    }\n\n    /**\n     * Function to mint tokens.\n     * In order to mint tokens, following criteria must be met:\n     * - There are still unminted tokens of tokenToMint\n     * - The price in ETH sent should equal the price of the tier of tokenToMint.\n     * - Depending on the 'mintability' field of the tier of the token,\n     *   the minter needs to provide a second token to prove he is allowed to mint.\n     *   Of course, the minter should have a positive balance for this token.\n     * @param tokenToMint Human readable name of the token that will be minted\n     * @param tokenToUse Token provided by the minter to prove he is allowed to mint.\n     * The 'mintability' of the 'tier' of tokenToMint will define if the token allows minting or not.\n     * The owner should own the token, and the token will possibly be burned in the process.\n     */\n    function _mint(bytes32 tokenToMint, bytes32 tokenToUse) external payable {\n\n        address account = _msgSender();\n        TokenInfo storage tokenToMintObject = tokenInfo[tokenToMint];\n\n\n        require(tokenToMintObject.totalAmount > tokenToMintObject.mintedAmount,\n            \"All tokens are already minted for this ID!\");\n        \n        Tier memory tierToMint = tiers[tokenToMintObject.tier];\n\n        // Check if everyone is allowed to mint.\n        // If not, check if the token provided gives the right to mint,\n        // and burn it if this is required.\n        if(tierToMint.mintable <= latestDropWave){\n\n            TokenInfo memory tokenToUseObject = tokenInfo[tokenToUse];\n            Tier memory tierToUse = tiers[tokenToUseObject.tier];\n            require(ERC1155.balanceOf(account, tokenToUseObject.id) > 0,\n                \"You have no balance of the access token provided.\");\n\n            // Check if the token provided gives minting access\n            require((tierToMint.mintable != 0) &&\n                    ((tierToMint.mintable >= tierToUse.dropWave) || tierToMint.mintable == latestDropWave),\n                    \"You are not allowed to mint this token at this point in time.\");\n            \n            // Check if the token needs to be burned before being able to mint\n            if(tierToMint.tokenToBurn == tokenToUse){\n                ERC1155._burn(account, tokenToUseObject.id, 1);\n            }\n        }\n\n        if(tierToMint.price > 0){\n            uint256 weiAmount = msg.value;\n            require(weiAmount == tierToMint.price, \"Invalid ETH paid\");\n            // Send ETH to wallet\n            payable(wallet).transfer(weiAmount);\n        }\n\n\n        ERC1155._mint(account, tokenToMintObject.id, 1, \"\");\n\n        tokenToMintObject.mintedAmount++;\n        emit Minted(account, tokenToMint, tokenToMintObject.mintedAmount);\n\n    }\n\n    /**\n     * Overloaded function to allow minting tokens without providing a secondary token.\n     * This will only work if everyone is allowed to mint the token and is only for ease of use.\n     * @param tokenToMint Human readable name of the token that will be minted\n     */\n    function _mint(bytes32 tokenToMint) external payable {\n        this._mint(tokenToMint, '');\n    }\n    // Disable minting inherited from ERC1155\n    function _mint (\n        address account,\n        uint256 id,\n        uint256 amount,\n        bytes memory data) internal override pure {\n        revert(\"This function should be called with 2 bytes32 parameters\");\n    }\n\n    function _mintBatch(\n        address to,\n        uint256[] memory ids,\n        uint256[] memory amounts,\n        bytes memory data) internal override pure {\n        revert(\"This contract does not mint batches.\");\n    }\n\n}",
  "sourcePath": "/Users/Baas/repos/envoy/repos/dinowars/Contracts/contracts/DinoWarriors.sol",
  "compiler": {
    "name": "solc",
    "version": "0.8.0+commit.c7dfd78e.Emscripten.clang"
  },
  "schemaVersion": "3.4.2",
  "updatedAt": "2021-09-21T06:20:53.420Z",
  "networkType": "ethereum",
  "devdoc": {
    "events": {
      "Minted(address,bytes32,uint256)": {
        "params": {
          "account": "The address that minted the token",
          "minted": "The amount of minted tokens of this type",
          "token": "The human readable name of the token in bytes32"
        }
      }
    },
    "kind": "dev",
    "methods": {
      "_mint(bytes32)": {
        "params": {
          "tokenToMint": "Human readable name of the token that will be minted"
        }
      },
      "_mint(bytes32,bytes32)": {
        "params": {
          "tokenToMint": "Human readable name of the token that will be minted",
          "tokenToUse": "Token provided by the minter to prove he is allowed to mint. The 'mintability' of the 'tier' of tokenToMint will define if the token allows minting or not. The owner should own the token, and the token will possibly be burned in the process."
        }
      },
      "addTier(bytes32,uint256,uint256,uint256,bytes32)": {
        "params": {
          "dropWave_": "In which wave is this drop? For the ASDW cards, this will be 1.",
          "mintable_": "Wetter the tokens in this tier are already mintable (0 for no). - 0: nobody can mint. - x: everyone with a drop reward between wave 1 and wave x can mint.      x can be increased over time to have stepwise priority for pre-sales - Equal to latestDropWave + 1: everyone can mint ",
          "name": "The human readable key of the tier",
          "price_": "The price that is required for minting tokens of this tier",
          "tokenToBurn_": "If only current token owners are allowed to mint, they will need to burn their token in the minting process if it is this token."
        }
      },
      "addTiersBatch(bytes32[],uint256[],uint256[],uint256[],bytes32[])": {
        "params": {
          "dropWaves_": "The different drop waves",
          "mintable_": "Which tiers can already be minted?",
          "names": "The names of the tiers to add",
          "prices_": "The price for each token",
          "tokensToBurn_": "Which tokens should be burned when provided in the minting process?"
        }
      },
      "addToken(bytes32,uint256,bytes32,uint256)": {
        "params": {
          "amountToPreMint": "The amount of tokens to be preminted by the owner",
          "name": "human readable name of the token",
          "tier_": "the tier in which the NFT is released, containing the price, dropwave,...",
          "totalAmount_": "the total amount of tokens available for this token"
        }
      },
      "addTokensBatch(bytes32[],uint256[],bytes32[],uint256[])": {
        "params": {
          "amountsToPreMint_": "Array containing the amount of tokens to premint for each token.   Should have the same length as names.",
          "names": "Array containing the token names",
          "tiers_": "Array containing the tier for each token. Should have the same length as names.",
          "totalAmounts_": "Array containing the total amount for each token. Should have the same length as names."
        }
      },
      "balanceOf(address,uint256)": {
        "details": "See {IERC1155-balanceOf}. Requirements: - `account` cannot be the zero address."
      },
      "balanceOfBatch(address[],uint256[])": {
        "details": "See {IERC1155-balanceOfBatch}. Requirements: - `accounts` and `ids` must have the same length."
      },
      "constructor": {
        "details": "The constructor will call the constructer of the ERC1155 contract, and hardcode: - legal terms of the contract - Initial tiers to start with - Initial tokens to start with - Which tokens are preminted by Envoy",
        "params": {
          "uri_": "The URI to link metadata to the NFT's"
        }
      },
      "increaseTokenAmount(bytes32,uint256)": {
        "params": {
          "additionalTokenAmount": "the amount of tokens to add",
          "name": "the name of the token to add"
        }
      },
      "isApprovedForAll(address,address)": {
        "details": "See {IERC1155-isApprovedForAll}."
      },
      "owner()": {
        "details": "Returns the address of the current owner."
      },
      "renounceOwnership()": {
        "details": "Leaves the contract without owner. It will not be possible to call `onlyOwner` functions anymore. Can only be called by the current owner. NOTE: Renouncing ownership will leave the contract without an owner, thereby removing any functionality that is only available to the owner."
      },
      "safeBatchTransferFrom(address,address,uint256[],uint256[],bytes)": {
        "details": "See {IERC1155-safeBatchTransferFrom}."
      },
      "safeTransferFrom(address,address,uint256,uint256,bytes)": {
        "details": "See {IERC1155-safeTransferFrom}."
      },
      "setApprovalForAll(address,bool)": {
        "details": "See {IERC1155-setApprovalForAll}."
      },
      "setLegalTerms(string)": {
        "params": {
          "legalTerms_": "The link to the legal terms."
        }
      },
      "setTierMintability(bytes32,uint256)": {
        "params": {
          "mintable_": "Wetter the tokens in this tier are already mintable (0 for no). - 0: nobody can mint. - x: everyone with a drop reward between wave 1 and wave x can mint.      x can be increased over time to have stepwise priority for pre-sales - Equal to latestDropWave + 1: everyone can mint ",
          "name": "The human readable key of the tier"
        }
      },
      "setTierPrice(bytes32,uint256)": {
        "params": {
          "name": "The human readable key of the tier",
          "price_": "New price in wei for the tier"
        }
      },
      "supportsInterface(bytes4)": {
        "details": "See {IERC165-supportsInterface}."
      },
      "transferOwnership(address)": {
        "details": "Transfers ownership of the contract to a new account (`newOwner`). Can only be called by the current owner."
      },
      "updateWallet(address)": {
        "params": {
          "wallet_": "the address to receive funds"
        }
      },
      "uri(uint256)": {
        "details": "See {IERC1155MetadataURI-uri}. This implementation returns the same URI for *all* token types. It relies on the token type ID substitution mechanism https://eips.ethereum.org/EIPS/eip-1155#metadata[defined in the EIP]. Clients calling this function must replace the `\\{id\\}` substring with the actual token type ID."
      }
    },
    "stateVariables": {
      "tiers": {
        "details": "Mapping with tier information "
      }
    },
    "version": 1
  },
  "userdoc": {
    "events": {
      "Minted(address,bytes32,uint256)": {
        "notice": "Event emitting after each mint"
      }
    },
    "kind": "user",
    "methods": {
      "_mint(bytes32)": {
        "notice": "Overloaded function to allow minting tokens without providing a secondary token. This will only work if everyone is allowed to mint the token and is only for ease of use."
      },
      "_mint(bytes32,bytes32)": {
        "notice": "Function to mint tokens. In order to mint tokens, following criteria must be met: - There are still unminted tokens of tokenToMint - The price in ETH sent should equal the price of the tier of tokenToMint. - Depending on the 'mintability' field of the tier of the token,   the minter needs to provide a second token to prove he is allowed to mint.   Of course, the minter should have a positive balance for this token."
      },
      "addTier(bytes32,uint256,uint256,uint256,bytes32)": {
        "notice": "Functions to create new tiers, or to modify price and mintable of existing tier. Only the owner can run this function. Drop waves cannot be altered, and should always be higher than the latest drop wave."
      },
      "addTiersBatch(bytes32[],uint256[],uint256[],uint256[],bytes32[])": {
        "notice": "Function to add multiple tiers in 1 transaction"
      },
      "addToken(bytes32,uint256,bytes32)": {
        "notice": "Overload function when no tokens need to be preminted"
      },
      "addToken(bytes32,uint256,bytes32,uint256)": {
        "notice": "Function to add new tokens. Only the owner can run this function. New Tokens should always have a new human readable name as key, And they need to be in a tier of the latest wave available."
      },
      "addTokensBatch(bytes32[],uint256[],bytes32[],uint256[])": {
        "notice": "Add multiple tokens at once."
      },
      "increaseTokenAmount(bytes32,uint256)": {
        "notice": "Add new tokens of an existing token. Only the owner can run this function."
      },
      "setLegalTerms(string)": {
        "notice": "Function for the owner to change the link to legal terms."
      },
      "setTierMintability(bytes32,uint256)": {
        "notice": "Make a tier (un)mintable for (part of) the minters. Only the owner can run this function."
      },
      "setTierPrice(bytes32,uint256)": {
        "notice": "Change the price of an existing tier."
      },
      "updateWallet(address)": {
        "notice": "Function for the owner to update the wallet to which minting fees are sent. By default, this will be the owner of the contract"
      }
    },
    "notice": "Smart contract used for Alien Samurai Dino Warriors NFT's. Legal terms: Only limited personal non-commercial use and resale rights in the NFT are granted and all copyright and other rights are reserved. The terms and conditions of Alien Samurai Dino Warriors (https://dinowarriors.io) are applicable.",
    "version": 1
  }
}