{
  "contractName": "DinoWarriors",
  "abi": [
    {
      "inputs": [
        {
          "internalType": "string",
          "name": "uri_",
          "type": "string"
        }
      ],
      "stateMutability": "nonpayable",
      "type": "constructor"
    },
    {
      "anonymous": false,
      "inputs": [
        {
          "indexed": true,
          "internalType": "address",
          "name": "account",
          "type": "address"
        },
        {
          "indexed": true,
          "internalType": "address",
          "name": "operator",
          "type": "address"
        },
        {
          "indexed": false,
          "internalType": "bool",
          "name": "approved",
          "type": "bool"
        }
      ],
      "name": "ApprovalForAll",
      "type": "event"
    },
    {
      "anonymous": false,
      "inputs": [
        {
          "indexed": true,
          "internalType": "address",
          "name": "account",
          "type": "address"
        },
        {
          "indexed": true,
          "internalType": "bytes32",
          "name": "token",
          "type": "bytes32"
        },
        {
          "indexed": false,
          "internalType": "uint256",
          "name": "minted",
          "type": "uint256"
        }
      ],
      "name": "Minted",
      "type": "event"
    },
    {
      "anonymous": false,
      "inputs": [
        {
          "indexed": true,
          "internalType": "address",
          "name": "previousOwner",
          "type": "address"
        },
        {
          "indexed": true,
          "internalType": "address",
          "name": "newOwner",
          "type": "address"
        }
      ],
      "name": "OwnershipTransferred",
      "type": "event"
    },
    {
      "anonymous": false,
      "inputs": [
        {
          "indexed": true,
          "internalType": "address",
          "name": "operator",
          "type": "address"
        },
        {
          "indexed": true,
          "internalType": "address",
          "name": "from",
          "type": "address"
        },
        {
          "indexed": true,
          "internalType": "address",
          "name": "to",
          "type": "address"
        },
        {
          "indexed": false,
          "internalType": "uint256[]",
          "name": "ids",
          "type": "uint256[]"
        },
        {
          "indexed": false,
          "internalType": "uint256[]",
          "name": "values",
          "type": "uint256[]"
        }
      ],
      "name": "TransferBatch",
      "type": "event"
    },
    {
      "anonymous": false,
      "inputs": [
        {
          "indexed": true,
          "internalType": "address",
          "name": "operator",
          "type": "address"
        },
        {
          "indexed": true,
          "internalType": "address",
          "name": "from",
          "type": "address"
        },
        {
          "indexed": true,
          "internalType": "address",
          "name": "to",
          "type": "address"
        },
        {
          "indexed": false,
          "internalType": "uint256",
          "name": "id",
          "type": "uint256"
        },
        {
          "indexed": false,
          "internalType": "uint256",
          "name": "value",
          "type": "uint256"
        }
      ],
      "name": "TransferSingle",
      "type": "event"
    },
    {
      "anonymous": false,
      "inputs": [
        {
          "indexed": false,
          "internalType": "string",
          "name": "value",
          "type": "string"
        },
        {
          "indexed": true,
          "internalType": "uint256",
          "name": "id",
          "type": "uint256"
        }
      ],
      "name": "URI",
      "type": "event"
    },
    {
      "inputs": [
        {
          "internalType": "address",
          "name": "account",
          "type": "address"
        },
        {
          "internalType": "uint256",
          "name": "id",
          "type": "uint256"
        }
      ],
      "name": "balanceOf",
      "outputs": [
        {
          "internalType": "uint256",
          "name": "",
          "type": "uint256"
        }
      ],
      "stateMutability": "view",
      "type": "function",
      "constant": true
    },
    {
      "inputs": [
        {
          "internalType": "address[]",
          "name": "accounts",
          "type": "address[]"
        },
        {
          "internalType": "uint256[]",
          "name": "ids",
          "type": "uint256[]"
        }
      ],
      "name": "balanceOfBatch",
      "outputs": [
        {
          "internalType": "uint256[]",
          "name": "",
          "type": "uint256[]"
        }
      ],
      "stateMutability": "view",
      "type": "function",
      "constant": true
    },
    {
      "inputs": [
        {
          "internalType": "address",
          "name": "account",
          "type": "address"
        },
        {
          "internalType": "address",
          "name": "operator",
          "type": "address"
        }
      ],
      "name": "isApprovedForAll",
      "outputs": [
        {
          "internalType": "bool",
          "name": "",
          "type": "bool"
        }
      ],
      "stateMutability": "view",
      "type": "function",
      "constant": true
    },
    {
      "inputs": [],
      "name": "latestDropWave",
      "outputs": [
        {
          "internalType": "uint256",
          "name": "",
          "type": "uint256"
        }
      ],
      "stateMutability": "view",
      "type": "function",
      "constant": true
    },
    {
      "inputs": [],
      "name": "legalTerms",
      "outputs": [
        {
          "internalType": "string",
          "name": "",
          "type": "string"
        }
      ],
      "stateMutability": "view",
      "type": "function",
      "constant": true
    },
    {
      "inputs": [],
      "name": "owner",
      "outputs": [
        {
          "internalType": "address",
          "name": "",
          "type": "address"
        }
      ],
      "stateMutability": "view",
      "type": "function",
      "constant": true
    },
    {
      "inputs": [],
      "name": "renounceOwnership",
      "outputs": [],
      "stateMutability": "nonpayable",
      "type": "function"
    },
    {
      "inputs": [
        {
          "internalType": "address",
          "name": "from",
          "type": "address"
        },
        {
          "internalType": "address",
          "name": "to",
          "type": "address"
        },
        {
          "internalType": "uint256[]",
          "name": "ids",
          "type": "uint256[]"
        },
        {
          "internalType": "uint256[]",
          "name": "amounts",
          "type": "uint256[]"
        },
        {
          "internalType": "bytes",
          "name": "data",
          "type": "bytes"
        }
      ],
      "name": "safeBatchTransferFrom",
      "outputs": [],
      "stateMutability": "nonpayable",
      "type": "function"
    },
    {
      "inputs": [
        {
          "internalType": "address",
          "name": "from",
          "type": "address"
        },
        {
          "internalType": "address",
          "name": "to",
          "type": "address"
        },
        {
          "internalType": "uint256",
          "name": "id",
          "type": "uint256"
        },
        {
          "internalType": "uint256",
          "name": "amount",
          "type": "uint256"
        },
        {
          "internalType": "bytes",
          "name": "data",
          "type": "bytes"
        }
      ],
      "name": "safeTransferFrom",
      "outputs": [],
      "stateMutability": "nonpayable",
      "type": "function"
    },
    {
      "inputs": [
        {
          "internalType": "address",
          "name": "operator",
          "type": "address"
        },
        {
          "internalType": "bool",
          "name": "approved",
          "type": "bool"
        }
      ],
      "name": "setApprovalForAll",
      "outputs": [],
      "stateMutability": "nonpayable",
      "type": "function"
    },
    {
      "inputs": [
        {
          "internalType": "bytes4",
          "name": "interfaceId",
          "type": "bytes4"
        }
      ],
      "name": "supportsInterface",
      "outputs": [
        {
          "internalType": "bool",
          "name": "",
          "type": "bool"
        }
      ],
      "stateMutability": "view",
      "type": "function",
      "constant": true
    },
    {
      "inputs": [
        {
          "internalType": "bytes32",
          "name": "",
          "type": "bytes32"
        }
      ],
      "name": "tiers",
      "outputs": [
        {
          "internalType": "uint256",
          "name": "price",
          "type": "uint256"
        },
        {
          "internalType": "uint256",
          "name": "mintable",
          "type": "uint256"
        },
        {
          "internalType": "uint256",
          "name": "dropWave",
          "type": "uint256"
        },
        {
          "internalType": "bytes32",
          "name": "tokenToBurn",
          "type": "bytes32"
        }
      ],
      "stateMutability": "view",
      "type": "function",
      "constant": true
    },
    {
      "inputs": [
        {
          "internalType": "bytes32",
          "name": "",
          "type": "bytes32"
        }
      ],
      "name": "tokenInfo",
      "outputs": [
        {
          "internalType": "uint256",
          "name": "id",
          "type": "uint256"
        },
        {
          "internalType": "uint256",
          "name": "mintedAmount",
          "type": "uint256"
        },
        {
          "internalType": "uint256",
          "name": "totalAmount",
          "type": "uint256"
        },
        {
          "internalType": "bytes32",
          "name": "tier",
          "type": "bytes32"
        }
      ],
      "stateMutability": "view",
      "type": "function",
      "constant": true
    },
    {
      "inputs": [
        {
          "internalType": "address",
          "name": "newOwner",
          "type": "address"
        }
      ],
      "name": "transferOwnership",
      "outputs": [],
      "stateMutability": "nonpayable",
      "type": "function"
    },
    {
      "inputs": [
        {
          "internalType": "uint256",
          "name": "",
          "type": "uint256"
        }
      ],
      "name": "uri",
      "outputs": [
        {
          "internalType": "string",
          "name": "",
          "type": "string"
        }
      ],
      "stateMutability": "view",
      "type": "function",
      "constant": true
    },
    {
      "inputs": [],
      "name": "wallet",
      "outputs": [
        {
          "internalType": "address",
          "name": "",
          "type": "address"
        }
      ],
      "stateMutability": "view",
      "type": "function",
      "constant": true
    },
    {
      "inputs": [
        {
          "internalType": "address",
          "name": "wallet_",
          "type": "address"
        }
      ],
      "name": "updateWallet",
      "outputs": [],
      "stateMutability": "nonpayable",
      "type": "function"
    },
    {
      "inputs": [
        {
          "internalType": "string",
          "name": "legalTerms_",
          "type": "string"
        }
      ],
      "name": "setLegalTerms",
      "outputs": [],
      "stateMutability": "nonpayable",
      "type": "function"
    },
    {
      "inputs": [
        {
          "internalType": "bytes32",
          "name": "name",
          "type": "bytes32"
        },
        {
          "internalType": "uint256",
          "name": "price_",
          "type": "uint256"
        },
        {
          "internalType": "uint256",
          "name": "mintable_",
          "type": "uint256"
        },
        {
          "internalType": "uint256",
          "name": "dropWave_",
          "type": "uint256"
        },
        {
          "internalType": "bytes32",
          "name": "tokenToBurn_",
          "type": "bytes32"
        }
      ],
      "name": "addTier",
      "outputs": [],
      "stateMutability": "nonpayable",
      "type": "function"
    },
    {
      "inputs": [
        {
          "internalType": "bytes32",
          "name": "name",
          "type": "bytes32"
        },
        {
          "internalType": "uint256",
          "name": "mintable_",
          "type": "uint256"
        }
      ],
      "name": "adjustTierMintability",
      "outputs": [],
      "stateMutability": "nonpayable",
      "type": "function"
    },
    {
      "inputs": [
        {
          "internalType": "bytes32",
          "name": "name",
          "type": "bytes32"
        },
        {
          "internalType": "uint256",
          "name": "price_",
          "type": "uint256"
        }
      ],
      "name": "setTierPrice",
      "outputs": [],
      "stateMutability": "nonpayable",
      "type": "function"
    },
    {
      "inputs": [
        {
          "internalType": "bytes32",
          "name": "name",
          "type": "bytes32"
        },
        {
          "internalType": "uint256",
          "name": "totalAmount_",
          "type": "uint256"
        },
        {
          "internalType": "bytes32",
          "name": "tier_",
          "type": "bytes32"
        }
      ],
      "name": "addToken",
      "outputs": [],
      "stateMutability": "nonpayable",
      "type": "function"
    },
    {
      "inputs": [
        {
          "internalType": "bytes32",
          "name": "name",
          "type": "bytes32"
        },
        {
          "internalType": "uint256",
          "name": "additionalTokenAmount",
          "type": "uint256"
        }
      ],
      "name": "increaseTokenAmount",
      "outputs": [],
      "stateMutability": "nonpayable",
      "type": "function"
    },
    {
      "inputs": [
        {
          "internalType": "bytes32",
          "name": "tokenToMint",
          "type": "bytes32"
        },
        {
          "internalType": "bytes32",
          "name": "tokenToUse",
          "type": "bytes32"
        }
      ],
      "name": "_mint",
      "outputs": [],
      "stateMutability": "payable",
      "type": "function",
      "payable": true
    },
    {
      "inputs": [
        {
          "internalType": "bytes32",
          "name": "tokenToMint",
          "type": "bytes32"
        }
      ],
      "name": "_mint",
      "outputs": [],
      "stateMutability": "payable",
      "type": "function",
      "payable": true
    }
  ],
  "bytecode": "0x608060405260016006553480156200001657600080fd5b50604051620068c8380380620068c883398181016040528101906200003c9190620018e1565b806200004e8162000ba960201b60201c565b506200006f6200006362000bc560201b60201c565b62000bcd60201b60201c565b6200007f62000bc560201b60201c565b600960006101000a81548173ffffffffffffffffffffffffffffffffffffffff021916908373ffffffffffffffffffffffffffffffffffffffff16021790555060405180610120016040528060e48152602001620067e460e4913960089080519060200190620000f19291906200177c565b506040518060800160405280670214e8348c4f0000815260200160008152602001600181526020016000801916815250600560007f4f475f434152440000000000000000000000000000000000000000000000000081526020019081526020016000206000820151816000015560208201518160010155604082015181600201556060820151816003015590505060405180608001604052806000815260200160008152602001600181526020017f4f475f4341524400000000000000000000000000000000000000000000000000815250600560007f53494c564552000000000000000000000000000000000000000000000000000081526020019081526020016000206000820151816000015560208201518160010155604082015181600201556060820151816003015590505060405180608001604052806707a1fe1602770000815260200160008152602001600181526020016000801916815250600560007f474f4c440000000000000000000000000000000000000000000000000000000081526020019081526020016000206000820151816000015560208201518160010155604082015181600201556060820151816003015590505060405180608001604052806000815260200160028152602001600181526020016000801916815250600560007f4449414d4f4e44000000000000000000000000000000000000000000000000008152602001908152602001600020600082015181600001556020820151816001015560408201518160020155606082015181600301559050506040518060800160405280600081526020016000815260200161138881526020017f4f475f4341524400000000000000000000000000000000000000000000000000815250600460007f4f475f43415244000000000000000000000000000000000000000000000000008152602001908152602001600020600082015181600001556020820151816001015560408201518160020155606082015181600301559050506040518060800160405280600181526020016000815260200160c881526020017f53494c5645520000000000000000000000000000000000000000000000000000815250600460007f524547554c41525f545f524558000000000000000000000000000000000000008152602001908152602001600020600082015181600001556020820151816001015560408201518160020155606082015181600301559050506040518060800160405280600281526020016000815260200160c881526020017f53494c5645520000000000000000000000000000000000000000000000000000815250600460007f524547554c41525f54524943455241544f5053000000000000000000000000008152602001908152602001600020600082015181600001556020820151816001015560408201518160020155606082015181600301559050506040518060800160405280600381526020016000815260200160c881526020017f53494c5645520000000000000000000000000000000000000000000000000000815250600460007f524547554c41525f44494c4f50484f53415552555300000000000000000000008152602001908152602001600020600082015181600001556020820151816001015560408201518160020155606082015181600301559050506040518060800160405280605d815260200160008152602001606481526020017f474f4c4400000000000000000000000000000000000000000000000000000000815250600460007f56454c4f4349524150544f5200000000000000000000000000000000000000008152602001908152602001600020600082015181600001556020820151816001015560408201518160020155606082015181600301559050506040518060800160405280605e815260200160008152602001606481526020017f474f4c4400000000000000000000000000000000000000000000000000000000815250600460007f44494c4f50484f534155525553000000000000000000000000000000000000008152602001908152602001600020600082015181600001556020820151816001015560408201518160020155606082015181600301559050506040518060800160405280605f815260200160008152602001606481526020017f474f4c4400000000000000000000000000000000000000000000000000000000815250600460007f54524943455241544f505300000000000000000000000000000000000000000081526020019081526020016000206000820151816000015560208201518160010155604082015181600201556060820151816003015590505060405180608001604052806060815260200160008152602001606481526020017f474f4c4400000000000000000000000000000000000000000000000000000000815250600460007f535445474f53415552555300000000000000000000000000000000000000000081526020019081526020016000206000820151816000015560208201518160010155604082015181600201556060820151816003015590505060405180608001604052806061815260200160008152602001606481526020017f474f4c4400000000000000000000000000000000000000000000000000000000815250600460007f545952414e4e4f5341555200000000000000000000000000000000000000000081526020019081526020016000206000820151816000015560208201518160010155604082015181600201556060820151816003015590505060405180608001604052806062815260200160008152602001602881526020017f474f4c4400000000000000000000000000000000000000000000000000000000815250600460007f545952414e4e4f534155525f574954485f4c415345525f45594553000000000081526020019081526020016000206000820151816000015560208201518160010155604082015181600201556060820151816003015590505060405180608001604052806063815260200160008152602001602381526020017f474f4c4400000000000000000000000000000000000000000000000000000000815250600460007f4d414d4d414c5f4b494e4700000000000000000000000000000000000000000081526020019081526020016000206000820151816000015560208201518160010155604082015181600201556060820151816003015590505060405180608001604052806064815260200160008152602001601981526020017f474f4c4400000000000000000000000000000000000000000000000000000000815250600460007f4359424552534841524b0000000000000000000000000000000000000000000081526020019081526020016000206000820151816000015560208201518160010155604082015181600201556060820151816003015590505060405180608001604052806065815260200160008152602001600181526020017f4449414d4f4e4400000000000000000000000000000000000000000000000000815250600460007f4449414d4f4e440000000000000000000000000000000000000000000000000081526020019081526020016000206000820151816000015560208201518160010155604082015181600201556060820151816003015590505062000ba27f4449414d4f4e4400000000000000000000000000000000000000000000000000600062000c9360201b60201c565b5062002383565b806002908051906020019062000bc19291906200177c565b5050565b600033905090565b6000600360009054906101000a900473ffffffffffffffffffffffffffffffffffffffff16905081600360006101000a81548173ffffffffffffffffffffffffffffffffffffffff021916908373ffffffffffffffffffffffffffffffffffffffff1602179055508173ffffffffffffffffffffffffffffffffffffffff168173ffffffffffffffffffffffffffffffffffffffff167f8be0079c531659141344cd1fd0a4f28419497f9722a3daafe3b4186f6b6457e060405160405180910390a35050565b600062000ca562000bc560201b60201c565b90506000600460008581526020019081526020016000209050806001015481600201541162000d0b576040517f08c379a000000000000000000000000000000000000000000000000000000000815260040162000d029062001f4c565b60405180910390fd5b60006005600083600301548152602001908152602001600020905060065481600101541162000e65576000600460008681526020019081526020016000209050600060056000836003015481526020019081526020016000209050600062000d8386846000015462000fd260201b620005d91760201c565b1162000dc6576040517f08c379a000000000000000000000000000000000000000000000000000000000815260040162000dbd9062001f08565b60405180910390fd5b600083600101541415801562000df557508060020154836001015410158062000df457506006548360010154145b5b62000e37576040517f08c379a000000000000000000000000000000000000000000000000000000000815260040162000e2e9062001f2a565b60405180910390fd5b858360030154141562000e625762000e6185836000015460016200109e60201b620019961760201c565b5b50505b60008160000154111562000f2d5760003490508160000154811462000ec1576040517f08c379a000000000000000000000000000000000000000000000000000000000815260040162000eb89062001e80565b60405180910390fd5b600960009054906101000a900473ffffffffffffffffffffffffffffffffffffffff1673ffffffffffffffffffffffffffffffffffffffff166108fc829081150290604051600060405180830381858888f1935050505015801562000f2a573d6000803e3d6000fd5b50505b62000f5a838360000154600160405180602001604052806000815250620012e360201b62001bb31760201c565b81600101600081548092919062000f7190620021ac565b9190505550848373ffffffffffffffffffffffffffffffffffffffff167fa076a0e133eaaa7a0d2293663374c22b5572fc5a479274e17e00ac210fe2367b846001015460405162000fc3919062001f90565b60405180910390a35050505050565b60008073ffffffffffffffffffffffffffffffffffffffff168373ffffffffffffffffffffffffffffffffffffffff16141562001046576040517f08c379a00000000000000000000000000000000000000000000000000000000081526004016200103d9062001ea2565b60405180910390fd5b60008083815260200190815260200160002060008473ffffffffffffffffffffffffffffffffffffffff1673ffffffffffffffffffffffffffffffffffffffff16815260200190815260200160002054905092915050565b600073ffffffffffffffffffffffffffffffffffffffff168373ffffffffffffffffffffffffffffffffffffffff16141562001111576040517f08c379a0000000000000000000000000000000000000000000000000000000008152600401620011089062001ee6565b60405180910390fd5b60006200112362000bc560201b60201c565b90506200116b818560006200113e87620014a860201b60201c565b6200114f87620014a860201b60201c565b604051806020016040528060008152506200157160201b60201c565b600080600085815260200190815260200160002060008673ffffffffffffffffffffffffffffffffffffffff1673ffffffffffffffffffffffffffffffffffffffff1681526020019081526020016000205490508281101562001205576040517f08c379a0000000000000000000000000000000000000000000000000000000008152600401620011fc9062001ec4565b60405180910390fd5b82810360008086815260200190815260200160002060008773ffffffffffffffffffffffffffffffffffffffff1673ffffffffffffffffffffffffffffffffffffffff16815260200190815260200160002081905550600073ffffffffffffffffffffffffffffffffffffffff168573ffffffffffffffffffffffffffffffffffffffff168373ffffffffffffffffffffffffffffffffffffffff167fc3d58168c5ae7397731d063d5bbf3d657854427343f4c083240f7aacaa2d0f628787604051620012d492919062001fad565b60405180910390a45050505050565b600073ffffffffffffffffffffffffffffffffffffffff168473ffffffffffffffffffffffffffffffffffffffff16141562001356576040517f08c379a00000000000000000000000000000000000000000000000000000000081526004016200134d9062001f6e565b60405180910390fd5b60006200136862000bc560201b60201c565b9050620013a1816000876200138388620014a860201b60201c565b6200139488620014a860201b60201c565b876200157160201b60201c565b8260008086815260200190815260200160002060008773ffffffffffffffffffffffffffffffffffffffff1673ffffffffffffffffffffffffffffffffffffffff168152602001908152602001600020600082825462001402919062002079565b925050819055508473ffffffffffffffffffffffffffffffffffffffff16600073ffffffffffffffffffffffffffffffffffffffff168273ffffffffffffffffffffffffffffffffffffffff167fc3d58168c5ae7397731d063d5bbf3d657854427343f4c083240f7aacaa2d0f6287876040516200148292919062001fad565b60405180910390a4620014a1816000878787876200157960201b60201c565b5050505050565b60606000600167ffffffffffffffff811115620014ee577f4e487b7100000000000000000000000000000000000000000000000000000000600052604160045260246000fd5b6040519080825280602002602001820160405280156200151d5781602001602082028036833780820191505090505b50905082816000815181106200155c577f4e487b7100000000000000000000000000000000000000000000000000000000600052603260045260246000fd5b60200260200101818152505080915050919050565b505050505050565b620015a58473ffffffffffffffffffffffffffffffffffffffff166200176960201b62001d491760201c565b1562001761578373ffffffffffffffffffffffffffffffffffffffff1663f23a6e6187878686866040518663ffffffff1660e01b8152600401620015ee95949392919062001db4565b602060405180830381600087803b1580156200160957600080fd5b505af19250505080156200163d57506040513d601f19601f820116820180604052508101906200163a9190620018b5565b60015b620016d5576200164c620022a5565b8062001659575062001698565b806040517f08c379a00000000000000000000000000000000000000000000000000000000081526004016200168f919062001e18565b60405180910390fd5b6040517f08c379a0000000000000000000000000000000000000000000000000000000008152600401620016cc9062001e3c565b60405180910390fd5b63f23a6e6160e01b7bffffffffffffffffffffffffffffffffffffffffffffffffffffffff1916817bffffffffffffffffffffffffffffffffffffffffffffffffffffffff1916146200175f576040517f08c379a0000000000000000000000000000000000000000000000000000000008152600401620017569062001e5e565b60405180910390fd5b505b505050505050565b600080823b905060008111915050919050565b8280546200178a9062002176565b90600052602060002090601f016020900481019282620017ae5760008555620017fa565b82601f10620017c957805160ff1916838001178555620017fa565b82800160010185558215620017fa579182015b82811115620017f9578251825591602001919060010190620017dc565b5b5090506200180991906200180d565b5090565b5b80821115620018285760008160009055506001016200180e565b5090565b6000620018436200183d846200200e565b62001fda565b9050828152602081018484840111156200185c57600080fd5b6200186984828562002140565b509392505050565b600081519050620018828162002369565b92915050565b600082601f8301126200189a57600080fd5b8151620018ac8482602086016200182c565b91505092915050565b600060208284031215620018c857600080fd5b6000620018d88482850162001871565b91505092915050565b600060208284031215620018f457600080fd5b600082015167ffffffffffffffff8111156200190f57600080fd5b6200191d8482850162001888565b91505092915050565b6200193181620020d6565b82525050565b6000620019448262002041565b62001950818562002057565b93506200196281856020860162002140565b6200196d8162002287565b840191505092915050565b600062001985826200204c565b62001991818562002068565b9350620019a381856020860162002140565b620019ae8162002287565b840191505092915050565b6000620019c860348362002068565b91507f455243313135353a207472616e7366657220746f206e6f6e204552433131353560008301527f526563656976657220696d706c656d656e7465720000000000000000000000006020830152604082019050919050565b600062001a3060288362002068565b91507f455243313135353a204552433131353552656365697665722072656a6563746560008301527f6420746f6b656e730000000000000000000000000000000000000000000000006020830152604082019050919050565b600062001a9860108362002068565b91507f496e76616c6964204554482070616964000000000000000000000000000000006000830152602082019050919050565b600062001ada602b8362002068565b91507f455243313135353a2062616c616e636520717565727920666f7220746865207a60008301527f65726f20616464726573730000000000000000000000000000000000000000006020830152604082019050919050565b600062001b4260248362002068565b91507f455243313135353a206275726e20616d6f756e7420657863656564732062616c60008301527f616e6365000000000000000000000000000000000000000000000000000000006020830152604082019050919050565b600062001baa60238362002068565b91507f455243313135353a206275726e2066726f6d20746865207a65726f206164647260008301527f65737300000000000000000000000000000000000000000000000000000000006020830152604082019050919050565b600062001c1260318362002068565b91507f596f752068617665206e6f2062616c616e6365206f662074686520616363657360008301527f7320746f6b656e2070726f76696465642e0000000000000000000000000000006020830152604082019050919050565b600062001c7a603d8362002068565b91507f596f7520617265206e6f7420616c6c6f77656420746f206d696e74207468697360008301527f20746f6b656e206174207468697320706f696e7420696e2074696d652e0000006020830152604082019050919050565b600062001ce2602a8362002068565b91507f416c6c20746f6b656e732061726520616c7265616479206d696e74656420666f60008301527f72207468697320494421000000000000000000000000000000000000000000006020830152604082019050919050565b600062001d4a60218362002068565b91507f455243313135353a206d696e7420746f20746865207a65726f2061646472657360008301527f73000000000000000000000000000000000000000000000000000000000000006020830152604082019050919050565b62001dae8162002136565b82525050565b600060a08201905062001dcb600083018862001926565b62001dda602083018762001926565b62001de9604083018662001da3565b62001df8606083018562001da3565b818103608083015262001e0c818462001937565b90509695505050505050565b6000602082019050818103600083015262001e34818462001978565b905092915050565b6000602082019050818103600083015262001e5781620019b9565b9050919050565b6000602082019050818103600083015262001e798162001a21565b9050919050565b6000602082019050818103600083015262001e9b8162001a89565b9050919050565b6000602082019050818103600083015262001ebd8162001acb565b9050919050565b6000602082019050818103600083015262001edf8162001b33565b9050919050565b6000602082019050818103600083015262001f018162001b9b565b9050919050565b6000602082019050818103600083015262001f238162001c03565b9050919050565b6000602082019050818103600083015262001f458162001c6b565b9050919050565b6000602082019050818103600083015262001f678162001cd3565b9050919050565b6000602082019050818103600083015262001f898162001d3b565b9050919050565b600060208201905062001fa7600083018462001da3565b92915050565b600060408201905062001fc4600083018562001da3565b62001fd3602083018462001da3565b9392505050565b6000604051905081810181811067ffffffffffffffff8211171562002004576200200362002258565b5b8060405250919050565b600067ffffffffffffffff8211156200202c576200202b62002258565b5b601f19601f8301169050602081019050919050565b600081519050919050565b600081519050919050565b600082825260208201905092915050565b600082825260208201905092915050565b6000620020868262002136565b9150620020938362002136565b9250827fffffffffffffffffffffffffffffffffffffffffffffffffffffffffffffffff03821115620020cb57620020ca620021fa565b5b828201905092915050565b6000620020e38262002116565b9050919050565b60007fffffffff0000000000000000000000000000000000000000000000000000000082169050919050565b600073ffffffffffffffffffffffffffffffffffffffff82169050919050565b6000819050919050565b60005b838110156200216057808201518184015260208101905062002143565b8381111562002170576000848401525b50505050565b600060028204905060018216806200218f57607f821691505b60208210811415620021a657620021a562002229565b5b50919050565b6000620021b98262002136565b91507fffffffffffffffffffffffffffffffffffffffffffffffffffffffffffffffff821415620021ef57620021ee620021fa565b5b600182019050919050565b7f4e487b7100000000000000000000000000000000000000000000000000000000600052601160045260246000fd5b7f4e487b7100000000000000000000000000000000000000000000000000000000600052602260045260246000fd5b7f4e487b7100000000000000000000000000000000000000000000000000000000600052604160045260246000fd5b6000601f19601f8301169050919050565b60008160e01c9050919050565b600060443d1015620022b75762002366565b60046000803e620022ca60005162002298565b6308c379a08114620022dd575062002366565b60405160043d036004823e80513d602482011167ffffffffffffffff821117156200230b5750505062002366565b808201805167ffffffffffffffff8111156200232c57505050505062002366565b8060208301013d8501811115620023495750505050505062002366565b620023548262002287565b60208401016040528296505050505050505b90565b6200237481620020ea565b81146200238057600080fd5b50565b61445180620023936000396000f3fe6080604052600436106101655760003560e01c8063848b86e3116100d1578063ad7feb8d1161008a578063c79b009a11610064578063c79b009a1461051f578063e985e9c51461054a578063f242432a14610587578063f2fde38b146105b057610165565b8063ad7feb8d146104a4578063ae15de3a146104cd578063b63093ee146104f657610165565b8063848b86e31461039557806389f902f6146103be5780638da5cb5b146103fe578063936a777314610429578063a22cb46514610452578063aaec748a1461047b57610165565b80634e1273f4116101235780634e1273f4146102b3578063521eb273146102f0578063562d39a61461031b5780636225924e14610337578063715018a61461035357806376f7d7de1461036a57610165565b8062fdd58e1461016a57806301ffc9a7146101a757806303565ea1146101e45780630741df53146102245780630e89341c1461024d5780632eb2c2d61461028a575b600080fd5b34801561017657600080fd5b50610191600480360381019061018c9190612df0565b6105d9565b60405161019e9190613ed3565b60405180910390f35b3480156101b357600080fd5b506101ce60048036038101906101c99190612fff565b6106a2565b6040516101db9190613bb6565b60405180910390f35b3480156101f057600080fd5b5061020b60048036038101906102069190612e98565b610784565b60405161021b9493929190613f17565b60405180910390f35b34801561023057600080fd5b5061024b60048036038101906102469190612efd565b6107b4565b005b34801561025957600080fd5b50610274600480360381019061026f9190613092565b61084f565b6040516102819190613bd1565b60405180910390f35b34801561029657600080fd5b506102b160048036038101906102ac9190612c66565b6108e3565b005b3480156102bf57600080fd5b506102da60048036038101906102d59190612e2c565b610984565b6040516102e79190613b5d565b60405180910390f35b3480156102fc57600080fd5b50610305610b35565b6040516103129190613a80565b60405180910390f35b61033560048036038101906103309190612ec1565b610b5b565b005b610351600480360381019061034c9190612e98565b610e55565b005b34801561035f57600080fd5b50610368610e63565b005b34801561037657600080fd5b5061037f610eeb565b60405161038c9190613ed3565b60405180910390f35b3480156103a157600080fd5b506103bc60048036038101906103b79190612c01565b610ef1565b005b3480156103ca57600080fd5b506103e560048036038101906103e09190612e98565b610fb1565b6040516103f59493929190613f17565b60405180910390f35b34801561040a57600080fd5b50610413610fe1565b6040516104209190613a80565b60405180910390f35b34801561043557600080fd5b50610450600480360381019061044b9190612efd565b61100b565b005b34801561045e57600080fd5b5061047960048036038101906104749190612db4565b6110b8565b005b34801561048757600080fd5b506104a2600480360381019061049d9190613051565b611239565b005b3480156104b057600080fd5b506104cb60048036038101906104c69190612efd565b6112cf565b005b3480156104d957600080fd5b506104f460048036038101906104ef9190612f88565b61136a565b005b34801561050257600080fd5b5061051d60048036038101906105189190612f39565b61152c565b005b34801561052b57600080fd5b506105346116db565b6040516105419190613bd1565b60405180910390f35b34801561055657600080fd5b50610571600480360381019061056c9190612c2a565b611769565b60405161057e9190613bb6565b60405180910390f35b34801561059357600080fd5b506105ae60048036038101906105a99190612d25565b6117fd565b005b3480156105bc57600080fd5b506105d760048036038101906105d29190612c01565b61189e565b005b60008073ffffffffffffffffffffffffffffffffffffffff168373ffffffffffffffffffffffffffffffffffffffff16141561064a576040517f08c379a000000000000000000000000000000000000000000000000000000000815260040161064190613c53565b60405180910390fd5b60008083815260200190815260200160002060008473ffffffffffffffffffffffffffffffffffffffff1673ffffffffffffffffffffffffffffffffffffffff16815260200190815260200160002054905092915050565b60007fd9b67a26000000000000000000000000000000000000000000000000000000007bffffffffffffffffffffffffffffffffffffffffffffffffffffffff1916827bffffffffffffffffffffffffffffffffffffffffffffffffffffffff1916148061076d57507f0e89341c000000000000000000000000000000000000000000000000000000007bffffffffffffffffffffffffffffffffffffffffffffffffffffffff1916827bffffffffffffffffffffffffffffffffffffffffffffffffffffffff1916145b8061077d575061077c82611d5c565b5b9050919050565b60046020528060005260406000206000915090508060000154908060010154908060020154908060030154905084565b6107bc611dc6565b73ffffffffffffffffffffffffffffffffffffffff166107da610fe1565b73ffffffffffffffffffffffffffffffffffffffff1614610830576040517f08c379a000000000000000000000000000000000000000000000000000000000815260040161082790613d93565b60405180910390fd5b8060056000848152602001908152602001600020600101819055505050565b60606002805461085e906141cc565b80601f016020809104026020016040519081016040528092919081815260200182805461088a906141cc565b80156108d75780601f106108ac576101008083540402835291602001916108d7565b820191906000526020600020905b8154815290600101906020018083116108ba57829003601f168201915b50505050509050919050565b6108eb611dc6565b73ffffffffffffffffffffffffffffffffffffffff168573ffffffffffffffffffffffffffffffffffffffff16148061093157506109308561092b611dc6565b611769565b5b610970576040517f08c379a000000000000000000000000000000000000000000000000000000000815260040161096790613d33565b60405180910390fd5b61097d8585858585611dce565b5050505050565b606081518351146109ca576040517f08c379a00000000000000000000000000000000000000000000000000000000081526004016109c190613e53565b60405180910390fd5b6000835167ffffffffffffffff811115610a0d577f4e487b7100000000000000000000000000000000000000000000000000000000600052604160045260246000fd5b604051908082528060200260200182016040528015610a3b5781602001602082028036833780820191505090505b50905060005b8451811015610b2a57610ad4858281518110610a86577f4e487b7100000000000000000000000000000000000000000000000000000000600052603260045260246000fd5b6020026020010151858381518110610ac7577f4e487b7100000000000000000000000000000000000000000000000000000000600052603260045260246000fd5b60200260200101516105d9565b828281518110610b0d577f4e487b7100000000000000000000000000000000000000000000000000000000600052603260045260246000fd5b60200260200101818152505080610b23906141fe565b9050610a41565b508091505092915050565b600960009054906101000a900473ffffffffffffffffffffffffffffffffffffffff1681565b6000610b65611dc6565b905060006004600085815260200190815260200160002090508060010154816002015411610bc8576040517f08c379a0000000000000000000000000000000000000000000000000000000008152600401610bbf90613e13565b60405180910390fd5b600060056000836003015481526020019081526020016000209050600654816001015411610cfe5760006004600086815260200190815260200160002090506000600560008360030154815260200190815260200160002090506000610c328684600001546105d9565b11610c72576040517f08c379a0000000000000000000000000000000000000000000000000000000008152600401610c6990613db3565b60405180910390fd5b6000836001015414158015610c9f575080600201548360010154101580610c9e57506006548360010154145b5b610cde576040517f08c379a0000000000000000000000000000000000000000000000000000000008152600401610cd590613df3565b60405180910390fd5b8583600301541415610cfb57610cfa8583600001546001611996565b5b50505b600081600001541115610dc157600034905081600001548114610d56576040517f08c379a0000000000000000000000000000000000000000000000000000000008152600401610d4d90613c33565b60405180910390fd5b600960009054906101000a900473ffffffffffffffffffffffffffffffffffffffff1673ffffffffffffffffffffffffffffffffffffffff166108fc829081150290604051600060405180830381858888f19350505050158015610dbe573d6000803e3d6000fd5b50505b610de1838360000154600160405180602001604052806000815250611bb3565b816001016000815480929190610df6906141fe565b9190505550848373ffffffffffffffffffffffffffffffffffffffff167fa076a0e133eaaa7a0d2293663374c22b5572fc5a479274e17e00ac210fe2367b8460010154604051610e469190613ed3565b60405180910390a35050505050565b610e60816000610b5b565b50565b610e6b611dc6565b73ffffffffffffffffffffffffffffffffffffffff16610e89610fe1565b73ffffffffffffffffffffffffffffffffffffffff1614610edf576040517f08c379a0000000000000000000000000000000000000000000000000000000008152600401610ed690613d93565b60405180910390fd5b610ee9600061212e565b565b60065481565b610ef9611dc6565b73ffffffffffffffffffffffffffffffffffffffff16610f17610fe1565b73ffffffffffffffffffffffffffffffffffffffff1614610f6d576040517f08c379a0000000000000000000000000000000000000000000000000000000008152600401610f6490613d93565b60405180910390fd5b80600960006101000a81548173ffffffffffffffffffffffffffffffffffffffff021916908373ffffffffffffffffffffffffffffffffffffffff16021790555050565b60056020528060005260406000206000915090508060000154908060010154908060020154908060030154905084565b6000600360009054906101000a900473ffffffffffffffffffffffffffffffffffffffff16905090565b611013611dc6565b73ffffffffffffffffffffffffffffffffffffffff16611031610fe1565b73ffffffffffffffffffffffffffffffffffffffff1614611087576040517f08c379a000000000000000000000000000000000000000000000000000000000815260040161107e90613d93565b60405180910390fd5b806004600084815260200190815260200160002060020160008282546110ad91906140b6565b925050819055505050565b8173ffffffffffffffffffffffffffffffffffffffff166110d7611dc6565b73ffffffffffffffffffffffffffffffffffffffff16141561112e576040517f08c379a000000000000000000000000000000000000000000000000000000000815260040161112590613e33565b60405180910390fd5b806001600061113b611dc6565b73ffffffffffffffffffffffffffffffffffffffff1673ffffffffffffffffffffffffffffffffffffffff16815260200190815260200160002060008473ffffffffffffffffffffffffffffffffffffffff1673ffffffffffffffffffffffffffffffffffffffff16815260200190815260200160002060006101000a81548160ff0219169083151502179055508173ffffffffffffffffffffffffffffffffffffffff166111e8611dc6565b73ffffffffffffffffffffffffffffffffffffffff167f17307eab39ab6107e8899845ad3d59bd9653f200f220920489ca2b5937696c318360405161122d9190613bb6565b60405180910390a35050565b611241611dc6565b73ffffffffffffffffffffffffffffffffffffffff1661125f610fe1565b73ffffffffffffffffffffffffffffffffffffffff16146112b5576040517f08c379a00000000000000000000000000000000000000000000000000000000081526004016112ac90613d93565b60405180910390fd5b80600890805190602001906112cb9291906128e4565b5050565b6112d7611dc6565b73ffffffffffffffffffffffffffffffffffffffff166112f5610fe1565b73ffffffffffffffffffffffffffffffffffffffff161461134b576040517f08c379a000000000000000000000000000000000000000000000000000000000815260040161134290613d93565b60405180910390fd5b8060056000848152602001908152602001600020600001819055505050565b611372611dc6565b73ffffffffffffffffffffffffffffffffffffffff16611390610fe1565b73ffffffffffffffffffffffffffffffffffffffff16146113e6576040517f08c379a00000000000000000000000000000000000000000000000000000000081526004016113dd90613d93565b60405180910390fd5b60065482101561142b576040517f08c379a000000000000000000000000000000000000000000000000000000000815260040161142290613cf3565b60405180910390fd5b6000600560008781526020019081526020016000206002015411156114a357816005600087815260200190815260200160002060020154146114a2576040517f08c379a000000000000000000000000000000000000000000000000000000000815260040161149990613e73565b60405180910390fd5b5b6040518060800160405280858152602001848152602001838152602001828152506005600087815260200190815260200160002060008201518160000155602082015181600101556040820151816002015560608201518160030155905050600654821115611525576006600081548092919061151f906141fe565b91905055505b5050505050565b611534611dc6565b73ffffffffffffffffffffffffffffffffffffffff16611552610fe1565b73ffffffffffffffffffffffffffffffffffffffff16146115a8576040517f08c379a000000000000000000000000000000000000000000000000000000000815260040161159f90613d93565b60405180910390fd5b6000600460008581526020019081526020016000206002015414611601576040517f08c379a00000000000000000000000000000000000000000000000000000000081526004016115f890613cb3565b60405180910390fd5b6006546005600083815260200190815260200160002060020154101561165c576040517f08c379a000000000000000000000000000000000000000000000000000000000815260040161165390613dd3565b60405180910390fd5b6040518060800160405280600754815260200160008152602001838152602001828152506004600085815260200190815260200160002060008201518160000155602082015181600101556040820151816002015560608201518160030155905050600760008154809291906116d1906141fe565b9190505550505050565b600880546116e8906141cc565b80601f0160208091040260200160405190810160405280929190818152602001828054611714906141cc565b80156117615780601f1061173657610100808354040283529160200191611761565b820191906000526020600020905b81548152906001019060200180831161174457829003601f168201915b505050505081565b6000600160008473ffffffffffffffffffffffffffffffffffffffff1673ffffffffffffffffffffffffffffffffffffffff16815260200190815260200160002060008373ffffffffffffffffffffffffffffffffffffffff1673ffffffffffffffffffffffffffffffffffffffff16815260200190815260200160002060009054906101000a900460ff16905092915050565b611805611dc6565b73ffffffffffffffffffffffffffffffffffffffff168573ffffffffffffffffffffffffffffffffffffffff16148061184b575061184a85611845611dc6565b611769565b5b61188a576040517f08c379a000000000000000000000000000000000000000000000000000000000815260040161188190613cd3565b60405180910390fd5b61189785858585856121f4565b5050505050565b6118a6611dc6565b73ffffffffffffffffffffffffffffffffffffffff166118c4610fe1565b73ffffffffffffffffffffffffffffffffffffffff161461191a576040517f08c379a000000000000000000000000000000000000000000000000000000000815260040161191190613d93565b60405180910390fd5b600073ffffffffffffffffffffffffffffffffffffffff168173ffffffffffffffffffffffffffffffffffffffff16141561198a576040517f08c379a000000000000000000000000000000000000000000000000000000000815260040161198190613c73565b60405180910390fd5b6119938161212e565b50565b600073ffffffffffffffffffffffffffffffffffffffff168373ffffffffffffffffffffffffffffffffffffffff161415611a06576040517f08c379a00000000000000000000000000000000000000000000000000000000081526004016119fd90613d53565b60405180910390fd5b6000611a10611dc6565b9050611a4081856000611a2287612476565b611a2b87612476565b6040518060200160405280600081525061253c565b600080600085815260200190815260200160002060008673ffffffffffffffffffffffffffffffffffffffff1673ffffffffffffffffffffffffffffffffffffffff16815260200190815260200160002054905082811015611ad7576040517f08c379a0000000000000000000000000000000000000000000000000000000008152600401611ace90613c93565b60405180910390fd5b82810360008086815260200190815260200160002060008773ffffffffffffffffffffffffffffffffffffffff1673ffffffffffffffffffffffffffffffffffffffff16815260200190815260200160002081905550600073ffffffffffffffffffffffffffffffffffffffff168573ffffffffffffffffffffffffffffffffffffffff168373ffffffffffffffffffffffffffffffffffffffff167fc3d58168c5ae7397731d063d5bbf3d657854427343f4c083240f7aacaa2d0f628787604051611ba4929190613eee565b60405180910390a45050505050565b600073ffffffffffffffffffffffffffffffffffffffff168473ffffffffffffffffffffffffffffffffffffffff161415611c23576040517f08c379a0000000000000000000000000000000000000000000000000000000008152600401611c1a90613eb3565b60405180910390fd5b6000611c2d611dc6565b9050611c4e81600087611c3f88612476565b611c4888612476565b8761253c565b8260008086815260200190815260200160002060008773ffffffffffffffffffffffffffffffffffffffff1673ffffffffffffffffffffffffffffffffffffffff1681526020019081526020016000206000828254611cad91906140b6565b925050819055508473ffffffffffffffffffffffffffffffffffffffff16600073ffffffffffffffffffffffffffffffffffffffff168273ffffffffffffffffffffffffffffffffffffffff167fc3d58168c5ae7397731d063d5bbf3d657854427343f4c083240f7aacaa2d0f628787604051611d2b929190613eee565b60405180910390a4611d4281600087878787612544565b5050505050565b600080823b905060008111915050919050565b60007f01ffc9a7000000000000000000000000000000000000000000000000000000007bffffffffffffffffffffffffffffffffffffffffffffffffffffffff1916827bffffffffffffffffffffffffffffffffffffffffffffffffffffffff1916149050919050565b600033905090565b8151835114611e12576040517f08c379a0000000000000000000000000000000000000000000000000000000008152600401611e0990613e93565b60405180910390fd5b600073ffffffffffffffffffffffffffffffffffffffff168473ffffffffffffffffffffffffffffffffffffffff161415611e82576040517f08c379a0000000000000000000000000000000000000000000000000000000008152600401611e7990613d13565b60405180910390fd5b6000611e8c611dc6565b9050611e9c81878787878761253c565b60005b8451811015612099576000858281518110611ee3577f4e487b7100000000000000000000000000000000000000000000000000000000600052603260045260246000fd5b602002602001015190506000858381518110611f28577f4e487b7100000000000000000000000000000000000000000000000000000000600052603260045260246000fd5b60200260200101519050600080600084815260200190815260200160002060008b73ffffffffffffffffffffffffffffffffffffffff1673ffffffffffffffffffffffffffffffffffffffff16815260200190815260200160002054905081811015611fc9576040517f08c379a0000000000000000000000000000000000000000000000000000000008152600401611fc090613d73565b60405180910390fd5b81810360008085815260200190815260200160002060008c73ffffffffffffffffffffffffffffffffffffffff1673ffffffffffffffffffffffffffffffffffffffff168152602001908152602001600020819055508160008085815260200190815260200160002060008b73ffffffffffffffffffffffffffffffffffffffff1673ffffffffffffffffffffffffffffffffffffffff168152602001908152602001600020600082825461207e91906140b6565b9250508190555050505080612092906141fe565b9050611e9f565b508473ffffffffffffffffffffffffffffffffffffffff168673ffffffffffffffffffffffffffffffffffffffff168273ffffffffffffffffffffffffffffffffffffffff167f4a39dc06d4c0dbc64b70af90fd698a233a518aa5d07e595d983b8c0526c8f7fb8787604051612110929190613b7f565b60405180910390a4612126818787878787612714565b505050505050565b6000600360009054906101000a900473ffffffffffffffffffffffffffffffffffffffff16905081600360006101000a81548173ffffffffffffffffffffffffffffffffffffffff021916908373ffffffffffffffffffffffffffffffffffffffff1602179055508173ffffffffffffffffffffffffffffffffffffffff168173ffffffffffffffffffffffffffffffffffffffff167f8be0079c531659141344cd1fd0a4f28419497f9722a3daafe3b4186f6b6457e060405160405180910390a35050565b600073ffffffffffffffffffffffffffffffffffffffff168473ffffffffffffffffffffffffffffffffffffffff161415612264576040517f08c379a000000000000000000000000000000000000000000000000000000000815260040161225b90613d13565b60405180910390fd5b600061226e611dc6565b905061228e81878761227f88612476565b61228888612476565b8761253c565b600080600086815260200190815260200160002060008873ffffffffffffffffffffffffffffffffffffffff1673ffffffffffffffffffffffffffffffffffffffff16815260200190815260200160002054905083811015612325576040517f08c379a000000000000000000000000000000000000000000000000000000000815260040161231c90613d73565b60405180910390fd5b83810360008087815260200190815260200160002060008973ffffffffffffffffffffffffffffffffffffffff1673ffffffffffffffffffffffffffffffffffffffff168152602001908152602001600020819055508360008087815260200190815260200160002060008873ffffffffffffffffffffffffffffffffffffffff1673ffffffffffffffffffffffffffffffffffffffff16815260200190815260200160002060008282546123da91906140b6565b925050819055508573ffffffffffffffffffffffffffffffffffffffff168773ffffffffffffffffffffffffffffffffffffffff168373ffffffffffffffffffffffffffffffffffffffff167fc3d58168c5ae7397731d063d5bbf3d657854427343f4c083240f7aacaa2d0f628888604051612457929190613eee565b60405180910390a461246d828888888888612544565b50505050505050565b60606000600167ffffffffffffffff8111156124bb577f4e487b7100000000000000000000000000000000000000000000000000000000600052604160045260246000fd5b6040519080825280602002602001820160405280156124e95781602001602082028036833780820191505090505b5090508281600081518110612527577f4e487b7100000000000000000000000000000000000000000000000000000000600052603260045260246000fd5b60200260200101818152505080915050919050565b505050505050565b6125638473ffffffffffffffffffffffffffffffffffffffff16611d49565b1561270c578373ffffffffffffffffffffffffffffffffffffffff1663f23a6e6187878686866040518663ffffffff1660e01b81526004016125a9959493929190613b03565b602060405180830381600087803b1580156125c357600080fd5b505af19250505080156125f457506040513d601f19601f820116820180604052508101906125f19190613028565b60015b612683576126006142f2565b8061260b5750612648565b806040517f08c379a000000000000000000000000000000000000000000000000000000000815260040161263f9190613bd1565b60405180910390fd5b6040517f08c379a000000000000000000000000000000000000000000000000000000000815260040161267a90613bf3565b60405180910390fd5b63f23a6e6160e01b7bffffffffffffffffffffffffffffffffffffffffffffffffffffffff1916817bffffffffffffffffffffffffffffffffffffffffffffffffffffffff19161461270a576040517f08c379a000000000000000000000000000000000000000000000000000000000815260040161270190613c13565b60405180910390fd5b505b505050505050565b6127338473ffffffffffffffffffffffffffffffffffffffff16611d49565b156128dc578373ffffffffffffffffffffffffffffffffffffffff1663bc197c8187878686866040518663ffffffff1660e01b8152600401612779959493929190613a9b565b602060405180830381600087803b15801561279357600080fd5b505af19250505080156127c457506040513d601f19601f820116820180604052508101906127c19190613028565b60015b612853576127d06142f2565b806127db5750612818565b806040517f08c379a000000000000000000000000000000000000000000000000000000000815260040161280f9190613bd1565b60405180910390fd5b6040517f08c379a000000000000000000000000000000000000000000000000000000000815260040161284a90613bf3565b60405180910390fd5b63bc197c8160e01b7bffffffffffffffffffffffffffffffffffffffffffffffffffffffff1916817bffffffffffffffffffffffffffffffffffffffffffffffffffffffff1916146128da576040517f08c379a00000000000000000000000000000000000000000000000000000000081526004016128d190613c13565b60405180910390fd5b505b505050505050565b8280546128f0906141cc565b90600052602060002090601f0160209004810192826129125760008555612959565b82601f1061292b57805160ff1916838001178555612959565b82800160010185558215612959579182015b8281111561295857825182559160200191906001019061293d565b5b509050612966919061296a565b5090565b5b8082111561298357600081600090555060010161296b565b5090565b600061299a61299584613f8d565b613f5c565b905080838252602082019050828560208602820111156129b957600080fd5b60005b858110156129e957816129cf8882612adb565b8452602084019350602083019250506001810190506129bc565b5050509392505050565b6000612a06612a0184613fb9565b613f5c565b90508083825260208201905082856020860282011115612a2557600080fd5b60005b85811015612a555781612a3b8882612bec565b845260208401935060208301925050600181019050612a28565b5050509392505050565b6000612a72612a6d84613fe5565b613f5c565b905082815260208101848484011115612a8a57600080fd5b612a9584828561418a565b509392505050565b6000612ab0612aab84614015565b613f5c565b905082815260208101848484011115612ac857600080fd5b612ad384828561418a565b509392505050565b600081359050612aea816143a8565b92915050565b600082601f830112612b0157600080fd5b8135612b11848260208601612987565b91505092915050565b600082601f830112612b2b57600080fd5b8135612b3b8482602086016129f3565b91505092915050565b600081359050612b53816143bf565b92915050565b600081359050612b68816143d6565b92915050565b600081359050612b7d816143ed565b92915050565b600081519050612b92816143ed565b92915050565b600082601f830112612ba957600080fd5b8135612bb9848260208601612a5f565b91505092915050565b600082601f830112612bd357600080fd5b8135612be3848260208601612a9d565b91505092915050565b600081359050612bfb81614404565b92915050565b600060208284031215612c1357600080fd5b6000612c2184828501612adb565b91505092915050565b60008060408385031215612c3d57600080fd5b6000612c4b85828601612adb565b9250506020612c5c85828601612adb565b9150509250929050565b600080600080600060a08688031215612c7e57600080fd5b6000612c8c88828901612adb565b9550506020612c9d88828901612adb565b945050604086013567ffffffffffffffff811115612cba57600080fd5b612cc688828901612b1a565b935050606086013567ffffffffffffffff811115612ce357600080fd5b612cef88828901612b1a565b925050608086013567ffffffffffffffff811115612d0c57600080fd5b612d1888828901612b98565b9150509295509295909350565b600080600080600060a08688031215612d3d57600080fd5b6000612d4b88828901612adb565b9550506020612d5c88828901612adb565b9450506040612d6d88828901612bec565b9350506060612d7e88828901612bec565b925050608086013567ffffffffffffffff811115612d9b57600080fd5b612da788828901612b98565b9150509295509295909350565b60008060408385031215612dc757600080fd5b6000612dd585828601612adb565b9250506020612de685828601612b44565b9150509250929050565b60008060408385031215612e0357600080fd5b6000612e1185828601612adb565b9250506020612e2285828601612bec565b9150509250929050565b60008060408385031215612e3f57600080fd5b600083013567ffffffffffffffff811115612e5957600080fd5b612e6585828601612af0565b925050602083013567ffffffffffffffff811115612e8257600080fd5b612e8e85828601612b1a565b9150509250929050565b600060208284031215612eaa57600080fd5b6000612eb884828501612b59565b91505092915050565b60008060408385031215612ed457600080fd5b6000612ee285828601612b59565b9250506020612ef385828601612b59565b9150509250929050565b60008060408385031215612f1057600080fd5b6000612f1e85828601612b59565b9250506020612f2f85828601612bec565b9150509250929050565b600080600060608486031215612f4e57600080fd5b6000612f5c86828701612b59565b9350506020612f6d86828701612bec565b9250506040612f7e86828701612b59565b9150509250925092565b600080600080600060a08688031215612fa057600080fd5b6000612fae88828901612b59565b9550506020612fbf88828901612bec565b9450506040612fd088828901612bec565b9350506060612fe188828901612bec565b9250506080612ff288828901612b59565b9150509295509295909350565b60006020828403121561301157600080fd5b600061301f84828501612b6e565b91505092915050565b60006020828403121561303a57600080fd5b600061304884828501612b83565b91505092915050565b60006020828403121561306357600080fd5b600082013567ffffffffffffffff81111561307d57600080fd5b61308984828501612bc2565b91505092915050565b6000602082840312156130a457600080fd5b60006130b284828501612bec565b91505092915050565b60006130c78383613a62565b60208301905092915050565b6130dc8161410c565b82525050565b60006130ed82614055565b6130f78185614083565b935061310283614045565b8060005b8381101561313357815161311a88826130bb565b975061312583614076565b925050600181019050613106565b5085935050505092915050565b6131498161411e565b82525050565b6131588161412a565b82525050565b600061316982614060565b6131738185614094565b9350613183818560208601614199565b61318c816142d4565b840191505092915050565b60006131a28261406b565b6131ac81856140a5565b93506131bc818560208601614199565b6131c5816142d4565b840191505092915050565b60006131dd6034836140a5565b91507f455243313135353a207472616e7366657220746f206e6f6e204552433131353560008301527f526563656976657220696d706c656d656e7465720000000000000000000000006020830152604082019050919050565b60006132436028836140a5565b91507f455243313135353a204552433131353552656365697665722072656a6563746560008301527f6420746f6b656e730000000000000000000000000000000000000000000000006020830152604082019050919050565b60006132a96010836140a5565b91507f496e76616c6964204554482070616964000000000000000000000000000000006000830152602082019050919050565b60006132e9602b836140a5565b91507f455243313135353a2062616c616e636520717565727920666f7220746865207a60008301527f65726f20616464726573730000000000000000000000000000000000000000006020830152604082019050919050565b600061334f6026836140a5565b91507f4f776e61626c653a206e6577206f776e657220697320746865207a65726f206160008301527f64647265737300000000000000000000000000000000000000000000000000006020830152604082019050919050565b60006133b56024836140a5565b91507f455243313135353a206275726e20616d6f756e7420657863656564732062616c60008301527f616e6365000000000000000000000000000000000000000000000000000000006020830152604082019050919050565b600061341b6014836140a5565b91507f546f6b656e20616c7265616479206578697374730000000000000000000000006000830152602082019050919050565b600061345b6029836140a5565b91507f455243313135353a2063616c6c6572206973206e6f74206f776e6572206e6f7260008301527f20617070726f76656400000000000000000000000000000000000000000000006020830152604082019050919050565b60006134c1601a836140a5565b91507f596f752063616e6e6f7420676f206261636b20696e2074696d650000000000006000830152602082019050919050565b60006135016025836140a5565b91507f455243313135353a207472616e7366657220746f20746865207a65726f20616460008301527f64726573730000000000000000000000000000000000000000000000000000006020830152604082019050919050565b60006135676032836140a5565b91507f455243313135353a207472616e736665722063616c6c6572206973206e6f742060008301527f6f776e6572206e6f7220617070726f76656400000000000000000000000000006020830152604082019050919050565b60006135cd6023836140a5565b91507f455243313135353a206275726e2066726f6d20746865207a65726f206164647260008301527f65737300000000000000000000000000000000000000000000000000000000006020830152604082019050919050565b6000613633602a836140a5565b91507f455243313135353a20696e73756666696369656e742062616c616e636520666f60008301527f72207472616e73666572000000000000000000000000000000000000000000006020830152604082019050919050565b60006136996020836140a5565b91507f4f776e61626c653a2063616c6c6572206973206e6f7420746865206f776e65726000830152602082019050919050565b60006136d96031836140a5565b91507f596f752068617665206e6f2062616c616e6365206f662074686520616363657360008301527f7320746f6b656e2070726f76696465642e0000000000000000000000000000006020830152604082019050919050565b600061373f6028836140a5565b91507f596f752063616e6e6f742061646420746f6b656e7320666f722070726576696f60008301527f75732077617665730000000000000000000000000000000000000000000000006020830152604082019050919050565b60006137a5603d836140a5565b91507f596f7520617265206e6f7420616c6c6f77656420746f206d696e74207468697360008301527f20746f6b656e206174207468697320706f696e7420696e2074696d652e0000006020830152604082019050919050565b600061380b602a836140a5565b91507f416c6c20746f6b656e732061726520616c7265616479206d696e74656420666f60008301527f72207468697320494421000000000000000000000000000000000000000000006020830152604082019050919050565b60006138716029836140a5565b91507f455243313135353a2073657474696e6720617070726f76616c2073746174757360008301527f20666f722073656c6600000000000000000000000000000000000000000000006020830152604082019050919050565b60006138d76029836140a5565b91507f455243313135353a206163636f756e747320616e6420696473206c656e67746860008301527f206d69736d6174636800000000000000000000000000000000000000000000006020830152604082019050919050565b600061393d6036836140a5565b91507f596f752063616e6e6f74206368616e6765207468652077617665206f6620616e60008301527f20616c7265616479206578697374696e672074696572000000000000000000006020830152604082019050919050565b60006139a36028836140a5565b91507f455243313135353a2069647320616e6420616d6f756e7473206c656e6774682060008301527f6d69736d617463680000000000000000000000000000000000000000000000006020830152604082019050919050565b6000613a096021836140a5565b91507f455243313135353a206d696e7420746f20746865207a65726f2061646472657360008301527f73000000000000000000000000000000000000000000000000000000000000006020830152604082019050919050565b613a6b81614180565b82525050565b613a7a81614180565b82525050565b6000602082019050613a9560008301846130d3565b92915050565b600060a082019050613ab060008301886130d3565b613abd60208301876130d3565b8181036040830152613acf81866130e2565b90508181036060830152613ae381856130e2565b90508181036080830152613af7818461315e565b90509695505050505050565b600060a082019050613b1860008301886130d3565b613b2560208301876130d3565b613b326040830186613a71565b613b3f6060830185613a71565b8181036080830152613b51818461315e565b90509695505050505050565b60006020820190508181036000830152613b7781846130e2565b905092915050565b60006040820190508181036000830152613b9981856130e2565b90508181036020830152613bad81846130e2565b90509392505050565b6000602082019050613bcb6000830184613140565b92915050565b60006020820190508181036000830152613beb8184613197565b905092915050565b60006020820190508181036000830152613c0c816131d0565b9050919050565b60006020820190508181036000830152613c2c81613236565b9050919050565b60006020820190508181036000830152613c4c8161329c565b9050919050565b60006020820190508181036000830152613c6c816132dc565b9050919050565b60006020820190508181036000830152613c8c81613342565b9050919050565b60006020820190508181036000830152613cac816133a8565b9050919050565b60006020820190508181036000830152613ccc8161340e565b9050919050565b60006020820190508181036000830152613cec8161344e565b9050919050565b60006020820190508181036000830152613d0c816134b4565b9050919050565b60006020820190508181036000830152613d2c816134f4565b9050919050565b60006020820190508181036000830152613d4c8161355a565b9050919050565b60006020820190508181036000830152613d6c816135c0565b9050919050565b60006020820190508181036000830152613d8c81613626565b9050919050565b60006020820190508181036000830152613dac8161368c565b9050919050565b60006020820190508181036000830152613dcc816136cc565b9050919050565b60006020820190508181036000830152613dec81613732565b9050919050565b60006020820190508181036000830152613e0c81613798565b9050919050565b60006020820190508181036000830152613e2c816137fe565b9050919050565b60006020820190508181036000830152613e4c81613864565b9050919050565b60006020820190508181036000830152613e6c816138ca565b9050919050565b60006020820190508181036000830152613e8c81613930565b9050919050565b60006020820190508181036000830152613eac81613996565b9050919050565b60006020820190508181036000830152613ecc816139fc565b9050919050565b6000602082019050613ee86000830184613a71565b92915050565b6000604082019050613f036000830185613a71565b613f106020830184613a71565b9392505050565b6000608082019050613f2c6000830187613a71565b613f396020830186613a71565b613f466040830185613a71565b613f53606083018461314f565b95945050505050565b6000604051905081810181811067ffffffffffffffff82111715613f8357613f826142a5565b5b8060405250919050565b600067ffffffffffffffff821115613fa857613fa76142a5565b5b602082029050602081019050919050565b600067ffffffffffffffff821115613fd457613fd36142a5565b5b602082029050602081019050919050565b600067ffffffffffffffff82111561400057613fff6142a5565b5b601f19601f8301169050602081019050919050565b600067ffffffffffffffff8211156140305761402f6142a5565b5b601f19601f8301169050602081019050919050565b6000819050602082019050919050565b600081519050919050565b600081519050919050565b600081519050919050565b6000602082019050919050565b600082825260208201905092915050565b600082825260208201905092915050565b600082825260208201905092915050565b60006140c182614180565b91506140cc83614180565b9250827fffffffffffffffffffffffffffffffffffffffffffffffffffffffffffffffff0382111561410157614100614247565b5b828201905092915050565b600061411782614160565b9050919050565b60008115159050919050565b6000819050919050565b60007fffffffff0000000000000000000000000000000000000000000000000000000082169050919050565b600073ffffffffffffffffffffffffffffffffffffffff82169050919050565b6000819050919050565b82818337600083830152505050565b60005b838110156141b757808201518184015260208101905061419c565b838111156141c6576000848401525b50505050565b600060028204905060018216806141e457607f821691505b602082108114156141f8576141f7614276565b5b50919050565b600061420982614180565b91507fffffffffffffffffffffffffffffffffffffffffffffffffffffffffffffffff82141561423c5761423b614247565b5b600182019050919050565b7f4e487b7100000000000000000000000000000000000000000000000000000000600052601160045260246000fd5b7f4e487b7100000000000000000000000000000000000000000000000000000000600052602260045260246000fd5b7f4e487b7100000000000000000000000000000000000000000000000000000000600052604160045260246000fd5b6000601f19601f8301169050919050565b60008160e01c9050919050565b600060443d1015614302576143a5565b60046000803e6143136000516142e5565b6308c379a0811461432457506143a5565b60405160043d036004823e80513d602482011167ffffffffffffffff82111715614350575050506143a5565b808201805167ffffffffffffffff81111561436f5750505050506143a5565b8060208301013d850181111561438a575050505050506143a5565b614393826142d4565b60208401016040528296505050505050505b90565b6143b18161410c565b81146143bc57600080fd5b50565b6143c88161411e565b81146143d357600080fd5b50565b6143df8161412a565b81146143ea57600080fd5b50565b6143f681614134565b811461440157600080fd5b50565b61440d81614180565b811461441857600080fd5b5056fea26469706673582212204f187c8d34e242183e195fa943f92f43d41515b36646ddaa5c52ca89263b78d464736f6c634300080000334f6e6c79206c696d6974656420706572736f6e616c206e6f6e2d636f6d6d65726369616c2075736520616e6420726573616c652072696768747320696e20746865204e465420617265206772616e74656420616e6420616c6c20636f7079726967687420616e64206f7468657220726967687473206172652072657365727665642e20546865207465726d7320616e6420636f6e646974696f6e73206f6620416c69656e2053616d757261692044696e6f2057617272696f7273202868747470733a2f2f64696e6f77617272696f72732e696f2920617265206170706c696361626c652e",
  "immutableReferences": {},
  "source": "pragma solidity ^0.8.0;\n\nimport \"openzeppelin-solidity/contracts/token/ERC1155/ERC1155.sol\";\nimport \"openzeppelin-solidity/contracts/access/Ownable.sol\";\nimport \"@chainlink/contracts/src/v0.8/VRFConsumerBase.sol\";\n\n/**\n * Only limited personal non-commercial use and resale rights in the NFT are granted and all copyright and other rights are reserved.\n * The terms and conditions of Alien Samurai Dino Warriors (https://dinowarriors.io) are applicable.\n */\ncontract DinoWarriors is ERC1155, Ownable() {\n\n    // Events for minting and activating the event\n    event Minted(address indexed account, bytes32 indexed token, uint minted);\n\n    // Struct to keep info on all tokens\n    struct TokenInfo {\n        uint256 id;\n        uint256 mintedAmount;\n        uint256 totalAmount;\n        bytes32 tier; // Info on aggregated tier level\n    }\n\n    // Map each token description to the technical information\n    mapping(bytes32 => TokenInfo) public tokenInfo;\n\n    struct Tier {\n        uint256 price; // Price in Wei\n        uint256 mintable; /*By who can the token be minted?\n                            - 0: nobody can mint.\n                            - x: everyone with a drop reward between wave 1 and wave x can mint.\n                              x can be increased over time to have stepwise priority for pre-sales\n                            - Equal to latestDropWave + 1: everyone can mint */\n        uint256 dropWave; // In which drop was the tier released?\n        bytes32 tokenToBurn; // If this token is used to claim minting rights, burn it\n    }\n\n\n    // Map each tier to it's information\n    mapping(bytes32 => Tier) public tiers;\n\n    // Keep track of latest drop\n    uint256 public latestDropWave = 1;\n\n    // Current token id\n    uint256 currentTokenID;\n\n    // A link to the legal terms of the smart contract\n    string public legalTerms;\n\n    // Address receiving the funds after minting with fees\n    address public wallet;\n\n    constructor(\n        string memory uri_\n        )\n        ERC1155(uri_){\n            wallet = _msgSender();\n\n            legalTerms = \"Only limited personal non-commercial use and resale rights in the NFT are granted and all copyright and other rights are reserved. The terms and conditions of Alien Samurai Dino Warriors (https://dinowarriors.io) are applicable.\";\n            /* Set Tiers */\n\n            tiers['OG_CARD'] = Tier({price: 0.15 ether, mintable: 0, dropWave: 1, tokenToBurn: ''});\n            tiers['SILVER'] = Tier({price: 0, mintable: 0, dropWave: 1, tokenToBurn: 'OG_CARD'});\n            tiers['GOLD'] = Tier({price: 0.55 ether, mintable: 0, dropWave: 1, tokenToBurn: ''});\n            tiers['DIAMOND'] = Tier({price: 0, mintable: 2, dropWave: 1, tokenToBurn: ''});\n\n            // Token 0: OG_CARD\n            tokenInfo['OG_CARD'] = TokenInfo({id: 0, mintedAmount: 0, totalAmount: 5000, tier: 'OG_CARD'});\n            // Silver ASDW cards\n            tokenInfo['REGULAR_T_REX'] = TokenInfo({id: 1, mintedAmount: 0, totalAmount: 200, tier: 'SILVER'});\n            tokenInfo['REGULAR_TRICERATOPS'] = TokenInfo({id: 2, mintedAmount: 0, totalAmount: 200, tier: 'SILVER'});\n            tokenInfo['REGULAR_DILOPHOSAURUS'] = TokenInfo({id: 3, mintedAmount: 0, totalAmount: 200, tier: 'SILVER'});\n            // tokenInfo['REGULAR_STEGOSAURUS'] = TokenInfo({id: 4, mintedAmount: 0, totalAmount: 200, tier: 'SILVER'});\n            // tokenInfo['REGULAR_VELOCIRAPTOR'] = TokenInfo({id: 5, mintedAmount: 0, totalAmount: 200, tier: 'SILVER'});\n            // tokenInfo['REGULAR_MAMMOTH'] = TokenInfo({id: 6, mintedAmount: 0, totalAmount: 300, tier: 'SILVER'});\n            // tokenInfo['REGULAR_SABRETOOTH_TIGER'] = TokenInfo({id: 7, mintedAmount: 0, totalAmount: 300, tier: 'SILVER'});\n            // tokenInfo['REGULAR_GORILLA'] = TokenInfo({id: 8, mintedAmount: 0, totalAmount: 300, tier: 'SILVER'});\n            // tokenInfo['REGULAR_HIPPO'] = TokenInfo({id: 9, mintedAmount: 0, totalAmount: 300, tier: 'SILVER'});\n            // tokenInfo['HOLOGRAPHIC_T_REX'] = TokenInfo({id: 10, mintedAmount: 0, totalAmount: 5, tier: 'SILVER'});\n            // tokenInfo['HOLOGRAPHIC_TRICERATOPS'] = TokenInfo({id: 11, mintedAmount: 0, totalAmount: 5, tier: 'SILVER'});\n            // tokenInfo['HOLOGRAPHIC_DILOPHOSAURUS'] = TokenInfo({id: 12, mintedAmount: 0, totalAmount: 5, tier: 'SILVER'});\n            // tokenInfo['HOLOGRAPHIC_STEGOSAURUS'] = TokenInfo({id: 13, mintedAmount: 0, totalAmount: 5, tier: 'SILVER'});\n            // tokenInfo['HOLOGRAPHIC_VELOCIRAPTOR'] = TokenInfo({id: 14, mintedAmount: 0, totalAmount: 5, tier: 'SILVER'});\n            // tokenInfo['HOLOGRAPHIC_MAMMOTH'] = TokenInfo({id: 15, mintedAmount: 0, totalAmount: 12, tier: 'SILVER'});\n            // tokenInfo['HOLOGRAPHIC_SABRETOOTH_TIGER'] = TokenInfo({id: 16, mintedAmount: 0, totalAmount: 12, tier: 'SILVER'});\n            // tokenInfo['HOLOGRAPHIC_GORILLA'] = TokenInfo({id: 17, mintedAmount: 0, totalAmount: 12, tier: 'SILVER'});\n            // tokenInfo['HOLOGRAPHIC_HIPPO'] = TokenInfo({id: 18, mintedAmount: 0, totalAmount: 12, tier: 'SILVER'});\n            // tokenInfo['REVERSE_HOLO_T_REX_NAKED'] = TokenInfo({id: 19, mintedAmount: 0, totalAmount: 1, tier: 'SILVER'});\n            // tokenInfo['REVERSE_HOLO_T_REX'] = TokenInfo({id: 20, mintedAmount: 0, totalAmount: 2, tier: 'SILVER'});\n            // tokenInfo['REVERSE_HOLO_TRICERATOPS'] = TokenInfo({id: 21, mintedAmount: 0, totalAmount: 2, tier: 'SILVER'});\n            // tokenInfo['REVERSE_HOLO_DILOPHOSAURUS'] = TokenInfo({id: 22, mintedAmount: 0, totalAmount: 2, tier: 'SILVER'});\n            // tokenInfo['REVERSE_HOLO_STEGOSAURUS'] = TokenInfo({id: 23, mintedAmount: 0, totalAmount: 2, tier: 'SILVER'});\n            // tokenInfo['REVERSE_HOLO_VELOCIRAPTOR'] = TokenInfo({id: 24, mintedAmount: 0, totalAmount: 2, tier: 'SILVER'});\n            // tokenInfo['REVERSE_HOLO_MAMMOTH'] = TokenInfo({id: 25, mintedAmount: 0, totalAmount: 4, tier: 'SILVER'});\n            // tokenInfo['REVERSE_HOLO_SABRETOOTH_TIGER'] = TokenInfo({id: 26, mintedAmount: 0, totalAmount: 4, tier: 'SILVER'});\n            // tokenInfo['REVERSE_HOLO_GORILLA'] = TokenInfo({id: 27, mintedAmount: 0, totalAmount: 4, tier: 'SILVER'});\n            // tokenInfo['REVERSE_HOLO_HIPPO'] = TokenInfo({id: 28, mintedAmount: 0, totalAmount: 4, tier: 'SILVER'});\n            // tokenInfo['ROSE_GOLD_T_REX_NAKED'] = TokenInfo({id: 29, mintedAmount: 0, totalAmount: 2, tier: 'SILVER'});\n            // tokenInfo['ROSE_GOLD_T_REX'] = TokenInfo({id: 30, mintedAmount: 0, totalAmount: 5, tier: 'SILVER'});\n            // tokenInfo['ROSE_GOLD_TRICERATOPS'] = TokenInfo({id: 31, mintedAmount: 0, totalAmount: 5, tier: 'SILVER'});\n            // tokenInfo['ROSE_GOLD_DILOPHOSAURUS'] = TokenInfo({id: 32, mintedAmount: 0, totalAmount: 5, tier: 'SILVER'});\n            // tokenInfo['ROSE_GOLD_STEGOSAURUS'] = TokenInfo({id: 33, mintedAmount: 0, totalAmount: 5, tier: 'SILVER'});\n            // tokenInfo['ROSE_GOLD_VELOCIRAPTOR'] = TokenInfo({id: 34, mintedAmount: 0, totalAmount: 5, tier: 'SILVER'});\n            // tokenInfo['ROSE_GOLD_MAMMOTH'] = TokenInfo({id: 35, mintedAmount: 0, totalAmount: 10, tier: 'SILVER'});\n            // tokenInfo['ROSE_GOLD_SABRETOOTH_TIGER'] = TokenInfo({id: 36, mintedAmount: 0, totalAmount: 10, tier: 'SILVER'});\n            // tokenInfo['ROSE_GOLD_GORILLA'] = TokenInfo({id: 37, mintedAmount: 0, totalAmount: 10, tier: 'SILVER'});\n            // tokenInfo['ROSE_GOLD_HIPPO'] = TokenInfo({id: 38, mintedAmount: 0, totalAmount: 10, tier: 'SILVER'});\n            // tokenInfo['GOLD_T_REX_NAKED'] = TokenInfo({id: 39, mintedAmount: 0, totalAmount: 3, tier: 'SILVER'});\n            // tokenInfo['GOLD_T_REX'] = TokenInfo({id: 40, mintedAmount: 0, totalAmount: 10, tier: 'SILVER'});\n            // tokenInfo['GOLD_TRICERATOPS'] = TokenInfo({id: 41, mintedAmount: 0, totalAmount: 10, tier: 'SILVER'});\n            // tokenInfo['GOLD_DILOPHOSAURUS'] = TokenInfo({id: 42, mintedAmount: 0, totalAmount: 10, tier: 'SILVER'});\n            // tokenInfo['GOLD_STEGOSAURUS'] = TokenInfo({id: 43, mintedAmount: 0, totalAmount: 10, tier: 'SILVER'});\n            // tokenInfo['GOLD_VELOCIRAPTOR'] = TokenInfo({id: 44, mintedAmount: 0, totalAmount: 10, tier: 'SILVER'});\n            // tokenInfo['GOLD_MAMMOTH'] = TokenInfo({id: 45, mintedAmount: 0, totalAmount: 20, tier: 'SILVER'});\n            // tokenInfo['GOLD_SABRETOOTH_TIGER'] = TokenInfo({id: 46, mintedAmount: 0, totalAmount: 20, tier: 'SILVER'});\n            // tokenInfo['GOLD_GORILLA'] = TokenInfo({id: 47, mintedAmount: 0, totalAmount: 20, tier: 'SILVER'});\n            // tokenInfo['GOLD_HIPPO'] = TokenInfo({id: 48, mintedAmount: 0, totalAmount: 20, tier: 'SILVER'});\n            // tokenInfo['SILVER_T_REX_NAKED'] = TokenInfo({id: 49, mintedAmount: 0, totalAmount: 4, tier: 'SILVER'});\n            // tokenInfo['SILVER_T_REX'] = TokenInfo({id: 50, mintedAmount: 0, totalAmount: 15, tier: 'SILVER'});\n            // tokenInfo['SILVER_TRICERATOPS'] = TokenInfo({id: 51, mintedAmount: 0, totalAmount: 15, tier: 'SILVER'});\n            // tokenInfo['SILVER_DILOPHOSAURUS'] = TokenInfo({id: 52, mintedAmount: 0, totalAmount: 15, tier: 'SILVER'});\n            // tokenInfo['SILVER_STEGOSAURUS'] = TokenInfo({id: 53, mintedAmount: 0, totalAmount: 15, tier: 'SILVER'});\n            // tokenInfo['SILVER_VELOCIRAPTOR'] = TokenInfo({id: 54, mintedAmount: 0, totalAmount: 15, tier: 'SILVER'});\n            // tokenInfo['SILVER_MAMMOTH'] = TokenInfo({id: 55, mintedAmount: 0, totalAmount: 25, tier: 'SILVER'});\n            // tokenInfo['SILVER_SABRETOOTH_TIGER'] = TokenInfo({id: 56, mintedAmount: 0, totalAmount: 25, tier: 'SILVER'});\n            // tokenInfo['SILVER_GORILLA'] = TokenInfo({id: 57, mintedAmount: 0, totalAmount: 25, tier: 'SILVER'});\n            // tokenInfo['SILVER_HIPPO'] = TokenInfo({id: 58, mintedAmount: 0, totalAmount: 25, tier: 'SILVER'});\n            // tokenInfo['BRONZE_T_REX_NAKED'] = TokenInfo({id: 59, mintedAmount: 0, totalAmount: 10, tier: 'SILVER'});\n            // tokenInfo['BRONZE_T_REX'] = TokenInfo({id: 60, mintedAmount: 0, totalAmount: 50, tier: 'SILVER'});\n            // tokenInfo['BRONZE_TRICERATOPS'] = TokenInfo({id: 61, mintedAmount: 0, totalAmount: 50, tier: 'SILVER'});\n            // tokenInfo['BRONZE_DILOPHOSAURUS'] = TokenInfo({id: 62, mintedAmount: 0, totalAmount: 50, tier: 'SILVER'});\n            // tokenInfo['BRONZE_STEGOSAURUS'] = TokenInfo({id: 63, mintedAmount: 0, totalAmount: 50, tier: 'SILVER'});\n            // tokenInfo['BRONZE_VELOCIRAPTOR'] = TokenInfo({id: 64, mintedAmount: 0, totalAmount: 50, tier: 'SILVER'});\n            // tokenInfo['BRONZE_MAMMOTH'] = TokenInfo({id: 65, mintedAmount: 0, totalAmount: 100, tier: 'SILVER'});\n            // tokenInfo['BRONZE_SABRETOOTH_TIGER'] = TokenInfo({id: 66, mintedAmount: 0, totalAmount: 100, tier: 'SILVER'});\n            // tokenInfo['BRONZE_GORILLA'] = TokenInfo({id: 67, mintedAmount: 0, totalAmount: 100, tier: 'SILVER'});\n            // tokenInfo['BRONZE_HIPPO'] = TokenInfo({id: 68, mintedAmount: 0, totalAmount: 100, tier: 'SILVER'});\n            // tokenInfo['RAINBOW_T_REX_NAKED'] = TokenInfo({id: 69, mintedAmount: 0, totalAmount: 1, tier: 'SILVER'});\n            // tokenInfo['RAINBOW_T_REX'] = TokenInfo({id: 70, mintedAmount: 0, totalAmount: 2, tier: 'SILVER'});\n            // tokenInfo['RAINBOW_TRICERATOPS'] = TokenInfo({id: 71, mintedAmount: 0, totalAmount: 2, tier: 'SILVER'});\n            // tokenInfo['RAINBOW_DILOPHOSAURUS'] = TokenInfo({id: 72, mintedAmount: 0, totalAmount: 2, tier: 'SILVER'});\n            // tokenInfo['RAINBOW_STEGOSAURUS'] = TokenInfo({id: 73, mintedAmount: 0, totalAmount: 2, tier: 'SILVER'});\n            // tokenInfo['RAINBOW_VELOCIRAPTOR'] = TokenInfo({id: 74, mintedAmount: 0, totalAmount: 2, tier: 'SILVER'});\n            // tokenInfo['RAINBOW_MAMMOTH'] = TokenInfo({id: 75, mintedAmount: 0, totalAmount: 5, tier: 'SILVER'});\n            // tokenInfo['RAINBOW_SABRETOOTH_TIGER'] = TokenInfo({id: 76, mintedAmount: 0, totalAmount: 5, tier: 'SILVER'});\n            // tokenInfo['RAINBOW_GORILLA'] = TokenInfo({id: 77, mintedAmount: 0, totalAmount: 5, tier: 'SILVER'});\n            // tokenInfo['RAINBOW_HIPPO'] = TokenInfo({id: 78, mintedAmount: 0, totalAmount: 5, tier: 'SILVER'});\n            // tokenInfo['8_BIT_T_REX'] = TokenInfo({id: 79, mintedAmount: 0, totalAmount: 150, tier: 'SILVER'});\n            // tokenInfo['8_BIT_TRICERATOPS'] = TokenInfo({id: 80, mintedAmount: 0, totalAmount: 150, tier: 'SILVER'});\n            // tokenInfo['8_BIT_DILOPHOSAURUS'] = TokenInfo({id: 81, mintedAmount: 0, totalAmount: 150, tier: 'SILVER'});\n            // tokenInfo['8_BIT_STEGOSAURUS'] = TokenInfo({id: 82, mintedAmount: 0, totalAmount: 150, tier: 'SILVER'});\n            // tokenInfo['8_BIT_VELOCIRAPTOR'] = TokenInfo({id: 83, mintedAmount: 0, totalAmount: 150, tier: 'SILVER'});\n            // tokenInfo['8_BIT_MAMMOTH'] = TokenInfo({id: 84, mintedAmount: 0, totalAmount: 195, tier: 'SILVER'});\n            // tokenInfo['8_BIT_SABRETOOTH_TIGER'] = TokenInfo({id: 85, mintedAmount: 0, totalAmount: 195, tier: 'SILVER'});\n            // tokenInfo['8_BIT_GORILLA'] = TokenInfo({id: 86, mintedAmount: 0, totalAmount: 195, tier: 'SILVER'});\n            // tokenInfo['8_BIT_HIPPO'] = TokenInfo({id: 87, mintedAmount: 0, totalAmount: 195, tier: 'SILVER'});\n            // tokenInfo['8_BIT_SELECT_PLAYER_1'] = TokenInfo({id: 88, mintedAmount: 0, totalAmount: 20, tier: 'SILVER'});\n            // tokenInfo['8_BIT_SELECT_PLAYER_2'] = TokenInfo({id: 89, mintedAmount: 0, totalAmount: 20, tier: 'SILVER'});\n            // tokenInfo['8_BIT_SELECT_PLAYER_3'] = TokenInfo({id: 90, mintedAmount: 0, totalAmount: 20, tier: 'SILVER'});\n            // tokenInfo['8_BIT_SELECT_PLAYER_4'] = TokenInfo({id: 91, mintedAmount: 0, totalAmount: 20, tier: 'SILVER'});\n            // tokenInfo['8_BIT_SELECT_PLAYER_5'] = TokenInfo({id: 92, mintedAmount: 0, totalAmount: 20, tier: 'SILVER'});\n            // Gold ASDW cards\n            tokenInfo['VELOCIRAPTOR'] = TokenInfo({id: 93, mintedAmount: 0, totalAmount: 100, tier: 'GOLD'});\n            tokenInfo['DILOPHOSAURUS'] = TokenInfo({id: 94, mintedAmount: 0, totalAmount: 100, tier: 'GOLD'});\n            tokenInfo['TRICERATOPS'] = TokenInfo({id: 95, mintedAmount: 0, totalAmount: 100, tier: 'GOLD'});\n            tokenInfo['STEGOSAURUS'] = TokenInfo({id: 96, mintedAmount: 0, totalAmount: 100, tier: 'GOLD'});\n            tokenInfo['TYRANNOSAUR'] = TokenInfo({id: 97, mintedAmount: 0, totalAmount: 100, tier: 'GOLD'});\n            tokenInfo['TYRANNOSAUR_WITH_LASER_EYES'] = TokenInfo({id: 98, mintedAmount: 0, totalAmount: 40, tier: 'GOLD'});\n            tokenInfo['MAMMAL_KING'] = TokenInfo({id: 99, mintedAmount: 0, totalAmount: 35, tier: 'GOLD'});\n            tokenInfo['CYBERSHARK'] = TokenInfo({id: 100, mintedAmount: 0, totalAmount: 25, tier: 'GOLD'});\n            // Diamond ASDW cards\n            tokenInfo['DIAMOND'] = TokenInfo({id: 101, mintedAmount: 0, totalAmount: 1, tier: 'DIAMOND'});\n\n            // Diamond minted by Envoy for direct auction\n            _mint('DIAMOND', '');\n    }\n\n  //\n  // ******************* OWNERSHIP *******************\n  //\n\n    function updateWallet(address wallet_) external onlyOwner {\n        wallet = wallet_; \n    }\n\n    /**\n     * @notice Function for the owner to change the link to legal terms.\n     * @param legalTerms_ The link to the legal terms.\n     */\n    function setLegalTerms(string memory legalTerms_) external onlyOwner{\n        legalTerms = legalTerms_;\n    }\n\n    // Functions to manage tiers\n    \n    /**\n     * Functions to create new tiers, or to modify price and mintable of existing tier.\n     * Drop waves cannot be altered, and should always be higher than the latest drop wave.\n     */\n\n    function addTier(\n        bytes32 name,\n        uint256 price_,\n        uint256 mintable_,\n        uint256 dropWave_,\n        bytes32 tokenToBurn_) external onlyOwner{\n        \n        require(dropWave_ >= latestDropWave,\n            \"You cannot go back in time\");\n\n        if(tiers[name].dropWave > 0) {\n            require(tiers[name].dropWave == dropWave_,\n                \"You cannot change the wave of an already existing tier\");\n        }\n\n        tiers[name] = Tier({price: price_,\n                            mintable: mintable_,\n                            dropWave: dropWave_,\n                            tokenToBurn: tokenToBurn_});\n\n        if (dropWave_ > latestDropWave) {\n            latestDropWave++;\n        }\n    }\n\n    function adjustTierMintability(\n        bytes32 name,\n        uint256 mintable_) external onlyOwner{\n            tiers[name].mintable = mintable_;\n    }\n\n    function setTierPrice(\n        bytes32 name,\n        uint256 price_) external onlyOwner{\n            tiers[name].price = price_;\n    }\n\n\n    /**\n     * Function to add new tokens.\n     * New Tokens should always\n     */\n    function addToken(bytes32 name,\n        uint256 totalAmount_,\n        bytes32 tier_) external onlyOwner{\n        \n        require(tokenInfo[name].totalAmount == 0,\n            \"Token already exists\");\n\n        // Implicit test if tier exists\n        require(tiers[tier_].dropWave >= latestDropWave,\n            \"You cannot add tokens for previous waves\");\n\n        tokenInfo[name] = TokenInfo({id: currentTokenID,\n                                    mintedAmount: 0,\n                                    totalAmount: totalAmount_,\n                                    tier: tier_\n                                    });\n        \n        currentTokenID++;\n    }\n\n    /**\n     * Add new tokens of an existing token\n     * @param name the name of the token to add\n     * @param additionalTokenAmount the amount of tokens to add\n     */\n    function increaseTokenAmount(bytes32 name,\n        uint256 additionalTokenAmount) external onlyOwner{\n        tokenInfo[name].totalAmount += additionalTokenAmount;\n    }\n\n    /**\n     * Function to mint tokens.\n     * In order to mint tokens, following criteria must be met:\n     *   - You must provide a token\n     */\n    function _mint(bytes32 tokenToMint, bytes32 tokenToUse) public payable {\n\n        address account = _msgSender();\n        TokenInfo storage tokenToMintObject = tokenInfo[tokenToMint];\n\n\n        require(tokenToMintObject.totalAmount > tokenToMintObject.mintedAmount,\n            \"All tokens are already minted for this ID!\");\n        \n        Tier storage tierToMint = tiers[tokenToMintObject.tier];\n\n        // Check if everyone is allowed to mint.\n        // If not, check if the token provided gives the right to mint,\n        // and burn it if this is required.\n        if(tierToMint.mintable <= latestDropWave){\n\n            TokenInfo storage tokenToUseObject = tokenInfo[tokenToUse];\n            Tier storage tierToUse = tiers[tokenToUseObject.tier];\n            require(ERC1155.balanceOf(account, tokenToUseObject.id) > 0,\n                \"You have no balance of the access token provided.\");\n\n            // Check if the token provided gives minting access\n            require((tierToMint.mintable != 0) &&\n                    ((tierToMint.mintable >= tierToUse.dropWave) || tierToMint.mintable == latestDropWave),\n                    \"You are not allowed to mint this token at this point in time.\");\n            \n            // Check if the token needs to be burned before being able to mint\n            if(tierToMint.tokenToBurn == tokenToUse){\n                ERC1155._burn(account, tokenToUseObject.id, 1);\n            }\n        }\n\n        if(tierToMint.price > 0){\n            uint256 weiAmount = msg.value;\n            require(weiAmount == tierToMint.price, \"Invalid ETH paid\");\n            // Send ETH to wallet\n            payable(wallet).transfer(weiAmount);\n        }\n\n\n        ERC1155._mint(account, tokenToMintObject.id, 1, \"\");\n\n        tokenToMintObject.mintedAmount++;\n        emit Minted(account, tokenToMint, tokenToMintObject.mintedAmount);\n\n    }\n\n    function _mint(bytes32 tokenToMint) public payable {\n        _mint(tokenToMint, '');\n    }\n    // Disable minting inherited from ERC1155\n    function _mint (\n        address account,\n        uint256 id,\n        uint256 amount,\n        bytes memory data) internal override pure {\n        revert(\"This function should be called with 2 bytes32 parameters\");\n    }\n\n    function _mintBatch(\n        address to,\n        uint256[] memory ids,\n        uint256[] memory amounts,\n        bytes memory data) internal override pure {\n        revert(\"This contract does not mint batches.\");\n    }\n    // /**\n    //  * Function to mint token.\n    //  * If the event is not active, accesstickets are minted.\n    //  * If it is active, NFT's are minted.\n    //  */\n    // function _mint() external {\n    //     if(dinoConActive == false){\n    //         _mintAccessTicket();\n    //     } else {\n    //         _mintCard();\n    //     }\n    // }\n\n    // /**\n    //  * Mint accesstickets 1 at a time.\n    //  */\n    // function _mintAccessTicket() private {\n\n    //     require(maxAmount > currentAccessTicketAmount,\n    //         \"All access cards are already assinged!\");\n        \n    //     uint256 weiAmount = msg.value;\n    //     require(weiAmount == price, \"Invalid ETH paid\");\n\n    //     // Send ETH to wallet\n    //     payable(wallet).transfer(weiAmount);\n\n    //     address account = _msgSender();\n\n    //     ERC1155._mint(account, ACCESS_TICKET, 1, \"\");\n        \n    //     currentAccessTicketAmount++; \n    // }\n\n    // /**\n    //  * Function to mint token.\n    //  * The token ID will be linked to a randomly assigned card..\n    //  * Randomness will be provided off-chain.\n    //  * You need to have an access ticket before you can mint,\n    //  * and you can only mint once with each address.\n    //  */\n    // function _mintCard(id) private{\n\n    //     require(maxAmount > currentTokenAmount,\n    //         \"All tokens are already minted\");\n\n    //     address account = _msgSender();\n    //     //\n    //     require(ERC1155.balanceOf(account, ACCESS_TICKET) > 0,\n    //         \"You need an access ticket to mint your NFT\");\n    //     require(ticketUsed[account] == false,\n    //         \"You already used your ticket\");\n\n    //     // Increment up front to skip token 0\n    //     currentTokenAmount++; \n\n    //     // Use one access ticket and mint an NFT\n    //     ticketUsed[account] = true;\n    //     ERC1155._burn(account, ACCESS_TICKET, 1, \"\");\n        \n    //     ERC1155._mint(account, currentTokenAmount, 1, \"\");\n\n    //     emit Minted(account, currentTokenAmount);\n    // }\n\n\n\n}",
  "sourcePath": "/Users/Baas/repos/envoy/repos/dinowars/Contracts/contracts/DinoWarriors.sol",
  "compiler": {
    "name": "solc",
    "version": "0.8.0+commit.c7dfd78e.Emscripten.clang"
  },
  "schemaVersion": "3.4.2",
  "updatedAt": "2021-09-12T20:04:17.511Z",
  "networkType": "ethereum",
  "devdoc": {
    "kind": "dev",
    "methods": {
      "balanceOf(address,uint256)": {
        "details": "See {IERC1155-balanceOf}. Requirements: - `account` cannot be the zero address."
      },
      "balanceOfBatch(address[],uint256[])": {
        "details": "See {IERC1155-balanceOfBatch}. Requirements: - `accounts` and `ids` must have the same length."
      },
      "increaseTokenAmount(bytes32,uint256)": {
        "params": {
          "additionalTokenAmount": "the amount of tokens to add",
          "name": "the name of the token to add"
        }
      },
      "isApprovedForAll(address,address)": {
        "details": "See {IERC1155-isApprovedForAll}."
      },
      "owner()": {
        "details": "Returns the address of the current owner."
      },
      "renounceOwnership()": {
        "details": "Leaves the contract without owner. It will not be possible to call `onlyOwner` functions anymore. Can only be called by the current owner. NOTE: Renouncing ownership will leave the contract without an owner, thereby removing any functionality that is only available to the owner."
      },
      "safeBatchTransferFrom(address,address,uint256[],uint256[],bytes)": {
        "details": "See {IERC1155-safeBatchTransferFrom}."
      },
      "safeTransferFrom(address,address,uint256,uint256,bytes)": {
        "details": "See {IERC1155-safeTransferFrom}."
      },
      "setApprovalForAll(address,bool)": {
        "details": "See {IERC1155-setApprovalForAll}."
      },
      "setLegalTerms(string)": {
        "params": {
          "legalTerms_": "The link to the legal terms."
        }
      },
      "supportsInterface(bytes4)": {
        "details": "See {IERC165-supportsInterface}."
      },
      "transferOwnership(address)": {
        "details": "Transfers ownership of the contract to a new account (`newOwner`). Can only be called by the current owner."
      },
      "uri(uint256)": {
        "details": "See {IERC1155MetadataURI-uri}. This implementation returns the same URI for *all* token types. It relies on the token type ID substitution mechanism https://eips.ethereum.org/EIPS/eip-1155#metadata[defined in the EIP]. Clients calling this function must replace the `\\{id\\}` substring with the actual token type ID."
      }
    },
    "version": 1
  },
  "userdoc": {
    "kind": "user",
    "methods": {
      "_mint(bytes32,bytes32)": {
        "notice": "Function to mint tokens. In order to mint tokens, following criteria must be met:   - You must provide a token"
      },
      "addTier(bytes32,uint256,uint256,uint256,bytes32)": {
        "notice": "Functions to create new tiers, or to modify price and mintable of existing tier. Drop waves cannot be altered, and should always be higher than the latest drop wave."
      },
      "addToken(bytes32,uint256,bytes32)": {
        "notice": "Function to add new tokens. New Tokens should always"
      },
      "increaseTokenAmount(bytes32,uint256)": {
        "notice": "Add new tokens of an existing token"
      },
      "setLegalTerms(string)": {
        "notice": "Function for the owner to change the link to legal terms."
      }
    },
    "notice": "Only limited personal non-commercial use and resale rights in the NFT are granted and all copyright and other rights are reserved. The terms and conditions of Alien Samurai Dino Warriors (https://dinowarriors.io) are applicable.",
    "version": 1
  }
}