{
  "contractName": "DinoWarriorsDev",
  "abi": [
    {
      "inputs": [
        {
          "internalType": "string",
          "name": "uri_",
          "type": "string"
        }
      ],
      "stateMutability": "nonpayable",
      "type": "constructor"
    },
    {
      "anonymous": false,
      "inputs": [
        {
          "indexed": true,
          "internalType": "address",
          "name": "account",
          "type": "address"
        },
        {
          "indexed": true,
          "internalType": "address",
          "name": "operator",
          "type": "address"
        },
        {
          "indexed": false,
          "internalType": "bool",
          "name": "approved",
          "type": "bool"
        }
      ],
      "name": "ApprovalForAll",
      "type": "event"
    },
    {
      "anonymous": false,
      "inputs": [
        {
          "indexed": true,
          "internalType": "address",
          "name": "account",
          "type": "address"
        },
        {
          "indexed": true,
          "internalType": "bytes32",
          "name": "token",
          "type": "bytes32"
        },
        {
          "indexed": false,
          "internalType": "uint256",
          "name": "minted",
          "type": "uint256"
        }
      ],
      "name": "Minted",
      "type": "event"
    },
    {
      "anonymous": false,
      "inputs": [
        {
          "indexed": true,
          "internalType": "address",
          "name": "previousOwner",
          "type": "address"
        },
        {
          "indexed": true,
          "internalType": "address",
          "name": "newOwner",
          "type": "address"
        }
      ],
      "name": "OwnershipTransferred",
      "type": "event"
    },
    {
      "anonymous": false,
      "inputs": [
        {
          "indexed": true,
          "internalType": "address",
          "name": "operator",
          "type": "address"
        },
        {
          "indexed": true,
          "internalType": "address",
          "name": "from",
          "type": "address"
        },
        {
          "indexed": true,
          "internalType": "address",
          "name": "to",
          "type": "address"
        },
        {
          "indexed": false,
          "internalType": "uint256[]",
          "name": "ids",
          "type": "uint256[]"
        },
        {
          "indexed": false,
          "internalType": "uint256[]",
          "name": "values",
          "type": "uint256[]"
        }
      ],
      "name": "TransferBatch",
      "type": "event"
    },
    {
      "anonymous": false,
      "inputs": [
        {
          "indexed": true,
          "internalType": "address",
          "name": "operator",
          "type": "address"
        },
        {
          "indexed": true,
          "internalType": "address",
          "name": "from",
          "type": "address"
        },
        {
          "indexed": true,
          "internalType": "address",
          "name": "to",
          "type": "address"
        },
        {
          "indexed": false,
          "internalType": "uint256",
          "name": "id",
          "type": "uint256"
        },
        {
          "indexed": false,
          "internalType": "uint256",
          "name": "value",
          "type": "uint256"
        }
      ],
      "name": "TransferSingle",
      "type": "event"
    },
    {
      "anonymous": false,
      "inputs": [
        {
          "indexed": false,
          "internalType": "string",
          "name": "value",
          "type": "string"
        },
        {
          "indexed": true,
          "internalType": "uint256",
          "name": "id",
          "type": "uint256"
        }
      ],
      "name": "URI",
      "type": "event"
    },
    {
      "inputs": [
        {
          "internalType": "address",
          "name": "account",
          "type": "address"
        },
        {
          "internalType": "uint256",
          "name": "id",
          "type": "uint256"
        }
      ],
      "name": "balanceOf",
      "outputs": [
        {
          "internalType": "uint256",
          "name": "",
          "type": "uint256"
        }
      ],
      "stateMutability": "view",
      "type": "function"
    },
    {
      "inputs": [
        {
          "internalType": "address[]",
          "name": "accounts",
          "type": "address[]"
        },
        {
          "internalType": "uint256[]",
          "name": "ids",
          "type": "uint256[]"
        }
      ],
      "name": "balanceOfBatch",
      "outputs": [
        {
          "internalType": "uint256[]",
          "name": "",
          "type": "uint256[]"
        }
      ],
      "stateMutability": "view",
      "type": "function"
    },
    {
      "inputs": [
        {
          "internalType": "address",
          "name": "account",
          "type": "address"
        },
        {
          "internalType": "address",
          "name": "operator",
          "type": "address"
        }
      ],
      "name": "isApprovedForAll",
      "outputs": [
        {
          "internalType": "bool",
          "name": "",
          "type": "bool"
        }
      ],
      "stateMutability": "view",
      "type": "function"
    },
    {
      "inputs": [],
      "name": "latestDropWave",
      "outputs": [
        {
          "internalType": "uint256",
          "name": "",
          "type": "uint256"
        }
      ],
      "stateMutability": "view",
      "type": "function"
    },
    {
      "inputs": [],
      "name": "legalTerms",
      "outputs": [
        {
          "internalType": "string",
          "name": "",
          "type": "string"
        }
      ],
      "stateMutability": "view",
      "type": "function"
    },
    {
      "inputs": [],
      "name": "owner",
      "outputs": [
        {
          "internalType": "address",
          "name": "",
          "type": "address"
        }
      ],
      "stateMutability": "view",
      "type": "function"
    },
    {
      "inputs": [],
      "name": "renounceOwnership",
      "outputs": [],
      "stateMutability": "nonpayable",
      "type": "function"
    },
    {
      "inputs": [
        {
          "internalType": "address",
          "name": "from",
          "type": "address"
        },
        {
          "internalType": "address",
          "name": "to",
          "type": "address"
        },
        {
          "internalType": "uint256[]",
          "name": "ids",
          "type": "uint256[]"
        },
        {
          "internalType": "uint256[]",
          "name": "amounts",
          "type": "uint256[]"
        },
        {
          "internalType": "bytes",
          "name": "data",
          "type": "bytes"
        }
      ],
      "name": "safeBatchTransferFrom",
      "outputs": [],
      "stateMutability": "nonpayable",
      "type": "function"
    },
    {
      "inputs": [
        {
          "internalType": "address",
          "name": "from",
          "type": "address"
        },
        {
          "internalType": "address",
          "name": "to",
          "type": "address"
        },
        {
          "internalType": "uint256",
          "name": "id",
          "type": "uint256"
        },
        {
          "internalType": "uint256",
          "name": "amount",
          "type": "uint256"
        },
        {
          "internalType": "bytes",
          "name": "data",
          "type": "bytes"
        }
      ],
      "name": "safeTransferFrom",
      "outputs": [],
      "stateMutability": "nonpayable",
      "type": "function"
    },
    {
      "inputs": [
        {
          "internalType": "address",
          "name": "operator",
          "type": "address"
        },
        {
          "internalType": "bool",
          "name": "approved",
          "type": "bool"
        }
      ],
      "name": "setApprovalForAll",
      "outputs": [],
      "stateMutability": "nonpayable",
      "type": "function"
    },
    {
      "inputs": [
        {
          "internalType": "bytes4",
          "name": "interfaceId",
          "type": "bytes4"
        }
      ],
      "name": "supportsInterface",
      "outputs": [
        {
          "internalType": "bool",
          "name": "",
          "type": "bool"
        }
      ],
      "stateMutability": "view",
      "type": "function"
    },
    {
      "inputs": [
        {
          "internalType": "bytes32",
          "name": "",
          "type": "bytes32"
        }
      ],
      "name": "tiers",
      "outputs": [
        {
          "internalType": "uint256",
          "name": "price",
          "type": "uint256"
        },
        {
          "internalType": "uint256",
          "name": "mintable",
          "type": "uint256"
        },
        {
          "internalType": "uint256",
          "name": "dropWave",
          "type": "uint256"
        },
        {
          "internalType": "bytes32",
          "name": "tokenToBurn",
          "type": "bytes32"
        }
      ],
      "stateMutability": "view",
      "type": "function"
    },
    {
      "inputs": [
        {
          "internalType": "bytes32",
          "name": "",
          "type": "bytes32"
        }
      ],
      "name": "tokenInfo",
      "outputs": [
        {
          "internalType": "uint256",
          "name": "id",
          "type": "uint256"
        },
        {
          "internalType": "uint256",
          "name": "mintedAmount",
          "type": "uint256"
        },
        {
          "internalType": "uint256",
          "name": "totalAmount",
          "type": "uint256"
        },
        {
          "internalType": "bytes32",
          "name": "tier",
          "type": "bytes32"
        }
      ],
      "stateMutability": "view",
      "type": "function"
    },
    {
      "inputs": [
        {
          "internalType": "address",
          "name": "newOwner",
          "type": "address"
        }
      ],
      "name": "transferOwnership",
      "outputs": [],
      "stateMutability": "nonpayable",
      "type": "function"
    },
    {
      "inputs": [
        {
          "internalType": "uint256",
          "name": "",
          "type": "uint256"
        }
      ],
      "name": "uri",
      "outputs": [
        {
          "internalType": "string",
          "name": "",
          "type": "string"
        }
      ],
      "stateMutability": "view",
      "type": "function"
    },
    {
      "inputs": [],
      "name": "wallet",
      "outputs": [
        {
          "internalType": "address",
          "name": "",
          "type": "address"
        }
      ],
      "stateMutability": "view",
      "type": "function"
    },
    {
      "inputs": [
        {
          "internalType": "address",
          "name": "wallet_",
          "type": "address"
        }
      ],
      "name": "updateWallet",
      "outputs": [],
      "stateMutability": "nonpayable",
      "type": "function"
    },
    {
      "inputs": [
        {
          "internalType": "string",
          "name": "legalTerms_",
          "type": "string"
        }
      ],
      "name": "setLegalTerms",
      "outputs": [],
      "stateMutability": "nonpayable",
      "type": "function"
    },
    {
      "inputs": [
        {
          "internalType": "bytes32",
          "name": "name",
          "type": "bytes32"
        },
        {
          "internalType": "uint256",
          "name": "price_",
          "type": "uint256"
        },
        {
          "internalType": "uint256",
          "name": "mintable_",
          "type": "uint256"
        },
        {
          "internalType": "uint256",
          "name": "dropWave_",
          "type": "uint256"
        },
        {
          "internalType": "bytes32",
          "name": "tokenToBurn_",
          "type": "bytes32"
        }
      ],
      "name": "addTier",
      "outputs": [],
      "stateMutability": "nonpayable",
      "type": "function"
    },
    {
      "inputs": [
        {
          "internalType": "bytes32",
          "name": "name",
          "type": "bytes32"
        },
        {
          "internalType": "uint256",
          "name": "mintable_",
          "type": "uint256"
        }
      ],
      "name": "setTierMintability",
      "outputs": [],
      "stateMutability": "nonpayable",
      "type": "function"
    },
    {
      "inputs": [
        {
          "internalType": "bytes32",
          "name": "name",
          "type": "bytes32"
        },
        {
          "internalType": "uint256",
          "name": "price_",
          "type": "uint256"
        }
      ],
      "name": "setTierPrice",
      "outputs": [],
      "stateMutability": "nonpayable",
      "type": "function"
    },
    {
      "inputs": [
        {
          "internalType": "bytes32",
          "name": "name",
          "type": "bytes32"
        },
        {
          "internalType": "uint256",
          "name": "totalAmount_",
          "type": "uint256"
        },
        {
          "internalType": "bytes32",
          "name": "tier_",
          "type": "bytes32"
        }
      ],
      "name": "addToken",
      "outputs": [],
      "stateMutability": "nonpayable",
      "type": "function"
    },
    {
      "inputs": [
        {
          "internalType": "bytes32",
          "name": "name",
          "type": "bytes32"
        },
        {
          "internalType": "uint256",
          "name": "additionalTokenAmount",
          "type": "uint256"
        }
      ],
      "name": "increaseTokenAmount",
      "outputs": [],
      "stateMutability": "nonpayable",
      "type": "function"
    },
    {
      "inputs": [
        {
          "internalType": "bytes32",
          "name": "tokenToMint",
          "type": "bytes32"
        },
        {
          "internalType": "bytes32",
          "name": "tokenToUse",
          "type": "bytes32"
        }
      ],
      "name": "_mint",
      "outputs": [],
      "stateMutability": "payable",
      "type": "function"
    },
    {
      "inputs": [
        {
          "internalType": "bytes32",
          "name": "tokenToMint",
          "type": "bytes32"
        }
      ],
      "name": "_mint",
      "outputs": [],
      "stateMutability": "payable",
      "type": "function"
    }
  ],
  "bytecode": "0x608060405260016006553480156200001657600080fd5b50604051620069293803806200692983398181016040528101906200003c919062001987565b806200004e8162000c4f60201b60201c565b506200006f6200006362000c6b60201b60201c565b62000c7360201b60201c565b6200007f62000c6b60201b60201c565b600960006101000a81548173ffffffffffffffffffffffffffffffffffffffff021916908373ffffffffffffffffffffffffffffffffffffffff16021790555060405180610120016040528060e481526020016200684560e4913960089080519060200190620000f192919062001822565b50604051806080016040528065015d3ef79800815260200160008152602001600181526020016000801916815250600560007f4f475f434152440000000000000000000000000000000000000000000000000081526020019081526020016000206000820151816000015560208201518160010155604082015181600201556060820151816003015590505060405180608001604052806000815260200160008152602001600181526020017f4f475f4341524400000000000000000000000000000000000000000000000000815250600560007f53494c56455200000000000000000000000000000000000000000000000000008152602001908152602001600020600082015181600001556020820151816001015560408201518160020155606082015181600301559050506040518060800160405280650500918bd800815260200160008152602001600181526020016000801916815250600560007f474f4c440000000000000000000000000000000000000000000000000000000081526020019081526020016000206000820151816000015560208201518160010155604082015181600201556060820151816003015590505060405180608001604052806000815260200160028152602001600181526020016000801916815250600560007f4449414d4f4e44000000000000000000000000000000000000000000000000008152602001908152602001600020600082015181600001556020820151816001015560408201518160020155606082015181600301559050506040518060800160405280600081526020016000815260200161138881526020017f4f475f4341524400000000000000000000000000000000000000000000000000815250600460007f4f475f43415244000000000000000000000000000000000000000000000000008152602001908152602001600020600082015181600001556020820151816001015560408201518160020155606082015181600301559050506040518060800160405280600181526020016000815260200160c881526020017f53494c5645520000000000000000000000000000000000000000000000000000815250600460007f524547554c41525f545f524558000000000000000000000000000000000000008152602001908152602001600020600082015181600001556020820151816001015560408201518160020155606082015181600301559050506040518060800160405280600281526020016000815260200160c881526020017f53494c5645520000000000000000000000000000000000000000000000000000815250600460007f524547554c41525f54524943455241544f5053000000000000000000000000008152602001908152602001600020600082015181600001556020820151816001015560408201518160020155606082015181600301559050506040518060800160405280600381526020016000815260200160c881526020017f53494c5645520000000000000000000000000000000000000000000000000000815250600460007f524547554c41525f44494c4f50484f53415552555300000000000000000000008152602001908152602001600020600082015181600001556020820151816001015560408201518160020155606082015181600301559050506040518060800160405280600481526020016000815260200160c881526020017f53494c5645520000000000000000000000000000000000000000000000000000815250600460007f524547554c41525f535445474f534155525553000000000000000000000000008152602001908152602001600020600082015181600001556020820151816001015560408201518160020155606082015181600301559050506040518060800160405280605d815260200160008152602001606481526020017f474f4c4400000000000000000000000000000000000000000000000000000000815250600460007f56454c4f4349524150544f5200000000000000000000000000000000000000008152602001908152602001600020600082015181600001556020820151816001015560408201518160020155606082015181600301559050506040518060800160405280605e815260200160008152602001606481526020017f474f4c4400000000000000000000000000000000000000000000000000000000815250600460007f44494c4f50484f534155525553000000000000000000000000000000000000008152602001908152602001600020600082015181600001556020820151816001015560408201518160020155606082015181600301559050506040518060800160405280605f815260200160008152602001606481526020017f474f4c4400000000000000000000000000000000000000000000000000000000815250600460007f54524943455241544f505300000000000000000000000000000000000000000081526020019081526020016000206000820151816000015560208201518160010155604082015181600201556060820151816003015590505060405180608001604052806060815260200160008152602001606481526020017f474f4c4400000000000000000000000000000000000000000000000000000000815250600460007f535445474f53415552555300000000000000000000000000000000000000000081526020019081526020016000206000820151816000015560208201518160010155604082015181600201556060820151816003015590505060405180608001604052806061815260200160008152602001606481526020017f474f4c4400000000000000000000000000000000000000000000000000000000815250600460007f545952414e4e4f5341555200000000000000000000000000000000000000000081526020019081526020016000206000820151816000015560208201518160010155604082015181600201556060820151816003015590505060405180608001604052806062815260200160008152602001602881526020017f474f4c4400000000000000000000000000000000000000000000000000000000815250600460007f545952414e4e4f534155525f574954485f4c415345525f45594553000000000081526020019081526020016000206000820151816000015560208201518160010155604082015181600201556060820151816003015590505060405180608001604052806063815260200160008152602001602381526020017f474f4c4400000000000000000000000000000000000000000000000000000000815250600460007f4d414d4d414c5f4b494e4700000000000000000000000000000000000000000081526020019081526020016000206000820151816000015560208201518160010155604082015181600201556060820151816003015590505060405180608001604052806064815260200160008152602001601981526020017f474f4c4400000000000000000000000000000000000000000000000000000000815250600460007f4359424552534841524b0000000000000000000000000000000000000000000081526020019081526020016000206000820151816000015560208201518160010155604082015181600201556060820151816003015590505060405180608001604052806065815260200160008152602001600181526020017f4449414d4f4e4400000000000000000000000000000000000000000000000000815250600460007f4449414d4f4e4400000000000000000000000000000000000000000000000000815260200190815260200160002060008201518160000155602082015181600101556040820151816002015560608201518160030155905050606660078190555062000c487f4449414d4f4e4400000000000000000000000000000000000000000000000000600062000d3960201b60201c565b5062002429565b806002908051906020019062000c6792919062001822565b5050565b600033905090565b6000600360009054906101000a900473ffffffffffffffffffffffffffffffffffffffff16905081600360006101000a81548173ffffffffffffffffffffffffffffffffffffffff021916908373ffffffffffffffffffffffffffffffffffffffff1602179055508173ffffffffffffffffffffffffffffffffffffffff168173ffffffffffffffffffffffffffffffffffffffff167f8be0079c531659141344cd1fd0a4f28419497f9722a3daafe3b4186f6b6457e060405160405180910390a35050565b600062000d4b62000c6b60201b60201c565b90506000600460008581526020019081526020016000209050806001015481600201541162000db1576040517f08c379a000000000000000000000000000000000000000000000000000000000815260040162000da89062001ff2565b60405180910390fd5b60006005600083600301548152602001908152602001600020905060065481600101541162000f0b576000600460008681526020019081526020016000209050600060056000836003015481526020019081526020016000209050600062000e298684600001546200107860201b620005d91760201c565b1162000e6c576040517f08c379a000000000000000000000000000000000000000000000000000000000815260040162000e639062001fae565b60405180910390fd5b600083600101541415801562000e9b57508060020154836001015410158062000e9a57506006548360010154145b5b62000edd576040517f08c379a000000000000000000000000000000000000000000000000000000000815260040162000ed49062001fd0565b60405180910390fd5b858360030154141562000f085762000f0785836000015460016200114460201b620019771760201c565b5b50505b60008160000154111562000fd35760003490508160000154811462000f67576040517f08c379a000000000000000000000000000000000000000000000000000000000815260040162000f5e9062001f26565b60405180910390fd5b600960009054906101000a900473ffffffffffffffffffffffffffffffffffffffff1673ffffffffffffffffffffffffffffffffffffffff166108fc829081150290604051600060405180830381858888f1935050505015801562000fd0573d6000803e3d6000fd5b50505b620010008383600001546001604051806020016040528060008152506200138960201b62001b941760201c565b816001016000815480929190620010179062002252565b9190505550848373ffffffffffffffffffffffffffffffffffffffff167fa076a0e133eaaa7a0d2293663374c22b5572fc5a479274e17e00ac210fe2367b846001015460405162001069919062002036565b60405180910390a35050505050565b60008073ffffffffffffffffffffffffffffffffffffffff168373ffffffffffffffffffffffffffffffffffffffff161415620010ec576040517f08c379a0000000000000000000000000000000000000000000000000000000008152600401620010e39062001f48565b60405180910390fd5b60008083815260200190815260200160002060008473ffffffffffffffffffffffffffffffffffffffff1673ffffffffffffffffffffffffffffffffffffffff16815260200190815260200160002054905092915050565b600073ffffffffffffffffffffffffffffffffffffffff168373ffffffffffffffffffffffffffffffffffffffff161415620011b7576040517f08c379a0000000000000000000000000000000000000000000000000000000008152600401620011ae9062001f8c565b60405180910390fd5b6000620011c962000c6b60201b60201c565b90506200121181856000620011e4876200154e60201b60201c565b620011f5876200154e60201b60201c565b604051806020016040528060008152506200161760201b60201c565b600080600085815260200190815260200160002060008673ffffffffffffffffffffffffffffffffffffffff1673ffffffffffffffffffffffffffffffffffffffff16815260200190815260200160002054905082811015620012ab576040517f08c379a0000000000000000000000000000000000000000000000000000000008152600401620012a29062001f6a565b60405180910390fd5b82810360008086815260200190815260200160002060008773ffffffffffffffffffffffffffffffffffffffff1673ffffffffffffffffffffffffffffffffffffffff16815260200190815260200160002081905550600073ffffffffffffffffffffffffffffffffffffffff168573ffffffffffffffffffffffffffffffffffffffff168373ffffffffffffffffffffffffffffffffffffffff167fc3d58168c5ae7397731d063d5bbf3d657854427343f4c083240f7aacaa2d0f6287876040516200137a92919062002053565b60405180910390a45050505050565b600073ffffffffffffffffffffffffffffffffffffffff168473ffffffffffffffffffffffffffffffffffffffff161415620013fc576040517f08c379a0000000000000000000000000000000000000000000000000000000008152600401620013f39062002014565b60405180910390fd5b60006200140e62000c6b60201b60201c565b9050620014478160008762001429886200154e60201b60201c565b6200143a886200154e60201b60201c565b876200161760201b60201c565b8260008086815260200190815260200160002060008773ffffffffffffffffffffffffffffffffffffffff1673ffffffffffffffffffffffffffffffffffffffff1681526020019081526020016000206000828254620014a891906200211f565b925050819055508473ffffffffffffffffffffffffffffffffffffffff16600073ffffffffffffffffffffffffffffffffffffffff168273ffffffffffffffffffffffffffffffffffffffff167fc3d58168c5ae7397731d063d5bbf3d657854427343f4c083240f7aacaa2d0f6287876040516200152892919062002053565b60405180910390a462001547816000878787876200161f60201b60201c565b5050505050565b60606000600167ffffffffffffffff81111562001594577f4e487b7100000000000000000000000000000000000000000000000000000000600052604160045260246000fd5b604051908082528060200260200182016040528015620015c35781602001602082028036833780820191505090505b509050828160008151811062001602577f4e487b7100000000000000000000000000000000000000000000000000000000600052603260045260246000fd5b60200260200101818152505080915050919050565b505050505050565b6200164b8473ffffffffffffffffffffffffffffffffffffffff166200180f60201b62001d2a1760201c565b1562001807578373ffffffffffffffffffffffffffffffffffffffff1663f23a6e6187878686866040518663ffffffff1660e01b81526004016200169495949392919062001e5a565b602060405180830381600087803b158015620016af57600080fd5b505af1925050508015620016e357506040513d601f19601f82011682018060405250810190620016e091906200195b565b60015b6200177b57620016f26200234b565b80620016ff57506200173e565b806040517f08c379a000000000000000000000000000000000000000000000000000000000815260040162001735919062001ebe565b60405180910390fd5b6040517f08c379a0000000000000000000000000000000000000000000000000000000008152600401620017729062001ee2565b60405180910390fd5b63f23a6e6160e01b7bffffffffffffffffffffffffffffffffffffffffffffffffffffffff1916817bffffffffffffffffffffffffffffffffffffffffffffffffffffffff19161462001805576040517f08c379a0000000000000000000000000000000000000000000000000000000008152600401620017fc9062001f04565b60405180910390fd5b505b505050505050565b600080823b905060008111915050919050565b82805462001830906200221c565b90600052602060002090601f016020900481019282620018545760008555620018a0565b82601f106200186f57805160ff1916838001178555620018a0565b82800160010185558215620018a0579182015b828111156200189f57825182559160200191906001019062001882565b5b509050620018af9190620018b3565b5090565b5b80821115620018ce576000816000905550600101620018b4565b5090565b6000620018e9620018e384620020b4565b62002080565b9050828152602081018484840111156200190257600080fd5b6200190f848285620021e6565b509392505050565b60008151905062001928816200240f565b92915050565b600082601f8301126200194057600080fd5b815162001952848260208601620018d2565b91505092915050565b6000602082840312156200196e57600080fd5b60006200197e8482850162001917565b91505092915050565b6000602082840312156200199a57600080fd5b600082015167ffffffffffffffff811115620019b557600080fd5b620019c3848285016200192e565b91505092915050565b620019d7816200217c565b82525050565b6000620019ea82620020e7565b620019f68185620020fd565b935062001a08818560208601620021e6565b62001a13816200232d565b840191505092915050565b600062001a2b82620020f2565b62001a3781856200210e565b935062001a49818560208601620021e6565b62001a54816200232d565b840191505092915050565b600062001a6e6034836200210e565b91507f455243313135353a207472616e7366657220746f206e6f6e204552433131353560008301527f526563656976657220696d706c656d656e7465720000000000000000000000006020830152604082019050919050565b600062001ad66028836200210e565b91507f455243313135353a204552433131353552656365697665722072656a6563746560008301527f6420746f6b656e730000000000000000000000000000000000000000000000006020830152604082019050919050565b600062001b3e6010836200210e565b91507f496e76616c6964204554482070616964000000000000000000000000000000006000830152602082019050919050565b600062001b80602b836200210e565b91507f455243313135353a2062616c616e636520717565727920666f7220746865207a60008301527f65726f20616464726573730000000000000000000000000000000000000000006020830152604082019050919050565b600062001be86024836200210e565b91507f455243313135353a206275726e20616d6f756e7420657863656564732062616c60008301527f616e6365000000000000000000000000000000000000000000000000000000006020830152604082019050919050565b600062001c506023836200210e565b91507f455243313135353a206275726e2066726f6d20746865207a65726f206164647260008301527f65737300000000000000000000000000000000000000000000000000000000006020830152604082019050919050565b600062001cb86031836200210e565b91507f596f752068617665206e6f2062616c616e6365206f662074686520616363657360008301527f7320746f6b656e2070726f76696465642e0000000000000000000000000000006020830152604082019050919050565b600062001d20603d836200210e565b91507f596f7520617265206e6f7420616c6c6f77656420746f206d696e74207468697360008301527f20746f6b656e206174207468697320706f696e7420696e2074696d652e0000006020830152604082019050919050565b600062001d88602a836200210e565b91507f416c6c20746f6b656e732061726520616c7265616479206d696e74656420666f60008301527f72207468697320494421000000000000000000000000000000000000000000006020830152604082019050919050565b600062001df06021836200210e565b91507f455243313135353a206d696e7420746f20746865207a65726f2061646472657360008301527f73000000000000000000000000000000000000000000000000000000000000006020830152604082019050919050565b62001e5481620021dc565b82525050565b600060a08201905062001e716000830188620019cc565b62001e806020830187620019cc565b62001e8f604083018662001e49565b62001e9e606083018562001e49565b818103608083015262001eb28184620019dd565b90509695505050505050565b6000602082019050818103600083015262001eda818462001a1e565b905092915050565b6000602082019050818103600083015262001efd8162001a5f565b9050919050565b6000602082019050818103600083015262001f1f8162001ac7565b9050919050565b6000602082019050818103600083015262001f418162001b2f565b9050919050565b6000602082019050818103600083015262001f638162001b71565b9050919050565b6000602082019050818103600083015262001f858162001bd9565b9050919050565b6000602082019050818103600083015262001fa78162001c41565b9050919050565b6000602082019050818103600083015262001fc98162001ca9565b9050919050565b6000602082019050818103600083015262001feb8162001d11565b9050919050565b600060208201905081810360008301526200200d8162001d79565b9050919050565b600060208201905081810360008301526200202f8162001de1565b9050919050565b60006020820190506200204d600083018462001e49565b92915050565b60006040820190506200206a600083018562001e49565b62002079602083018462001e49565b9392505050565b6000604051905081810181811067ffffffffffffffff82111715620020aa57620020a9620022fe565b5b8060405250919050565b600067ffffffffffffffff821115620020d257620020d1620022fe565b5b601f19601f8301169050602081019050919050565b600081519050919050565b600081519050919050565b600082825260208201905092915050565b600082825260208201905092915050565b60006200212c82620021dc565b91506200213983620021dc565b9250827fffffffffffffffffffffffffffffffffffffffffffffffffffffffffffffffff03821115620021715762002170620022a0565b5b828201905092915050565b60006200218982620021bc565b9050919050565b60007fffffffff0000000000000000000000000000000000000000000000000000000082169050919050565b600073ffffffffffffffffffffffffffffffffffffffff82169050919050565b6000819050919050565b60005b8381101562002206578082015181840152602081019050620021e9565b8381111562002216576000848401525b50505050565b600060028204905060018216806200223557607f821691505b602082108114156200224c576200224b620022cf565b5b50919050565b60006200225f82620021dc565b91507fffffffffffffffffffffffffffffffffffffffffffffffffffffffffffffffff821415620022955762002294620022a0565b5b600182019050919050565b7f4e487b7100000000000000000000000000000000000000000000000000000000600052601160045260246000fd5b7f4e487b7100000000000000000000000000000000000000000000000000000000600052602260045260246000fd5b7f4e487b7100000000000000000000000000000000000000000000000000000000600052604160045260246000fd5b6000601f19601f8301169050919050565b60008160e01c9050919050565b600060443d10156200235d576200240c565b60046000803e620023706000516200233e565b6308c379a081146200238357506200240c565b60405160043d036004823e80513d602482011167ffffffffffffffff82111715620023b1575050506200240c565b808201805167ffffffffffffffff811115620023d25750505050506200240c565b8060208301013d8501811115620023ef575050505050506200240c565b620023fa826200232d565b60208401016040528296505050505050505b90565b6200241a8162002190565b81146200242657600080fd5b50565b61440c80620024396000396000f3fe6080604052600436106101655760003560e01c8063848b86e3116100d1578063ad7feb8d1161008a578063c79b009a11610064578063c79b009a1461051f578063e985e9c51461054a578063f242432a14610587578063f2fde38b146105b057610165565b8063ad7feb8d146104a4578063ae15de3a146104cd578063b63093ee146104f657610165565b8063848b86e31461039557806389f902f6146103be5780638da5cb5b146103fe578063936a777314610429578063a22cb46514610452578063aaec748a1461047b57610165565b8063521eb27311610123578063521eb273146102c7578063562d39a6146102f25780636225924e1461030e578063702fa5e31461032a578063715018a61461035357806376f7d7de1461036a57610165565b8062fdd58e1461016a57806301ffc9a7146101a757806303565ea1146101e45780630e89341c146102245780632eb2c2d6146102615780634e1273f41461028a575b600080fd5b34801561017657600080fd5b50610191600480360381019061018c9190612dd1565b6105d9565b60405161019e9190613e8e565b60405180910390f35b3480156101b357600080fd5b506101ce60048036038101906101c99190612fe0565b6106a2565b6040516101db9190613b71565b60405180910390f35b3480156101f057600080fd5b5061020b60048036038101906102069190612e79565b610784565b60405161021b9493929190613ed2565b60405180910390f35b34801561023057600080fd5b5061024b60048036038101906102469190613073565b6107b4565b6040516102589190613b8c565b60405180910390f35b34801561026d57600080fd5b5061028860048036038101906102839190612c47565b610848565b005b34801561029657600080fd5b506102b160048036038101906102ac9190612e0d565b6108e9565b6040516102be9190613b18565b60405180910390f35b3480156102d357600080fd5b506102dc610a9a565b6040516102e99190613a3b565b60405180910390f35b61030c60048036038101906103079190612ea2565b610ac0565b005b61032860048036038101906103239190612e79565b610dba565b005b34801561033657600080fd5b50610351600480360381019061034c9190612ede565b610dc8565b005b34801561035f57600080fd5b50610368610e63565b005b34801561037657600080fd5b5061037f610eeb565b60405161038c9190613e8e565b60405180910390f35b3480156103a157600080fd5b506103bc60048036038101906103b79190612be2565b610ef1565b005b3480156103ca57600080fd5b506103e560048036038101906103e09190612e79565b610fb1565b6040516103f59493929190613ed2565b60405180910390f35b34801561040a57600080fd5b50610413610fe1565b6040516104209190613a3b565b60405180910390f35b34801561043557600080fd5b50610450600480360381019061044b9190612ede565b61100b565b005b34801561045e57600080fd5b5061047960048036038101906104749190612d95565b6110b8565b005b34801561048757600080fd5b506104a2600480360381019061049d9190613032565b611239565b005b3480156104b057600080fd5b506104cb60048036038101906104c69190612ede565b6112cf565b005b3480156104d957600080fd5b506104f460048036038101906104ef9190612f69565b61136a565b005b34801561050257600080fd5b5061051d60048036038101906105189190612f1a565b61150d565b005b34801561052b57600080fd5b506105346116bc565b6040516105419190613b8c565b60405180910390f35b34801561055657600080fd5b50610571600480360381019061056c9190612c0b565b61174a565b60405161057e9190613b71565b60405180910390f35b34801561059357600080fd5b506105ae60048036038101906105a99190612d06565b6117de565b005b3480156105bc57600080fd5b506105d760048036038101906105d29190612be2565b61187f565b005b60008073ffffffffffffffffffffffffffffffffffffffff168373ffffffffffffffffffffffffffffffffffffffff16141561064a576040517f08c379a000000000000000000000000000000000000000000000000000000000815260040161064190613c0e565b60405180910390fd5b60008083815260200190815260200160002060008473ffffffffffffffffffffffffffffffffffffffff1673ffffffffffffffffffffffffffffffffffffffff16815260200190815260200160002054905092915050565b60007fd9b67a26000000000000000000000000000000000000000000000000000000007bffffffffffffffffffffffffffffffffffffffffffffffffffffffff1916827bffffffffffffffffffffffffffffffffffffffffffffffffffffffff1916148061076d57507f0e89341c000000000000000000000000000000000000000000000000000000007bffffffffffffffffffffffffffffffffffffffffffffffffffffffff1916827bffffffffffffffffffffffffffffffffffffffffffffffffffffffff1916145b8061077d575061077c82611d3d565b5b9050919050565b60046020528060005260406000206000915090508060000154908060010154908060020154908060030154905084565b6060600280546107c390614187565b80601f01602080910402602001604051908101604052809291908181526020018280546107ef90614187565b801561083c5780601f106108115761010080835404028352916020019161083c565b820191906000526020600020905b81548152906001019060200180831161081f57829003601f168201915b50505050509050919050565b610850611da7565b73ffffffffffffffffffffffffffffffffffffffff168573ffffffffffffffffffffffffffffffffffffffff161480610896575061089585610890611da7565b61174a565b5b6108d5576040517f08c379a00000000000000000000000000000000000000000000000000000000081526004016108cc90613cee565b60405180910390fd5b6108e28585858585611daf565b5050505050565b6060815183511461092f576040517f08c379a000000000000000000000000000000000000000000000000000000000815260040161092690613e2e565b60405180910390fd5b6000835167ffffffffffffffff811115610972577f4e487b7100000000000000000000000000000000000000000000000000000000600052604160045260246000fd5b6040519080825280602002602001820160405280156109a05781602001602082028036833780820191505090505b50905060005b8451811015610a8f57610a398582815181106109eb577f4e487b7100000000000000000000000000000000000000000000000000000000600052603260045260246000fd5b6020026020010151858381518110610a2c577f4e487b7100000000000000000000000000000000000000000000000000000000600052603260045260246000fd5b60200260200101516105d9565b828281518110610a72577f4e487b7100000000000000000000000000000000000000000000000000000000600052603260045260246000fd5b60200260200101818152505080610a88906141b9565b90506109a6565b508091505092915050565b600960009054906101000a900473ffffffffffffffffffffffffffffffffffffffff1681565b6000610aca611da7565b905060006004600085815260200190815260200160002090508060010154816002015411610b2d576040517f08c379a0000000000000000000000000000000000000000000000000000000008152600401610b2490613dee565b60405180910390fd5b600060056000836003015481526020019081526020016000209050600654816001015411610c635760006004600086815260200190815260200160002090506000600560008360030154815260200190815260200160002090506000610b978684600001546105d9565b11610bd7576040517f08c379a0000000000000000000000000000000000000000000000000000000008152600401610bce90613d6e565b60405180910390fd5b6000836001015414158015610c04575080600201548360010154101580610c0357506006548360010154145b5b610c43576040517f08c379a0000000000000000000000000000000000000000000000000000000008152600401610c3a90613dce565b60405180910390fd5b8583600301541415610c6057610c5f8583600001546001611977565b5b50505b600081600001541115610d2657600034905081600001548114610cbb576040517f08c379a0000000000000000000000000000000000000000000000000000000008152600401610cb290613bee565b60405180910390fd5b600960009054906101000a900473ffffffffffffffffffffffffffffffffffffffff1673ffffffffffffffffffffffffffffffffffffffff166108fc829081150290604051600060405180830381858888f19350505050158015610d23573d6000803e3d6000fd5b50505b610d46838360000154600160405180602001604052806000815250611b94565b816001016000815480929190610d5b906141b9565b9190505550848373ffffffffffffffffffffffffffffffffffffffff167fa076a0e133eaaa7a0d2293663374c22b5572fc5a479274e17e00ac210fe2367b8460010154604051610dab9190613e8e565b60405180910390a35050505050565b610dc5816000610ac0565b50565b610dd0611da7565b73ffffffffffffffffffffffffffffffffffffffff16610dee610fe1565b73ffffffffffffffffffffffffffffffffffffffff1614610e44576040517f08c379a0000000000000000000000000000000000000000000000000000000008152600401610e3b90613d4e565b60405180910390fd5b8060056000848152602001908152602001600020600101819055505050565b610e6b611da7565b73ffffffffffffffffffffffffffffffffffffffff16610e89610fe1565b73ffffffffffffffffffffffffffffffffffffffff1614610edf576040517f08c379a0000000000000000000000000000000000000000000000000000000008152600401610ed690613d4e565b60405180910390fd5b610ee9600061210f565b565b60065481565b610ef9611da7565b73ffffffffffffffffffffffffffffffffffffffff16610f17610fe1565b73ffffffffffffffffffffffffffffffffffffffff1614610f6d576040517f08c379a0000000000000000000000000000000000000000000000000000000008152600401610f6490613d4e565b60405180910390fd5b80600960006101000a81548173ffffffffffffffffffffffffffffffffffffffff021916908373ffffffffffffffffffffffffffffffffffffffff16021790555050565b60056020528060005260406000206000915090508060000154908060010154908060020154908060030154905084565b6000600360009054906101000a900473ffffffffffffffffffffffffffffffffffffffff16905090565b611013611da7565b73ffffffffffffffffffffffffffffffffffffffff16611031610fe1565b73ffffffffffffffffffffffffffffffffffffffff1614611087576040517f08c379a000000000000000000000000000000000000000000000000000000000815260040161107e90613d4e565b60405180910390fd5b806004600084815260200190815260200160002060020160008282546110ad9190614071565b925050819055505050565b8173ffffffffffffffffffffffffffffffffffffffff166110d7611da7565b73ffffffffffffffffffffffffffffffffffffffff16141561112e576040517f08c379a000000000000000000000000000000000000000000000000000000000815260040161112590613e0e565b60405180910390fd5b806001600061113b611da7565b73ffffffffffffffffffffffffffffffffffffffff1673ffffffffffffffffffffffffffffffffffffffff16815260200190815260200160002060008473ffffffffffffffffffffffffffffffffffffffff1673ffffffffffffffffffffffffffffffffffffffff16815260200190815260200160002060006101000a81548160ff0219169083151502179055508173ffffffffffffffffffffffffffffffffffffffff166111e8611da7565b73ffffffffffffffffffffffffffffffffffffffff167f17307eab39ab6107e8899845ad3d59bd9653f200f220920489ca2b5937696c318360405161122d9190613b71565b60405180910390a35050565b611241611da7565b73ffffffffffffffffffffffffffffffffffffffff1661125f610fe1565b73ffffffffffffffffffffffffffffffffffffffff16146112b5576040517f08c379a00000000000000000000000000000000000000000000000000000000081526004016112ac90613d4e565b60405180910390fd5b80600890805190602001906112cb9291906128c5565b5050565b6112d7611da7565b73ffffffffffffffffffffffffffffffffffffffff166112f5610fe1565b73ffffffffffffffffffffffffffffffffffffffff161461134b576040517f08c379a000000000000000000000000000000000000000000000000000000000815260040161134290613d4e565b60405180910390fd5b8060056000848152602001908152602001600020600001819055505050565b611372611da7565b73ffffffffffffffffffffffffffffffffffffffff16611390610fe1565b73ffffffffffffffffffffffffffffffffffffffff16146113e6576040517f08c379a00000000000000000000000000000000000000000000000000000000081526004016113dd90613d4e565b60405180910390fd5b60065482101561142b576040517f08c379a000000000000000000000000000000000000000000000000000000000815260040161142290613cae565b60405180910390fd5b6000600560008781526020019081526020016000206002015414611484576040517f08c379a000000000000000000000000000000000000000000000000000000000815260040161147b90613dae565b60405180910390fd5b60405180608001604052808581526020018481526020018381526020018281525060056000878152602001908152602001600020600082015181600001556020820151816001015560408201518160020155606082015181600301559050506006548211156115065760066000815480929190611500906141b9565b91905055505b5050505050565b611515611da7565b73ffffffffffffffffffffffffffffffffffffffff16611533610fe1565b73ffffffffffffffffffffffffffffffffffffffff1614611589576040517f08c379a000000000000000000000000000000000000000000000000000000000815260040161158090613d4e565b60405180910390fd5b60006004600085815260200190815260200160002060020154146115e2576040517f08c379a00000000000000000000000000000000000000000000000000000000081526004016115d990613c6e565b60405180910390fd5b6006546005600083815260200190815260200160002060020154101561163d576040517f08c379a000000000000000000000000000000000000000000000000000000000815260040161163490613d8e565b60405180910390fd5b6040518060800160405280600754815260200160008152602001838152602001828152506004600085815260200190815260200160002060008201518160000155602082015181600101556040820151816002015560608201518160030155905050600760008154809291906116b2906141b9565b9190505550505050565b600880546116c990614187565b80601f01602080910402602001604051908101604052809291908181526020018280546116f590614187565b80156117425780601f1061171757610100808354040283529160200191611742565b820191906000526020600020905b81548152906001019060200180831161172557829003601f168201915b505050505081565b6000600160008473ffffffffffffffffffffffffffffffffffffffff1673ffffffffffffffffffffffffffffffffffffffff16815260200190815260200160002060008373ffffffffffffffffffffffffffffffffffffffff1673ffffffffffffffffffffffffffffffffffffffff16815260200190815260200160002060009054906101000a900460ff16905092915050565b6117e6611da7565b73ffffffffffffffffffffffffffffffffffffffff168573ffffffffffffffffffffffffffffffffffffffff16148061182c575061182b85611826611da7565b61174a565b5b61186b576040517f08c379a000000000000000000000000000000000000000000000000000000000815260040161186290613c8e565b60405180910390fd5b61187885858585856121d5565b5050505050565b611887611da7565b73ffffffffffffffffffffffffffffffffffffffff166118a5610fe1565b73ffffffffffffffffffffffffffffffffffffffff16146118fb576040517f08c379a00000000000000000000000000000000000000000000000000000000081526004016118f290613d4e565b60405180910390fd5b600073ffffffffffffffffffffffffffffffffffffffff168173ffffffffffffffffffffffffffffffffffffffff16141561196b576040517f08c379a000000000000000000000000000000000000000000000000000000000815260040161196290613c2e565b60405180910390fd5b6119748161210f565b50565b600073ffffffffffffffffffffffffffffffffffffffff168373ffffffffffffffffffffffffffffffffffffffff1614156119e7576040517f08c379a00000000000000000000000000000000000000000000000000000000081526004016119de90613d0e565b60405180910390fd5b60006119f1611da7565b9050611a2181856000611a0387612457565b611a0c87612457565b6040518060200160405280600081525061251d565b600080600085815260200190815260200160002060008673ffffffffffffffffffffffffffffffffffffffff1673ffffffffffffffffffffffffffffffffffffffff16815260200190815260200160002054905082811015611ab8576040517f08c379a0000000000000000000000000000000000000000000000000000000008152600401611aaf90613c4e565b60405180910390fd5b82810360008086815260200190815260200160002060008773ffffffffffffffffffffffffffffffffffffffff1673ffffffffffffffffffffffffffffffffffffffff16815260200190815260200160002081905550600073ffffffffffffffffffffffffffffffffffffffff168573ffffffffffffffffffffffffffffffffffffffff168373ffffffffffffffffffffffffffffffffffffffff167fc3d58168c5ae7397731d063d5bbf3d657854427343f4c083240f7aacaa2d0f628787604051611b85929190613ea9565b60405180910390a45050505050565b600073ffffffffffffffffffffffffffffffffffffffff168473ffffffffffffffffffffffffffffffffffffffff161415611c04576040517f08c379a0000000000000000000000000000000000000000000000000000000008152600401611bfb90613e6e565b60405180910390fd5b6000611c0e611da7565b9050611c2f81600087611c2088612457565b611c2988612457565b8761251d565b8260008086815260200190815260200160002060008773ffffffffffffffffffffffffffffffffffffffff1673ffffffffffffffffffffffffffffffffffffffff1681526020019081526020016000206000828254611c8e9190614071565b925050819055508473ffffffffffffffffffffffffffffffffffffffff16600073ffffffffffffffffffffffffffffffffffffffff168273ffffffffffffffffffffffffffffffffffffffff167fc3d58168c5ae7397731d063d5bbf3d657854427343f4c083240f7aacaa2d0f628787604051611d0c929190613ea9565b60405180910390a4611d2381600087878787612525565b5050505050565b600080823b905060008111915050919050565b60007f01ffc9a7000000000000000000000000000000000000000000000000000000007bffffffffffffffffffffffffffffffffffffffffffffffffffffffff1916827bffffffffffffffffffffffffffffffffffffffffffffffffffffffff1916149050919050565b600033905090565b8151835114611df3576040517f08c379a0000000000000000000000000000000000000000000000000000000008152600401611dea90613e4e565b60405180910390fd5b600073ffffffffffffffffffffffffffffffffffffffff168473ffffffffffffffffffffffffffffffffffffffff161415611e63576040517f08c379a0000000000000000000000000000000000000000000000000000000008152600401611e5a90613cce565b60405180910390fd5b6000611e6d611da7565b9050611e7d81878787878761251d565b60005b845181101561207a576000858281518110611ec4577f4e487b7100000000000000000000000000000000000000000000000000000000600052603260045260246000fd5b602002602001015190506000858381518110611f09577f4e487b7100000000000000000000000000000000000000000000000000000000600052603260045260246000fd5b60200260200101519050600080600084815260200190815260200160002060008b73ffffffffffffffffffffffffffffffffffffffff1673ffffffffffffffffffffffffffffffffffffffff16815260200190815260200160002054905081811015611faa576040517f08c379a0000000000000000000000000000000000000000000000000000000008152600401611fa190613d2e565b60405180910390fd5b81810360008085815260200190815260200160002060008c73ffffffffffffffffffffffffffffffffffffffff1673ffffffffffffffffffffffffffffffffffffffff168152602001908152602001600020819055508160008085815260200190815260200160002060008b73ffffffffffffffffffffffffffffffffffffffff1673ffffffffffffffffffffffffffffffffffffffff168152602001908152602001600020600082825461205f9190614071565b9250508190555050505080612073906141b9565b9050611e80565b508473ffffffffffffffffffffffffffffffffffffffff168673ffffffffffffffffffffffffffffffffffffffff168273ffffffffffffffffffffffffffffffffffffffff167f4a39dc06d4c0dbc64b70af90fd698a233a518aa5d07e595d983b8c0526c8f7fb87876040516120f1929190613b3a565b60405180910390a46121078187878787876126f5565b505050505050565b6000600360009054906101000a900473ffffffffffffffffffffffffffffffffffffffff16905081600360006101000a81548173ffffffffffffffffffffffffffffffffffffffff021916908373ffffffffffffffffffffffffffffffffffffffff1602179055508173ffffffffffffffffffffffffffffffffffffffff168173ffffffffffffffffffffffffffffffffffffffff167f8be0079c531659141344cd1fd0a4f28419497f9722a3daafe3b4186f6b6457e060405160405180910390a35050565b600073ffffffffffffffffffffffffffffffffffffffff168473ffffffffffffffffffffffffffffffffffffffff161415612245576040517f08c379a000000000000000000000000000000000000000000000000000000000815260040161223c90613cce565b60405180910390fd5b600061224f611da7565b905061226f81878761226088612457565b61226988612457565b8761251d565b600080600086815260200190815260200160002060008873ffffffffffffffffffffffffffffffffffffffff1673ffffffffffffffffffffffffffffffffffffffff16815260200190815260200160002054905083811015612306576040517f08c379a00000000000000000000000000000000000000000000000000000000081526004016122fd90613d2e565b60405180910390fd5b83810360008087815260200190815260200160002060008973ffffffffffffffffffffffffffffffffffffffff1673ffffffffffffffffffffffffffffffffffffffff168152602001908152602001600020819055508360008087815260200190815260200160002060008873ffffffffffffffffffffffffffffffffffffffff1673ffffffffffffffffffffffffffffffffffffffff16815260200190815260200160002060008282546123bb9190614071565b925050819055508573ffffffffffffffffffffffffffffffffffffffff168773ffffffffffffffffffffffffffffffffffffffff168373ffffffffffffffffffffffffffffffffffffffff167fc3d58168c5ae7397731d063d5bbf3d657854427343f4c083240f7aacaa2d0f628888604051612438929190613ea9565b60405180910390a461244e828888888888612525565b50505050505050565b60606000600167ffffffffffffffff81111561249c577f4e487b7100000000000000000000000000000000000000000000000000000000600052604160045260246000fd5b6040519080825280602002602001820160405280156124ca5781602001602082028036833780820191505090505b5090508281600081518110612508577f4e487b7100000000000000000000000000000000000000000000000000000000600052603260045260246000fd5b60200260200101818152505080915050919050565b505050505050565b6125448473ffffffffffffffffffffffffffffffffffffffff16611d2a565b156126ed578373ffffffffffffffffffffffffffffffffffffffff1663f23a6e6187878686866040518663ffffffff1660e01b815260040161258a959493929190613abe565b602060405180830381600087803b1580156125a457600080fd5b505af19250505080156125d557506040513d601f19601f820116820180604052508101906125d29190613009565b60015b612664576125e16142ad565b806125ec5750612629565b806040517f08c379a00000000000000000000000000000000000000000000000000000000081526004016126209190613b8c565b60405180910390fd5b6040517f08c379a000000000000000000000000000000000000000000000000000000000815260040161265b90613bae565b60405180910390fd5b63f23a6e6160e01b7bffffffffffffffffffffffffffffffffffffffffffffffffffffffff1916817bffffffffffffffffffffffffffffffffffffffffffffffffffffffff1916146126eb576040517f08c379a00000000000000000000000000000000000000000000000000000000081526004016126e290613bce565b60405180910390fd5b505b505050505050565b6127148473ffffffffffffffffffffffffffffffffffffffff16611d2a565b156128bd578373ffffffffffffffffffffffffffffffffffffffff1663bc197c8187878686866040518663ffffffff1660e01b815260040161275a959493929190613a56565b602060405180830381600087803b15801561277457600080fd5b505af19250505080156127a557506040513d601f19601f820116820180604052508101906127a29190613009565b60015b612834576127b16142ad565b806127bc57506127f9565b806040517f08c379a00000000000000000000000000000000000000000000000000000000081526004016127f09190613b8c565b60405180910390fd5b6040517f08c379a000000000000000000000000000000000000000000000000000000000815260040161282b90613bae565b60405180910390fd5b63bc197c8160e01b7bffffffffffffffffffffffffffffffffffffffffffffffffffffffff1916817bffffffffffffffffffffffffffffffffffffffffffffffffffffffff1916146128bb576040517f08c379a00000000000000000000000000000000000000000000000000000000081526004016128b290613bce565b60405180910390fd5b505b505050505050565b8280546128d190614187565b90600052602060002090601f0160209004810192826128f3576000855561293a565b82601f1061290c57805160ff191683800117855561293a565b8280016001018555821561293a579182015b8281111561293957825182559160200191906001019061291e565b5b509050612947919061294b565b5090565b5b8082111561296457600081600090555060010161294c565b5090565b600061297b61297684613f48565b613f17565b9050808382526020820190508285602086028201111561299a57600080fd5b60005b858110156129ca57816129b08882612abc565b84526020840193506020830192505060018101905061299d565b5050509392505050565b60006129e76129e284613f74565b613f17565b90508083825260208201905082856020860282011115612a0657600080fd5b60005b85811015612a365781612a1c8882612bcd565b845260208401935060208301925050600181019050612a09565b5050509392505050565b6000612a53612a4e84613fa0565b613f17565b905082815260208101848484011115612a6b57600080fd5b612a76848285614145565b509392505050565b6000612a91612a8c84613fd0565b613f17565b905082815260208101848484011115612aa957600080fd5b612ab4848285614145565b509392505050565b600081359050612acb81614363565b92915050565b600082601f830112612ae257600080fd5b8135612af2848260208601612968565b91505092915050565b600082601f830112612b0c57600080fd5b8135612b1c8482602086016129d4565b91505092915050565b600081359050612b348161437a565b92915050565b600081359050612b4981614391565b92915050565b600081359050612b5e816143a8565b92915050565b600081519050612b73816143a8565b92915050565b600082601f830112612b8a57600080fd5b8135612b9a848260208601612a40565b91505092915050565b600082601f830112612bb457600080fd5b8135612bc4848260208601612a7e565b91505092915050565b600081359050612bdc816143bf565b92915050565b600060208284031215612bf457600080fd5b6000612c0284828501612abc565b91505092915050565b60008060408385031215612c1e57600080fd5b6000612c2c85828601612abc565b9250506020612c3d85828601612abc565b9150509250929050565b600080600080600060a08688031215612c5f57600080fd5b6000612c6d88828901612abc565b9550506020612c7e88828901612abc565b945050604086013567ffffffffffffffff811115612c9b57600080fd5b612ca788828901612afb565b935050606086013567ffffffffffffffff811115612cc457600080fd5b612cd088828901612afb565b925050608086013567ffffffffffffffff811115612ced57600080fd5b612cf988828901612b79565b9150509295509295909350565b600080600080600060a08688031215612d1e57600080fd5b6000612d2c88828901612abc565b9550506020612d3d88828901612abc565b9450506040612d4e88828901612bcd565b9350506060612d5f88828901612bcd565b925050608086013567ffffffffffffffff811115612d7c57600080fd5b612d8888828901612b79565b9150509295509295909350565b60008060408385031215612da857600080fd5b6000612db685828601612abc565b9250506020612dc785828601612b25565b9150509250929050565b60008060408385031215612de457600080fd5b6000612df285828601612abc565b9250506020612e0385828601612bcd565b9150509250929050565b60008060408385031215612e2057600080fd5b600083013567ffffffffffffffff811115612e3a57600080fd5b612e4685828601612ad1565b925050602083013567ffffffffffffffff811115612e6357600080fd5b612e6f85828601612afb565b9150509250929050565b600060208284031215612e8b57600080fd5b6000612e9984828501612b3a565b91505092915050565b60008060408385031215612eb557600080fd5b6000612ec385828601612b3a565b9250506020612ed485828601612b3a565b9150509250929050565b60008060408385031215612ef157600080fd5b6000612eff85828601612b3a565b9250506020612f1085828601612bcd565b9150509250929050565b600080600060608486031215612f2f57600080fd5b6000612f3d86828701612b3a565b9350506020612f4e86828701612bcd565b9250506040612f5f86828701612b3a565b9150509250925092565b600080600080600060a08688031215612f8157600080fd5b6000612f8f88828901612b3a565b9550506020612fa088828901612bcd565b9450506040612fb188828901612bcd565b9350506060612fc288828901612bcd565b9250506080612fd388828901612b3a565b9150509295509295909350565b600060208284031215612ff257600080fd5b600061300084828501612b4f565b91505092915050565b60006020828403121561301b57600080fd5b600061302984828501612b64565b91505092915050565b60006020828403121561304457600080fd5b600082013567ffffffffffffffff81111561305e57600080fd5b61306a84828501612ba3565b91505092915050565b60006020828403121561308557600080fd5b600061309384828501612bcd565b91505092915050565b60006130a88383613a1d565b60208301905092915050565b6130bd816140c7565b82525050565b60006130ce82614010565b6130d8818561403e565b93506130e383614000565b8060005b838110156131145781516130fb888261309c565b975061310683614031565b9250506001810190506130e7565b5085935050505092915050565b61312a816140d9565b82525050565b613139816140e5565b82525050565b600061314a8261401b565b613154818561404f565b9350613164818560208601614154565b61316d8161428f565b840191505092915050565b600061318382614026565b61318d8185614060565b935061319d818560208601614154565b6131a68161428f565b840191505092915050565b60006131be603483614060565b91507f455243313135353a207472616e7366657220746f206e6f6e204552433131353560008301527f526563656976657220696d706c656d656e7465720000000000000000000000006020830152604082019050919050565b6000613224602883614060565b91507f455243313135353a204552433131353552656365697665722072656a6563746560008301527f6420746f6b656e730000000000000000000000000000000000000000000000006020830152604082019050919050565b600061328a601083614060565b91507f496e76616c6964204554482070616964000000000000000000000000000000006000830152602082019050919050565b60006132ca602b83614060565b91507f455243313135353a2062616c616e636520717565727920666f7220746865207a60008301527f65726f20616464726573730000000000000000000000000000000000000000006020830152604082019050919050565b6000613330602683614060565b91507f4f776e61626c653a206e6577206f776e657220697320746865207a65726f206160008301527f64647265737300000000000000000000000000000000000000000000000000006020830152604082019050919050565b6000613396602483614060565b91507f455243313135353a206275726e20616d6f756e7420657863656564732062616c60008301527f616e6365000000000000000000000000000000000000000000000000000000006020830152604082019050919050565b60006133fc601483614060565b91507f546f6b656e20616c7265616479206578697374730000000000000000000000006000830152602082019050919050565b600061343c602983614060565b91507f455243313135353a2063616c6c6572206973206e6f74206f776e6572206e6f7260008301527f20617070726f76656400000000000000000000000000000000000000000000006020830152604082019050919050565b60006134a2601a83614060565b91507f596f752063616e6e6f7420676f206261636b20696e2074696d650000000000006000830152602082019050919050565b60006134e2602583614060565b91507f455243313135353a207472616e7366657220746f20746865207a65726f20616460008301527f64726573730000000000000000000000000000000000000000000000000000006020830152604082019050919050565b6000613548603283614060565b91507f455243313135353a207472616e736665722063616c6c6572206973206e6f742060008301527f6f776e6572206e6f7220617070726f76656400000000000000000000000000006020830152604082019050919050565b60006135ae602383614060565b91507f455243313135353a206275726e2066726f6d20746865207a65726f206164647260008301527f65737300000000000000000000000000000000000000000000000000000000006020830152604082019050919050565b6000613614602a83614060565b91507f455243313135353a20696e73756666696369656e742062616c616e636520666f60008301527f72207472616e73666572000000000000000000000000000000000000000000006020830152604082019050919050565b600061367a602083614060565b91507f4f776e61626c653a2063616c6c6572206973206e6f7420746865206f776e65726000830152602082019050919050565b60006136ba603183614060565b91507f596f752068617665206e6f2062616c616e6365206f662074686520616363657360008301527f7320746f6b656e2070726f76696465642e0000000000000000000000000000006020830152604082019050919050565b6000613720602883614060565b91507f596f752063616e6e6f742061646420746f6b656e7320666f722070726576696f60008301527f75732077617665730000000000000000000000000000000000000000000000006020830152604082019050919050565b6000613786601383614060565b91507f5469657220616c726561647920657869737473000000000000000000000000006000830152602082019050919050565b60006137c6603d83614060565b91507f596f7520617265206e6f7420616c6c6f77656420746f206d696e74207468697360008301527f20746f6b656e206174207468697320706f696e7420696e2074696d652e0000006020830152604082019050919050565b600061382c602a83614060565b91507f416c6c20746f6b656e732061726520616c7265616479206d696e74656420666f60008301527f72207468697320494421000000000000000000000000000000000000000000006020830152604082019050919050565b6000613892602983614060565b91507f455243313135353a2073657474696e6720617070726f76616c2073746174757360008301527f20666f722073656c6600000000000000000000000000000000000000000000006020830152604082019050919050565b60006138f8602983614060565b91507f455243313135353a206163636f756e747320616e6420696473206c656e67746860008301527f206d69736d6174636800000000000000000000000000000000000000000000006020830152604082019050919050565b600061395e602883614060565b91507f455243313135353a2069647320616e6420616d6f756e7473206c656e6774682060008301527f6d69736d617463680000000000000000000000000000000000000000000000006020830152604082019050919050565b60006139c4602183614060565b91507f455243313135353a206d696e7420746f20746865207a65726f2061646472657360008301527f73000000000000000000000000000000000000000000000000000000000000006020830152604082019050919050565b613a268161413b565b82525050565b613a358161413b565b82525050565b6000602082019050613a5060008301846130b4565b92915050565b600060a082019050613a6b60008301886130b4565b613a7860208301876130b4565b8181036040830152613a8a81866130c3565b90508181036060830152613a9e81856130c3565b90508181036080830152613ab2818461313f565b90509695505050505050565b600060a082019050613ad360008301886130b4565b613ae060208301876130b4565b613aed6040830186613a2c565b613afa6060830185613a2c565b8181036080830152613b0c818461313f565b90509695505050505050565b60006020820190508181036000830152613b3281846130c3565b905092915050565b60006040820190508181036000830152613b5481856130c3565b90508181036020830152613b6881846130c3565b90509392505050565b6000602082019050613b866000830184613121565b92915050565b60006020820190508181036000830152613ba68184613178565b905092915050565b60006020820190508181036000830152613bc7816131b1565b9050919050565b60006020820190508181036000830152613be781613217565b9050919050565b60006020820190508181036000830152613c078161327d565b9050919050565b60006020820190508181036000830152613c27816132bd565b9050919050565b60006020820190508181036000830152613c4781613323565b9050919050565b60006020820190508181036000830152613c6781613389565b9050919050565b60006020820190508181036000830152613c87816133ef565b9050919050565b60006020820190508181036000830152613ca78161342f565b9050919050565b60006020820190508181036000830152613cc781613495565b9050919050565b60006020820190508181036000830152613ce7816134d5565b9050919050565b60006020820190508181036000830152613d078161353b565b9050919050565b60006020820190508181036000830152613d27816135a1565b9050919050565b60006020820190508181036000830152613d4781613607565b9050919050565b60006020820190508181036000830152613d678161366d565b9050919050565b60006020820190508181036000830152613d87816136ad565b9050919050565b60006020820190508181036000830152613da781613713565b9050919050565b60006020820190508181036000830152613dc781613779565b9050919050565b60006020820190508181036000830152613de7816137b9565b9050919050565b60006020820190508181036000830152613e078161381f565b9050919050565b60006020820190508181036000830152613e2781613885565b9050919050565b60006020820190508181036000830152613e47816138eb565b9050919050565b60006020820190508181036000830152613e6781613951565b9050919050565b60006020820190508181036000830152613e87816139b7565b9050919050565b6000602082019050613ea36000830184613a2c565b92915050565b6000604082019050613ebe6000830185613a2c565b613ecb6020830184613a2c565b9392505050565b6000608082019050613ee76000830187613a2c565b613ef46020830186613a2c565b613f016040830185613a2c565b613f0e6060830184613130565b95945050505050565b6000604051905081810181811067ffffffffffffffff82111715613f3e57613f3d614260565b5b8060405250919050565b600067ffffffffffffffff821115613f6357613f62614260565b5b602082029050602081019050919050565b600067ffffffffffffffff821115613f8f57613f8e614260565b5b602082029050602081019050919050565b600067ffffffffffffffff821115613fbb57613fba614260565b5b601f19601f8301169050602081019050919050565b600067ffffffffffffffff821115613feb57613fea614260565b5b601f19601f8301169050602081019050919050565b6000819050602082019050919050565b600081519050919050565b600081519050919050565b600081519050919050565b6000602082019050919050565b600082825260208201905092915050565b600082825260208201905092915050565b600082825260208201905092915050565b600061407c8261413b565b91506140878361413b565b9250827fffffffffffffffffffffffffffffffffffffffffffffffffffffffffffffffff038211156140bc576140bb614202565b5b828201905092915050565b60006140d28261411b565b9050919050565b60008115159050919050565b6000819050919050565b60007fffffffff0000000000000000000000000000000000000000000000000000000082169050919050565b600073ffffffffffffffffffffffffffffffffffffffff82169050919050565b6000819050919050565b82818337600083830152505050565b60005b83811015614172578082015181840152602081019050614157565b83811115614181576000848401525b50505050565b6000600282049050600182168061419f57607f821691505b602082108114156141b3576141b2614231565b5b50919050565b60006141c48261413b565b91507fffffffffffffffffffffffffffffffffffffffffffffffffffffffffffffffff8214156141f7576141f6614202565b5b600182019050919050565b7f4e487b7100000000000000000000000000000000000000000000000000000000600052601160045260246000fd5b7f4e487b7100000000000000000000000000000000000000000000000000000000600052602260045260246000fd5b7f4e487b7100000000000000000000000000000000000000000000000000000000600052604160045260246000fd5b6000601f19601f8301169050919050565b60008160e01c9050919050565b600060443d10156142bd57614360565b60046000803e6142ce6000516142a0565b6308c379a081146142df5750614360565b60405160043d036004823e80513d602482011167ffffffffffffffff8211171561430b57505050614360565b808201805167ffffffffffffffff81111561432a575050505050614360565b8060208301013d850181111561434557505050505050614360565b61434e8261428f565b60208401016040528296505050505050505b90565b61436c816140c7565b811461437757600080fd5b50565b614383816140d9565b811461438e57600080fd5b50565b61439a816140e5565b81146143a557600080fd5b50565b6143b1816140ef565b81146143bc57600080fd5b50565b6143c88161413b565b81146143d357600080fd5b5056fea2646970667358221220d63785bd6faca144fa2bccb242ea83e4aa0bb8f40c18270607bca91c01dc291c64736f6c634300080000334f6e6c79206c696d6974656420706572736f6e616c206e6f6e2d636f6d6d65726369616c2075736520616e6420726573616c652072696768747320696e20746865204e465420617265206772616e74656420616e6420616c6c20636f7079726967687420616e64206f7468657220726967687473206172652072657365727665642e20546865207465726d7320616e6420636f6e646974696f6e73206f6620416c69656e2053616d757261692044696e6f2057617272696f7273202868747470733a2f2f64696e6f77617272696f72732e696f2920617265206170706c696361626c652e",
  "immutableReferences": {},
  "source": "//SPDX-License-Identifier: UNLICENSED\npragma solidity ^0.8.0;\n\nimport \"openzeppelin-solidity/contracts/token/ERC1155/ERC1155.sol\";\nimport \"openzeppelin-solidity/contracts/access/Ownable.sol\";\n\n/**\n * Only limited personal non-commercial use and resale rights in the NFT are granted and all copyright and other rights are reserved.\n * The terms and conditions of Alien Samurai Dino Warriors (https://dinowarriors.io) are applicable.\n */\ncontract DinoWarriorsDev is ERC1155, Ownable() {\n\n    // Events for minting and activating the event\n    event Minted(address indexed account, bytes32 indexed token, uint minted);\n\n    // Struct to keep info on all tokens\n    struct TokenInfo {\n        uint256 id;\n        uint256 mintedAmount;\n        uint256 totalAmount;\n        bytes32 tier; // Info on aggregated tier level\n    }\n\n    // Map each token description to the technical information\n    mapping(bytes32 => TokenInfo) public tokenInfo;\n\n    struct Tier {\n        uint256 price; // Price in Wei\n        uint256 mintable; /*By who can the token be minted?\n                            - 0: nobody can mint.\n                            - x: everyone with a drop reward between wave 1 and wave x can mint.\n                              x can be increased over time to have stepwise priority for pre-sales\n                            - Equal to latestDropWave + 1: everyone can mint */\n        uint256 dropWave; // In which drop was the tier released?\n        bytes32 tokenToBurn; // If this token is used to claim minting rights, burn it\n    }\n\n\n    // Map each tier to it's information\n    mapping(bytes32 => Tier) public tiers;\n\n    // Keep track of latest drop\n    uint256 public latestDropWave = 1;\n\n    // Current token id\n    uint256 currentTokenId;\n\n    // A link to the legal terms of the smart contract\n    string public legalTerms;\n\n    // Address receiving the funds after minting with fees\n    address public wallet;\n\n    constructor(\n        string memory uri_\n        )\n        ERC1155(uri_){\n            wallet = _msgSender();\n\n            legalTerms = \"Only limited personal non-commercial use and resale rights in the NFT are granted and all copyright and other rights are reserved. The terms and conditions of Alien Samurai Dino Warriors (https://dinowarriors.io) are applicable.\";\n            /* Set Tiers */\n            // S\n            tiers['OG_CARD'] = Tier({price: 0.0000015 ether, mintable: 0, dropWave: 1, tokenToBurn: ''});\n            tiers['SILVER'] = Tier({price: 0, mintable: 0, dropWave: 1, tokenToBurn: 'OG_CARD'});\n            tiers['GOLD'] = Tier({price: 0.0000055 ether, mintable: 0, dropWave: 1, tokenToBurn: ''});\n            tiers['DIAMOND'] = Tier({price: 0, mintable: 2, dropWave: 1, tokenToBurn: ''});\n\n            // Token 0: OG_CARD\n            tokenInfo['OG_CARD'] = TokenInfo({id: 0, mintedAmount: 0, totalAmount: 5000, tier: 'OG_CARD'});\n            // Silver ASDW cards\n            tokenInfo['REGULAR_T_REX'] = TokenInfo({id: 1, mintedAmount: 0, totalAmount: 200, tier: 'SILVER'});\n            tokenInfo['REGULAR_TRICERATOPS'] = TokenInfo({id: 2, mintedAmount: 0, totalAmount: 200, tier: 'SILVER'});\n            tokenInfo['REGULAR_DILOPHOSAURUS'] = TokenInfo({id: 3, mintedAmount: 0, totalAmount: 200, tier: 'SILVER'});\n            tokenInfo['REGULAR_STEGOSAURUS'] = TokenInfo({id: 4, mintedAmount: 0, totalAmount: 200, tier: 'SILVER'});\n            // tokenInfo['REGULAR_VELOCIRAPTOR'] = TokenInfo({id: 5, mintedAmount: 0, totalAmount: 200, tier: 'SILVER'});\n            // tokenInfo['REGULAR_MAMMOTH'] = TokenInfo({id: 6, mintedAmount: 0, totalAmount: 300, tier: 'SILVER'});\n            // tokenInfo['REGULAR_SABRETOOTH_TIGER'] = TokenInfo({id: 7, mintedAmount: 0, totalAmount: 300, tier: 'SILVER'});\n            // tokenInfo['REGULAR_GORILLA'] = TokenInfo({id: 8, mintedAmount: 0, totalAmount: 300, tier: 'SILVER'});\n            // tokenInfo['REGULAR_HIPPO'] = TokenInfo({id: 9, mintedAmount: 0, totalAmount: 300, tier: 'SILVER'});\n            // tokenInfo['HOLOGRAPHIC_T_REX'] = TokenInfo({id: 10, mintedAmount: 0, totalAmount: 5, tier: 'SILVER'});\n            // tokenInfo['HOLOGRAPHIC_TRICERATOPS'] = TokenInfo({id: 11, mintedAmount: 0, totalAmount: 5, tier: 'SILVER'});\n            // tokenInfo['HOLOGRAPHIC_DILOPHOSAURUS'] = TokenInfo({id: 12, mintedAmount: 0, totalAmount: 5, tier: 'SILVER'});\n            // tokenInfo['HOLOGRAPHIC_STEGOSAURUS'] = TokenInfo({id: 13, mintedAmount: 0, totalAmount: 5, tier: 'SILVER'});\n            // tokenInfo['HOLOGRAPHIC_VELOCIRAPTOR'] = TokenInfo({id: 14, mintedAmount: 0, totalAmount: 5, tier: 'SILVER'});\n            // tokenInfo['HOLOGRAPHIC_MAMMOTH'] = TokenInfo({id: 15, mintedAmount: 0, totalAmount: 12, tier: 'SILVER'});\n            // tokenInfo['HOLOGRAPHIC_SABRETOOTH_TIGER'] = TokenInfo({id: 16, mintedAmount: 0, totalAmount: 12, tier: 'SILVER'});\n            // tokenInfo['HOLOGRAPHIC_GORILLA'] = TokenInfo({id: 17, mintedAmount: 0, totalAmount: 12, tier: 'SILVER'});\n            // tokenInfo['HOLOGRAPHIC_HIPPO'] = TokenInfo({id: 18, mintedAmount: 0, totalAmount: 12, tier: 'SILVER'});\n            // tokenInfo['REVERSE_HOLO_T_REX_NAKED'] = TokenInfo({id: 19, mintedAmount: 0, totalAmount: 1, tier: 'SILVER'});\n            // tokenInfo['REVERSE_HOLO_T_REX'] = TokenInfo({id: 20, mintedAmount: 0, totalAmount: 2, tier: 'SILVER'});\n            // tokenInfo['REVERSE_HOLO_TRICERATOPS'] = TokenInfo({id: 21, mintedAmount: 0, totalAmount: 2, tier: 'SILVER'});\n            // tokenInfo['REVERSE_HOLO_DILOPHOSAURUS'] = TokenInfo({id: 22, mintedAmount: 0, totalAmount: 2, tier: 'SILVER'});\n            // tokenInfo['REVERSE_HOLO_STEGOSAURUS'] = TokenInfo({id: 23, mintedAmount: 0, totalAmount: 2, tier: 'SILVER'});\n            // tokenInfo['REVERSE_HOLO_VELOCIRAPTOR'] = TokenInfo({id: 24, mintedAmount: 0, totalAmount: 2, tier: 'SILVER'});\n            // tokenInfo['REVERSE_HOLO_MAMMOTH'] = TokenInfo({id: 25, mintedAmount: 0, totalAmount: 4, tier: 'SILVER'});\n            // tokenInfo['REVERSE_HOLO_SABRETOOTH_TIGER'] = TokenInfo({id: 26, mintedAmount: 0, totalAmount: 4, tier: 'SILVER'});\n            // tokenInfo['REVERSE_HOLO_GORILLA'] = TokenInfo({id: 27, mintedAmount: 0, totalAmount: 4, tier: 'SILVER'});\n            // tokenInfo['REVERSE_HOLO_HIPPO'] = TokenInfo({id: 28, mintedAmount: 0, totalAmount: 4, tier: 'SILVER'});\n            // tokenInfo['ROSE_GOLD_T_REX_NAKED'] = TokenInfo({id: 29, mintedAmount: 0, totalAmount: 2, tier: 'SILVER'});\n            // tokenInfo['ROSE_GOLD_T_REX'] = TokenInfo({id: 30, mintedAmount: 0, totalAmount: 5, tier: 'SILVER'});\n            // tokenInfo['ROSE_GOLD_TRICERATOPS'] = TokenInfo({id: 31, mintedAmount: 0, totalAmount: 5, tier: 'SILVER'});\n            // tokenInfo['ROSE_GOLD_DILOPHOSAURUS'] = TokenInfo({id: 32, mintedAmount: 0, totalAmount: 5, tier: 'SILVER'});\n            // tokenInfo['ROSE_GOLD_STEGOSAURUS'] = TokenInfo({id: 33, mintedAmount: 0, totalAmount: 5, tier: 'SILVER'});\n            // tokenInfo['ROSE_GOLD_VELOCIRAPTOR'] = TokenInfo({id: 34, mintedAmount: 0, totalAmount: 5, tier: 'SILVER'});\n            // tokenInfo['ROSE_GOLD_MAMMOTH'] = TokenInfo({id: 35, mintedAmount: 0, totalAmount: 10, tier: 'SILVER'});\n            // tokenInfo['ROSE_GOLD_SABRETOOTH_TIGER'] = TokenInfo({id: 36, mintedAmount: 0, totalAmount: 10, tier: 'SILVER'});\n            // tokenInfo['ROSE_GOLD_GORILLA'] = TokenInfo({id: 37, mintedAmount: 0, totalAmount: 10, tier: 'SILVER'});\n            // tokenInfo['ROSE_GOLD_HIPPO'] = TokenInfo({id: 38, mintedAmount: 0, totalAmount: 10, tier: 'SILVER'});\n            // tokenInfo['GOLD_T_REX_NAKED'] = TokenInfo({id: 39, mintedAmount: 0, totalAmount: 3, tier: 'SILVER'});\n            // tokenInfo['GOLD_T_REX'] = TokenInfo({id: 40, mintedAmount: 0, totalAmount: 10, tier: 'SILVER'});\n            // tokenInfo['GOLD_TRICERATOPS'] = TokenInfo({id: 41, mintedAmount: 0, totalAmount: 10, tier: 'SILVER'});\n            // tokenInfo['GOLD_DILOPHOSAURUS'] = TokenInfo({id: 42, mintedAmount: 0, totalAmount: 10, tier: 'SILVER'});\n            // tokenInfo['GOLD_STEGOSAURUS'] = TokenInfo({id: 43, mintedAmount: 0, totalAmount: 10, tier: 'SILVER'});\n            // tokenInfo['GOLD_VELOCIRAPTOR'] = TokenInfo({id: 44, mintedAmount: 0, totalAmount: 10, tier: 'SILVER'});\n            // tokenInfo['GOLD_MAMMOTH'] = TokenInfo({id: 45, mintedAmount: 0, totalAmount: 20, tier: 'SILVER'});\n            // tokenInfo['GOLD_SABRETOOTH_TIGER'] = TokenInfo({id: 46, mintedAmount: 0, totalAmount: 20, tier: 'SILVER'});\n            // tokenInfo['GOLD_GORILLA'] = TokenInfo({id: 47, mintedAmount: 0, totalAmount: 20, tier: 'SILVER'});\n            // tokenInfo['GOLD_HIPPO'] = TokenInfo({id: 48, mintedAmount: 0, totalAmount: 20, tier: 'SILVER'});\n            // tokenInfo['SILVER_T_REX_NAKED'] = TokenInfo({id: 49, mintedAmount: 0, totalAmount: 4, tier: 'SILVER'});\n            // tokenInfo['SILVER_T_REX'] = TokenInfo({id: 50, mintedAmount: 0, totalAmount: 15, tier: 'SILVER'});\n            // tokenInfo['SILVER_TRICERATOPS'] = TokenInfo({id: 51, mintedAmount: 0, totalAmount: 15, tier: 'SILVER'});\n            // tokenInfo['SILVER_DILOPHOSAURUS'] = TokenInfo({id: 52, mintedAmount: 0, totalAmount: 15, tier: 'SILVER'});\n            // tokenInfo['SILVER_STEGOSAURUS'] = TokenInfo({id: 53, mintedAmount: 0, totalAmount: 15, tier: 'SILVER'});\n            // tokenInfo['SILVER_VELOCIRAPTOR'] = TokenInfo({id: 54, mintedAmount: 0, totalAmount: 15, tier: 'SILVER'});\n            // tokenInfo['SILVER_MAMMOTH'] = TokenInfo({id: 55, mintedAmount: 0, totalAmount: 25, tier: 'SILVER'});\n            // tokenInfo['SILVER_SABRETOOTH_TIGER'] = TokenInfo({id: 56, mintedAmount: 0, totalAmount: 25, tier: 'SILVER'});\n            // tokenInfo['SILVER_GORILLA'] = TokenInfo({id: 57, mintedAmount: 0, totalAmount: 25, tier: 'SILVER'});\n            // tokenInfo['SILVER_HIPPO'] = TokenInfo({id: 58, mintedAmount: 0, totalAmount: 25, tier: 'SILVER'});\n            // tokenInfo['BRONZE_T_REX_NAKED'] = TokenInfo({id: 59, mintedAmount: 0, totalAmount: 10, tier: 'SILVER'});\n            // tokenInfo['BRONZE_T_REX'] = TokenInfo({id: 60, mintedAmount: 0, totalAmount: 50, tier: 'SILVER'});\n            // tokenInfo['BRONZE_TRICERATOPS'] = TokenInfo({id: 61, mintedAmount: 0, totalAmount: 50, tier: 'SILVER'});\n            // tokenInfo['BRONZE_DILOPHOSAURUS'] = TokenInfo({id: 62, mintedAmount: 0, totalAmount: 50, tier: 'SILVER'});\n            // tokenInfo['BRONZE_STEGOSAURUS'] = TokenInfo({id: 63, mintedAmount: 0, totalAmount: 50, tier: 'SILVER'});\n            // tokenInfo['BRONZE_VELOCIRAPTOR'] = TokenInfo({id: 64, mintedAmount: 0, totalAmount: 50, tier: 'SILVER'});\n            // tokenInfo['BRONZE_MAMMOTH'] = TokenInfo({id: 65, mintedAmount: 0, totalAmount: 100, tier: 'SILVER'});\n            // tokenInfo['BRONZE_SABRETOOTH_TIGER'] = TokenInfo({id: 66, mintedAmount: 0, totalAmount: 100, tier: 'SILVER'});\n            // tokenInfo['BRONZE_GORILLA'] = TokenInfo({id: 67, mintedAmount: 0, totalAmount: 100, tier: 'SILVER'});\n            // tokenInfo['BRONZE_HIPPO'] = TokenInfo({id: 68, mintedAmount: 0, totalAmount: 100, tier: 'SILVER'});\n            // tokenInfo['RAINBOW_T_REX_NAKED'] = TokenInfo({id: 69, mintedAmount: 0, totalAmount: 1, tier: 'SILVER'});\n            // tokenInfo['RAINBOW_T_REX'] = TokenInfo({id: 70, mintedAmount: 0, totalAmount: 2, tier: 'SILVER'});\n            // tokenInfo['RAINBOW_TRICERATOPS'] = TokenInfo({id: 71, mintedAmount: 0, totalAmount: 2, tier: 'SILVER'});\n            // tokenInfo['RAINBOW_DILOPHOSAURUS'] = TokenInfo({id: 72, mintedAmount: 0, totalAmount: 2, tier: 'SILVER'});\n            // tokenInfo['RAINBOW_STEGOSAURUS'] = TokenInfo({id: 73, mintedAmount: 0, totalAmount: 2, tier: 'SILVER'});\n            // tokenInfo['RAINBOW_VELOCIRAPTOR'] = TokenInfo({id: 74, mintedAmount: 0, totalAmount: 2, tier: 'SILVER'});\n            // tokenInfo['RAINBOW_MAMMOTH'] = TokenInfo({id: 75, mintedAmount: 0, totalAmount: 5, tier: 'SILVER'});\n            // tokenInfo['RAINBOW_SABRETOOTH_TIGER'] = TokenInfo({id: 76, mintedAmount: 0, totalAmount: 5, tier: 'SILVER'});\n            // tokenInfo['RAINBOW_GORILLA'] = TokenInfo({id: 77, mintedAmount: 0, totalAmount: 5, tier: 'SILVER'});\n            // tokenInfo['RAINBOW_HIPPO'] = TokenInfo({id: 78, mintedAmount: 0, totalAmount: 5, tier: 'SILVER'});\n            // tokenInfo['8_BIT_T_REX'] = TokenInfo({id: 79, mintedAmount: 0, totalAmount: 150, tier: 'SILVER'});\n            // tokenInfo['8_BIT_TRICERATOPS'] = TokenInfo({id: 80, mintedAmount: 0, totalAmount: 150, tier: 'SILVER'});\n            // tokenInfo['8_BIT_DILOPHOSAURUS'] = TokenInfo({id: 81, mintedAmount: 0, totalAmount: 150, tier: 'SILVER'});\n            // tokenInfo['8_BIT_STEGOSAURUS'] = TokenInfo({id: 82, mintedAmount: 0, totalAmount: 150, tier: 'SILVER'});\n            // tokenInfo['8_BIT_VELOCIRAPTOR'] = TokenInfo({id: 83, mintedAmount: 0, totalAmount: 150, tier: 'SILVER'});\n            // tokenInfo['8_BIT_MAMMOTH'] = TokenInfo({id: 84, mintedAmount: 0, totalAmount: 195, tier: 'SILVER'});\n            // tokenInfo['8_BIT_SABRETOOTH_TIGER'] = TokenInfo({id: 85, mintedAmount: 0, totalAmount: 195, tier: 'SILVER'});\n            // tokenInfo['8_BIT_GORILLA'] = TokenInfo({id: 86, mintedAmount: 0, totalAmount: 195, tier: 'SILVER'});\n            // tokenInfo['8_BIT_HIPPO'] = TokenInfo({id: 87, mintedAmount: 0, totalAmount: 195, tier: 'SILVER'});\n            // tokenInfo['8_BIT_SELECT_PLAYER_1'] = TokenInfo({id: 88, mintedAmount: 0, totalAmount: 20, tier: 'SILVER'});\n            // tokenInfo['8_BIT_SELECT_PLAYER_2'] = TokenInfo({id: 89, mintedAmount: 0, totalAmount: 20, tier: 'SILVER'});\n            // tokenInfo['8_BIT_SELECT_PLAYER_3'] = TokenInfo({id: 90, mintedAmount: 0, totalAmount: 20, tier: 'SILVER'});\n            // tokenInfo['8_BIT_SELECT_PLAYER_4'] = TokenInfo({id: 91, mintedAmount: 0, totalAmount: 20, tier: 'SILVER'});\n            // tokenInfo['8_BIT_SELECT_PLAYER_5'] = TokenInfo({id: 92, mintedAmount: 0, totalAmount: 20, tier: 'SILVER'});\n            // Gold ASDW cards\n            tokenInfo['VELOCIRAPTOR'] = TokenInfo({id: 93, mintedAmount: 0, totalAmount: 100, tier: 'GOLD'});\n            tokenInfo['DILOPHOSAURUS'] = TokenInfo({id: 94, mintedAmount: 0, totalAmount: 100, tier: 'GOLD'});\n            tokenInfo['TRICERATOPS'] = TokenInfo({id: 95, mintedAmount: 0, totalAmount: 100, tier: 'GOLD'});\n            tokenInfo['STEGOSAURUS'] = TokenInfo({id: 96, mintedAmount: 0, totalAmount: 100, tier: 'GOLD'});\n            tokenInfo['TYRANNOSAUR'] = TokenInfo({id: 97, mintedAmount: 0, totalAmount: 100, tier: 'GOLD'});\n            tokenInfo['TYRANNOSAUR_WITH_LASER_EYES'] = TokenInfo({id: 98, mintedAmount: 0, totalAmount: 40, tier: 'GOLD'});\n            tokenInfo['MAMMAL_KING'] = TokenInfo({id: 99, mintedAmount: 0, totalAmount: 35, tier: 'GOLD'});\n            tokenInfo['CYBERSHARK'] = TokenInfo({id: 100, mintedAmount: 0, totalAmount: 25, tier: 'GOLD'});\n            // Diamond ASDW cards\n            tokenInfo['DIAMOND'] = TokenInfo({id: 101, mintedAmount: 0, totalAmount: 1, tier: 'DIAMOND'});\n            currentTokenId = 102;\n            // Diamond minted by Envoy for direct auction\n            _mint('DIAMOND', '');\n    }\n\n  //\n  // ******************* OWNERSHIP *******************\n  //\n\n    function updateWallet(address wallet_) external onlyOwner {\n        wallet = wallet_; \n    }\n\n    /**\n     * @notice Function for the owner to change the link to legal terms.\n     * @param legalTerms_ The link to the legal terms.\n     */\n    function setLegalTerms(string memory legalTerms_) external onlyOwner{\n        legalTerms = legalTerms_;\n    }\n\n    // Functions to manage tiers\n    \n    /**\n     * Functions to create new tiers, or to modify price and mintable of existing tier.\n     * Drop waves cannot be altered, and should always be higher than the latest drop wave.\n     */\n\n    function addTier(\n        bytes32 name,\n        uint256 price_,\n        uint256 mintable_,\n        uint256 dropWave_,\n        bytes32 tokenToBurn_) external onlyOwner{\n        \n        require(dropWave_ >= latestDropWave,\n            \"You cannot go back in time\");\n\n        require(tiers[name].dropWave == 0,\n            \"Tier already exists\");\n        \n\n        tiers[name] = Tier({price: price_,\n                            mintable: mintable_,\n                            dropWave: dropWave_,\n                            tokenToBurn: tokenToBurn_});\n\n        if (dropWave_ > latestDropWave) {\n            latestDropWave++;\n        }\n    }\n\n    function setTierMintability(\n        bytes32 name,\n        uint256 mintable_) external onlyOwner{\n            tiers[name].mintable = mintable_;\n    }\n\n    function setTierPrice(\n        bytes32 name,\n        uint256 price_) external onlyOwner{\n            tiers[name].price = price_;\n    }\n\n\n    /**\n     * Function to add new tokens.\n     * New Tokens should always\n     */\n    function addToken(bytes32 name,\n        uint256 totalAmount_,\n        bytes32 tier_) external onlyOwner{\n        \n        require(tokenInfo[name].totalAmount == 0,\n            \"Token already exists\");\n\n        // Implicit test if tier exists\n        require(tiers[tier_].dropWave >= latestDropWave,\n            \"You cannot add tokens for previous waves\");\n\n        tokenInfo[name] = TokenInfo({id: currentTokenId,\n                                    mintedAmount: 0,\n                                    totalAmount: totalAmount_,\n                                    tier: tier_\n                                    });\n        \n        currentTokenId++;\n    }\n\n    /**\n     * Add new tokens of an existing token\n     * @param name the name of the token to add\n     * @param additionalTokenAmount the amount of tokens to add\n     */\n    function increaseTokenAmount(bytes32 name,\n        uint256 additionalTokenAmount) external onlyOwner{\n        tokenInfo[name].totalAmount += additionalTokenAmount;\n    }\n\n    /**\n     * Function to mint tokens.\n     * In order to mint tokens, following criteria must be met:\n     *   - You must provide a token\n     */\n    function _mint(bytes32 tokenToMint, bytes32 tokenToUse) public payable {\n\n        address account = _msgSender();\n        TokenInfo storage tokenToMintObject = tokenInfo[tokenToMint];\n\n\n        require(tokenToMintObject.totalAmount > tokenToMintObject.mintedAmount,\n            \"All tokens are already minted for this ID!\");\n        \n        Tier storage tierToMint = tiers[tokenToMintObject.tier];\n\n        // Check if everyone is allowed to mint.\n        // If not, check if the token provided gives the right to mint,\n        // and burn it if this is required.\n        if(tierToMint.mintable <= latestDropWave){\n\n            TokenInfo storage tokenToUseObject = tokenInfo[tokenToUse];\n            Tier storage tierToUse = tiers[tokenToUseObject.tier];\n            require(ERC1155.balanceOf(account, tokenToUseObject.id) > 0,\n                \"You have no balance of the access token provided.\");\n\n            // Check if the token provided gives minting access\n            require((tierToMint.mintable != 0) &&\n                    ((tierToMint.mintable >= tierToUse.dropWave) || tierToMint.mintable == latestDropWave),\n                    \"You are not allowed to mint this token at this point in time.\");\n            \n            // Check if the token needs to be burned before being able to mint\n            if(tierToMint.tokenToBurn == tokenToUse){\n                ERC1155._burn(account, tokenToUseObject.id, 1);\n            }\n        }\n\n        if(tierToMint.price > 0){\n            uint256 weiAmount = msg.value;\n            require(weiAmount == tierToMint.price, \"Invalid ETH paid\");\n            // Send ETH to wallet\n            payable(wallet).transfer(weiAmount);\n        }\n\n\n        ERC1155._mint(account, tokenToMintObject.id, 1, \"\");\n\n        tokenToMintObject.mintedAmount++;\n        emit Minted(account, tokenToMint, tokenToMintObject.mintedAmount);\n\n    }\n\n    function _mint(bytes32 tokenToMint) public payable {\n        _mint(tokenToMint, '');\n    }\n    // Disable minting inherited from ERC1155\n    function _mint (\n        address account,\n        uint256 id,\n        uint256 amount,\n        bytes memory data) internal override pure {\n        revert(\"This function should be called with 2 bytes32 parameters\");\n    }\n\n    function _mintBatch(\n        address to,\n        uint256[] memory ids,\n        uint256[] memory amounts,\n        bytes memory data) internal override pure {\n        revert(\"This contract does not mint batches.\");\n    }\n    // /**\n    //  * Function to mint token.\n    //  * If the event is not active, accesstickets are minted.\n    //  * If it is active, NFT's are minted.\n    //  */\n    // function _mint() external {\n    //     if(dinoConActive == false){\n    //         _mintAccessTicket();\n    //     } else {\n    //         _mintCard();\n    //     }\n    // }\n\n    // /**\n    //  * Mint accesstickets 1 at a time.\n    //  */\n    // function _mintAccessTicket() private {\n\n    //     require(maxAmount > currentAccessTicketAmount,\n    //         \"All access cards are already assinged!\");\n        \n    //     uint256 weiAmount = msg.value;\n    //     require(weiAmount == price, \"Invalid ETH paid\");\n\n    //     // Send ETH to wallet\n    //     payable(wallet).transfer(weiAmount);\n\n    //     address account = _msgSender();\n\n    //     ERC1155._mint(account, ACCESS_TICKET, 1, \"\");\n        \n    //     currentAccessTicketAmount++; \n    // }\n\n    // /**\n    //  * Function to mint token.\n    //  * The token ID will be linked to a randomly assigned card..\n    //  * Randomness will be provided off-chain.\n    //  * You need to have an access ticket before you can mint,\n    //  * and you can only mint once with each address.\n    //  */\n    // function _mintCard(id) private{\n\n    //     require(maxAmount > currentTokenAmount,\n    //         \"All tokens are already minted\");\n\n    //     address account = _msgSender();\n    //     //\n    //     require(ERC1155.balanceOf(account, ACCESS_TICKET) > 0,\n    //         \"You need an access ticket to mint your NFT\");\n    //     require(ticketUsed[account] == false,\n    //         \"You already used your ticket\");\n\n    //     // Increment up front to skip token 0\n    //     currentTokenAmount++; \n\n    //     // Use one access ticket and mint an NFT\n    //     ticketUsed[account] = true;\n    //     ERC1155._burn(account, ACCESS_TICKET, 1, \"\");\n        \n    //     ERC1155._mint(account, currentTokenAmount, 1, \"\");\n\n    //     emit Minted(account, currentTokenAmount);\n    // }\n\n\n\n}",
  "sourcePath": "/Users/Baas/repos/envoy/repos/dinowars/Contracts/contracts/DinoWarriorsDev.sol",
  "compiler": {
    "name": "solc",
    "version": "0.8.0+commit.c7dfd78e.Emscripten.clang"
  },
  "schemaVersion": "3.4.2",
  "updatedAt": "2021-09-13T19:05:48.180Z",
  "devdoc": {
    "kind": "dev",
    "methods": {
      "balanceOf(address,uint256)": {
        "details": "See {IERC1155-balanceOf}. Requirements: - `account` cannot be the zero address."
      },
      "balanceOfBatch(address[],uint256[])": {
        "details": "See {IERC1155-balanceOfBatch}. Requirements: - `accounts` and `ids` must have the same length."
      },
      "increaseTokenAmount(bytes32,uint256)": {
        "params": {
          "additionalTokenAmount": "the amount of tokens to add",
          "name": "the name of the token to add"
        }
      },
      "isApprovedForAll(address,address)": {
        "details": "See {IERC1155-isApprovedForAll}."
      },
      "owner()": {
        "details": "Returns the address of the current owner."
      },
      "renounceOwnership()": {
        "details": "Leaves the contract without owner. It will not be possible to call `onlyOwner` functions anymore. Can only be called by the current owner. NOTE: Renouncing ownership will leave the contract without an owner, thereby removing any functionality that is only available to the owner."
      },
      "safeBatchTransferFrom(address,address,uint256[],uint256[],bytes)": {
        "details": "See {IERC1155-safeBatchTransferFrom}."
      },
      "safeTransferFrom(address,address,uint256,uint256,bytes)": {
        "details": "See {IERC1155-safeTransferFrom}."
      },
      "setApprovalForAll(address,bool)": {
        "details": "See {IERC1155-setApprovalForAll}."
      },
      "setLegalTerms(string)": {
        "params": {
          "legalTerms_": "The link to the legal terms."
        }
      },
      "supportsInterface(bytes4)": {
        "details": "See {IERC165-supportsInterface}."
      },
      "transferOwnership(address)": {
        "details": "Transfers ownership of the contract to a new account (`newOwner`). Can only be called by the current owner."
      },
      "uri(uint256)": {
        "details": "See {IERC1155MetadataURI-uri}. This implementation returns the same URI for *all* token types. It relies on the token type ID substitution mechanism https://eips.ethereum.org/EIPS/eip-1155#metadata[defined in the EIP]. Clients calling this function must replace the `\\{id\\}` substring with the actual token type ID."
      }
    },
    "version": 1
  },
  "userdoc": {
    "kind": "user",
    "methods": {
      "_mint(bytes32,bytes32)": {
        "notice": "Function to mint tokens. In order to mint tokens, following criteria must be met:   - You must provide a token"
      },
      "addTier(bytes32,uint256,uint256,uint256,bytes32)": {
        "notice": "Functions to create new tiers, or to modify price and mintable of existing tier. Drop waves cannot be altered, and should always be higher than the latest drop wave."
      },
      "addToken(bytes32,uint256,bytes32)": {
        "notice": "Function to add new tokens. New Tokens should always"
      },
      "increaseTokenAmount(bytes32,uint256)": {
        "notice": "Add new tokens of an existing token"
      },
      "setLegalTerms(string)": {
        "notice": "Function for the owner to change the link to legal terms."
      }
    },
    "notice": "Only limited personal non-commercial use and resale rights in the NFT are granted and all copyright and other rights are reserved. The terms and conditions of Alien Samurai Dino Warriors (https://dinowarriors.io) are applicable.",
    "version": 1
  }
}