{
  "contractName": "DinoWarriors",
  "abi": [
    {
      "inputs": [
        {
          "internalType": "string",
          "name": "uri_",
          "type": "string"
        },
        {
          "internalType": "string",
          "name": "contractURI_",
          "type": "string"
        }
      ],
      "stateMutability": "nonpayable",
      "type": "constructor"
    },
    {
      "anonymous": false,
      "inputs": [
        {
          "indexed": true,
          "internalType": "address",
          "name": "account",
          "type": "address"
        },
        {
          "indexed": true,
          "internalType": "address",
          "name": "operator",
          "type": "address"
        },
        {
          "indexed": false,
          "internalType": "bool",
          "name": "approved",
          "type": "bool"
        }
      ],
      "name": "ApprovalForAll",
      "type": "event"
    },
    {
      "anonymous": false,
      "inputs": [
        {
          "indexed": true,
          "internalType": "address",
          "name": "previousOwner",
          "type": "address"
        },
        {
          "indexed": true,
          "internalType": "address",
          "name": "newOwner",
          "type": "address"
        }
      ],
      "name": "OwnershipTransferred",
      "type": "event"
    },
    {
      "anonymous": false,
      "inputs": [
        {
          "indexed": true,
          "internalType": "address",
          "name": "operator",
          "type": "address"
        },
        {
          "indexed": true,
          "internalType": "address",
          "name": "from",
          "type": "address"
        },
        {
          "indexed": true,
          "internalType": "address",
          "name": "to",
          "type": "address"
        },
        {
          "indexed": false,
          "internalType": "uint256[]",
          "name": "ids",
          "type": "uint256[]"
        },
        {
          "indexed": false,
          "internalType": "uint256[]",
          "name": "values",
          "type": "uint256[]"
        }
      ],
      "name": "TransferBatch",
      "type": "event"
    },
    {
      "anonymous": false,
      "inputs": [
        {
          "indexed": true,
          "internalType": "address",
          "name": "operator",
          "type": "address"
        },
        {
          "indexed": true,
          "internalType": "address",
          "name": "from",
          "type": "address"
        },
        {
          "indexed": true,
          "internalType": "address",
          "name": "to",
          "type": "address"
        },
        {
          "indexed": false,
          "internalType": "uint256",
          "name": "id",
          "type": "uint256"
        },
        {
          "indexed": false,
          "internalType": "uint256",
          "name": "value",
          "type": "uint256"
        }
      ],
      "name": "TransferSingle",
      "type": "event"
    },
    {
      "anonymous": false,
      "inputs": [
        {
          "indexed": false,
          "internalType": "string",
          "name": "value",
          "type": "string"
        },
        {
          "indexed": true,
          "internalType": "uint256",
          "name": "id",
          "type": "uint256"
        }
      ],
      "name": "URI",
      "type": "event"
    },
    {
      "inputs": [
        {
          "internalType": "address",
          "name": "account",
          "type": "address"
        },
        {
          "internalType": "uint256",
          "name": "id",
          "type": "uint256"
        }
      ],
      "name": "balanceOf",
      "outputs": [
        {
          "internalType": "uint256",
          "name": "",
          "type": "uint256"
        }
      ],
      "stateMutability": "view",
      "type": "function"
    },
    {
      "inputs": [
        {
          "internalType": "address[]",
          "name": "accounts",
          "type": "address[]"
        },
        {
          "internalType": "uint256[]",
          "name": "ids",
          "type": "uint256[]"
        }
      ],
      "name": "balanceOfBatch",
      "outputs": [
        {
          "internalType": "uint256[]",
          "name": "",
          "type": "uint256[]"
        }
      ],
      "stateMutability": "view",
      "type": "function"
    },
    {
      "inputs": [
        {
          "internalType": "address",
          "name": "account",
          "type": "address"
        },
        {
          "internalType": "address",
          "name": "operator",
          "type": "address"
        }
      ],
      "name": "isApprovedForAll",
      "outputs": [
        {
          "internalType": "bool",
          "name": "",
          "type": "bool"
        }
      ],
      "stateMutability": "view",
      "type": "function"
    },
    {
      "inputs": [],
      "name": "latestDropWave",
      "outputs": [
        {
          "internalType": "uint128",
          "name": "",
          "type": "uint128"
        }
      ],
      "stateMutability": "view",
      "type": "function"
    },
    {
      "inputs": [],
      "name": "latestWhitelistWave",
      "outputs": [
        {
          "internalType": "uint128",
          "name": "",
          "type": "uint128"
        }
      ],
      "stateMutability": "view",
      "type": "function"
    },
    {
      "inputs": [],
      "name": "legalTerms",
      "outputs": [
        {
          "internalType": "string",
          "name": "",
          "type": "string"
        }
      ],
      "stateMutability": "view",
      "type": "function"
    },
    {
      "inputs": [],
      "name": "owner",
      "outputs": [
        {
          "internalType": "address",
          "name": "",
          "type": "address"
        }
      ],
      "stateMutability": "view",
      "type": "function"
    },
    {
      "inputs": [],
      "name": "renounceOwnership",
      "outputs": [],
      "stateMutability": "nonpayable",
      "type": "function"
    },
    {
      "inputs": [
        {
          "internalType": "address",
          "name": "from",
          "type": "address"
        },
        {
          "internalType": "address",
          "name": "to",
          "type": "address"
        },
        {
          "internalType": "uint256[]",
          "name": "ids",
          "type": "uint256[]"
        },
        {
          "internalType": "uint256[]",
          "name": "amounts",
          "type": "uint256[]"
        },
        {
          "internalType": "bytes",
          "name": "data",
          "type": "bytes"
        }
      ],
      "name": "safeBatchTransferFrom",
      "outputs": [],
      "stateMutability": "nonpayable",
      "type": "function"
    },
    {
      "inputs": [
        {
          "internalType": "address",
          "name": "from",
          "type": "address"
        },
        {
          "internalType": "address",
          "name": "to",
          "type": "address"
        },
        {
          "internalType": "uint256",
          "name": "id",
          "type": "uint256"
        },
        {
          "internalType": "uint256",
          "name": "amount",
          "type": "uint256"
        },
        {
          "internalType": "bytes",
          "name": "data",
          "type": "bytes"
        }
      ],
      "name": "safeTransferFrom",
      "outputs": [],
      "stateMutability": "nonpayable",
      "type": "function"
    },
    {
      "inputs": [
        {
          "internalType": "address",
          "name": "operator",
          "type": "address"
        },
        {
          "internalType": "bool",
          "name": "approved",
          "type": "bool"
        }
      ],
      "name": "setApprovalForAll",
      "outputs": [],
      "stateMutability": "nonpayable",
      "type": "function"
    },
    {
      "inputs": [
        {
          "internalType": "bytes4",
          "name": "interfaceId",
          "type": "bytes4"
        }
      ],
      "name": "supportsInterface",
      "outputs": [
        {
          "internalType": "bool",
          "name": "",
          "type": "bool"
        }
      ],
      "stateMutability": "view",
      "type": "function"
    },
    {
      "inputs": [
        {
          "internalType": "bytes32",
          "name": "",
          "type": "bytes32"
        }
      ],
      "name": "tiers",
      "outputs": [
        {
          "internalType": "uint256",
          "name": "price",
          "type": "uint256"
        },
        {
          "internalType": "uint128",
          "name": "mintable",
          "type": "uint128"
        },
        {
          "internalType": "uint128",
          "name": "dropWave",
          "type": "uint128"
        },
        {
          "internalType": "uint256",
          "name": "tokenToBurn",
          "type": "uint256"
        },
        {
          "internalType": "uint256",
          "name": "maxMintPerTransaction",
          "type": "uint256"
        },
        {
          "internalType": "bool",
          "name": "whitelist",
          "type": "bool"
        }
      ],
      "stateMutability": "view",
      "type": "function"
    },
    {
      "inputs": [
        {
          "internalType": "uint256",
          "name": "",
          "type": "uint256"
        }
      ],
      "name": "tokenInfo",
      "outputs": [
        {
          "internalType": "uint256",
          "name": "mintedAmount",
          "type": "uint256"
        },
        {
          "internalType": "uint256",
          "name": "totalAmount",
          "type": "uint256"
        },
        {
          "internalType": "bytes32",
          "name": "tier",
          "type": "bytes32"
        }
      ],
      "stateMutability": "view",
      "type": "function"
    },
    {
      "inputs": [
        {
          "internalType": "address",
          "name": "newOwner",
          "type": "address"
        }
      ],
      "name": "transferOwnership",
      "outputs": [],
      "stateMutability": "nonpayable",
      "type": "function"
    },
    {
      "inputs": [
        {
          "internalType": "uint256",
          "name": "",
          "type": "uint256"
        }
      ],
      "name": "uri",
      "outputs": [
        {
          "internalType": "string",
          "name": "",
          "type": "string"
        }
      ],
      "stateMutability": "view",
      "type": "function"
    },
    {
      "inputs": [],
      "name": "wallet",
      "outputs": [
        {
          "internalType": "address",
          "name": "",
          "type": "address"
        }
      ],
      "stateMutability": "view",
      "type": "function"
    },
    {
      "inputs": [
        {
          "internalType": "uint128",
          "name": "",
          "type": "uint128"
        },
        {
          "internalType": "address",
          "name": "",
          "type": "address"
        }
      ],
      "name": "whitelist",
      "outputs": [
        {
          "internalType": "uint256",
          "name": "",
          "type": "uint256"
        }
      ],
      "stateMutability": "view",
      "type": "function"
    },
    {
      "inputs": [
        {
          "internalType": "string",
          "name": "uri_",
          "type": "string"
        }
      ],
      "name": "setContractURI",
      "outputs": [],
      "stateMutability": "nonpayable",
      "type": "function"
    },
    {
      "inputs": [
        {
          "internalType": "address",
          "name": "wallet_",
          "type": "address"
        }
      ],
      "name": "updateWallet",
      "outputs": [],
      "stateMutability": "nonpayable",
      "type": "function"
    },
    {
      "inputs": [
        {
          "internalType": "string",
          "name": "legalTerms_",
          "type": "string"
        }
      ],
      "name": "setLegalTerms",
      "outputs": [],
      "stateMutability": "nonpayable",
      "type": "function"
    },
    {
      "inputs": [
        {
          "internalType": "bytes32",
          "name": "token",
          "type": "bytes32"
        }
      ],
      "name": "tokenInfoFromBytes32",
      "outputs": [
        {
          "internalType": "uint256",
          "name": "id",
          "type": "uint256"
        },
        {
          "internalType": "uint256",
          "name": "mintedAmount",
          "type": "uint256"
        },
        {
          "internalType": "uint256",
          "name": "totalAmount",
          "type": "uint256"
        },
        {
          "internalType": "bytes32",
          "name": "tier",
          "type": "bytes32"
        }
      ],
      "stateMutability": "view",
      "type": "function"
    },
    {
      "inputs": [
        {
          "internalType": "bytes32",
          "name": "name",
          "type": "bytes32"
        },
        {
          "internalType": "uint256",
          "name": "price_",
          "type": "uint256"
        },
        {
          "internalType": "uint128",
          "name": "mintable_",
          "type": "uint128"
        },
        {
          "internalType": "uint128",
          "name": "dropWave_",
          "type": "uint128"
        },
        {
          "internalType": "bytes32",
          "name": "tokenToBurn_",
          "type": "bytes32"
        },
        {
          "internalType": "uint256",
          "name": "maxMintPerTransaction_",
          "type": "uint256"
        },
        {
          "internalType": "bool",
          "name": "whitelist_",
          "type": "bool"
        }
      ],
      "name": "addTier",
      "outputs": [],
      "stateMutability": "nonpayable",
      "type": "function"
    },
    {
      "inputs": [
        {
          "internalType": "bytes32",
          "name": "name",
          "type": "bytes32"
        },
        {
          "internalType": "uint128",
          "name": "mintable_",
          "type": "uint128"
        }
      ],
      "name": "setTierMintability",
      "outputs": [],
      "stateMutability": "nonpayable",
      "type": "function"
    },
    {
      "inputs": [
        {
          "internalType": "bytes32",
          "name": "name",
          "type": "bytes32"
        },
        {
          "internalType": "uint256",
          "name": "price_",
          "type": "uint256"
        }
      ],
      "name": "setTierPrice",
      "outputs": [],
      "stateMutability": "nonpayable",
      "type": "function"
    },
    {
      "inputs": [
        {
          "internalType": "bytes32",
          "name": "name",
          "type": "bytes32"
        },
        {
          "internalType": "uint256",
          "name": "maxMintPerTransaction_",
          "type": "uint256"
        }
      ],
      "name": "setTierMaxMintPerTransaction",
      "outputs": [],
      "stateMutability": "nonpayable",
      "type": "function"
    },
    {
      "inputs": [
        {
          "internalType": "bytes32",
          "name": "name",
          "type": "bytes32"
        },
        {
          "internalType": "bool",
          "name": "whitelist_",
          "type": "bool"
        }
      ],
      "name": "setTierWhitelist",
      "outputs": [],
      "stateMutability": "nonpayable",
      "type": "function"
    },
    {
      "inputs": [
        {
          "internalType": "bytes32",
          "name": "name",
          "type": "bytes32"
        },
        {
          "internalType": "uint256",
          "name": "totalAmount_",
          "type": "uint256"
        },
        {
          "internalType": "bytes32",
          "name": "tier_",
          "type": "bytes32"
        },
        {
          "internalType": "uint256",
          "name": "amountToPreMint",
          "type": "uint256"
        }
      ],
      "name": "addToken",
      "outputs": [],
      "stateMutability": "nonpayable",
      "type": "function"
    },
    {
      "inputs": [
        {
          "internalType": "bytes32[]",
          "name": "names",
          "type": "bytes32[]"
        },
        {
          "internalType": "uint256[]",
          "name": "totalAmounts_",
          "type": "uint256[]"
        },
        {
          "internalType": "bytes32[]",
          "name": "tiers_",
          "type": "bytes32[]"
        },
        {
          "internalType": "uint256[]",
          "name": "amountsToPreMint_",
          "type": "uint256[]"
        }
      ],
      "name": "addTokensBatch",
      "outputs": [],
      "stateMutability": "nonpayable",
      "type": "function"
    },
    {
      "inputs": [
        {
          "internalType": "bytes32",
          "name": "name",
          "type": "bytes32"
        },
        {
          "internalType": "uint256",
          "name": "additionalTokenAmount",
          "type": "uint256"
        }
      ],
      "name": "increaseTokenAmount",
      "outputs": [],
      "stateMutability": "nonpayable",
      "type": "function"
    },
    {
      "inputs": [
        {
          "internalType": "bytes32",
          "name": "tokenToMint",
          "type": "bytes32"
        },
        {
          "internalType": "uint256",
          "name": "amount",
          "type": "uint256"
        },
        {
          "internalType": "bytes32",
          "name": "tokenToUse",
          "type": "bytes32"
        }
      ],
      "name": "_mint",
      "outputs": [],
      "stateMutability": "payable",
      "type": "function"
    },
    {
      "inputs": [
        {
          "internalType": "address[]",
          "name": "to",
          "type": "address[]"
        },
        {
          "internalType": "bool",
          "name": "newWhitelistWave",
          "type": "bool"
        },
        {
          "internalType": "uint256[]",
          "name": "maxAmounts",
          "type": "uint256[]"
        }
      ],
      "name": "updateWhitelist",
      "outputs": [],
      "stateMutability": "nonpayable",
      "type": "function"
    },
    {
      "inputs": [],
      "name": "disableWhitelist",
      "outputs": [],
      "stateMutability": "nonpayable",
      "type": "function"
    }
  ],
  "bytecode": "0x60806040526001600760006101000a8154816fffffffffffffffffffffffffffffffff02191690836fffffffffffffffffffffffffffffffff1602179055506001600760106101000a8154816fffffffffffffffffffffffffffffffff02191690836fffffffffffffffffffffffffffffffff1602179055503480156200008557600080fd5b50604051620066de380380620066de8339818101604052810190620000ab91906200038e565b81620000bd816200018260201b60201c565b50620000de620000d26200019e60201b60201c565b620001a660201b60201c565b620000ee6200019e60201b60201c565b600960006101000a81548173ffffffffffffffffffffffffffffffffffffffff021916908373ffffffffffffffffffffffffffffffffffffffff16021790555060405180610120016040528060e48152602001620065fa60e4913960089080519060200190620001609291906200026c565b5080600a9080519060200190620001799291906200026c565b50505062000532565b80600290805190602001906200019a9291906200026c565b5050565b600033905090565b6000600360009054906101000a900473ffffffffffffffffffffffffffffffffffffffff16905081600360006101000a81548173ffffffffffffffffffffffffffffffffffffffff021916908373ffffffffffffffffffffffffffffffffffffffff1602179055508173ffffffffffffffffffffffffffffffffffffffff168173ffffffffffffffffffffffffffffffffffffffff167f8be0079c531659141344cd1fd0a4f28419497f9722a3daafe3b4186f6b6457e060405160405180910390a35050565b8280546200027a906200049e565b90600052602060002090601f0160209004810192826200029e5760008555620002ea565b82601f10620002b957805160ff1916838001178555620002ea565b82800160010185558215620002ea579182015b82811115620002e9578251825591602001919060010190620002cc565b5b509050620002f99190620002fd565b5090565b5b8082111562000318576000816000905550600101620002fe565b5090565b6000620003336200032d8462000435565b62000401565b9050828152602081018484840111156200034c57600080fd5b6200035984828562000468565b509392505050565b600082601f8301126200037357600080fd5b8151620003858482602086016200031c565b91505092915050565b60008060408385031215620003a257600080fd5b600083015167ffffffffffffffff811115620003bd57600080fd5b620003cb8582860162000361565b925050602083015167ffffffffffffffff811115620003e957600080fd5b620003f78582860162000361565b9150509250929050565b6000604051905081810181811067ffffffffffffffff821117156200042b576200042a62000503565b5b8060405250919050565b600067ffffffffffffffff82111562000453576200045262000503565b5b601f19601f8301169050602081019050919050565b60005b83811015620004885780820151818401526020810190506200046b565b8381111562000498576000848401525b50505050565b60006002820490506001821680620004b757607f821691505b60208210811415620004ce57620004cd620004d4565b5b50919050565b7f4e487b7100000000000000000000000000000000000000000000000000000000600052602260045260246000fd5b7f4e487b7100000000000000000000000000000000000000000000000000000000600052604160045260246000fd5b6160b880620005426000396000f3fe6080604052600436106101ed5760003560e01c80638da5cb5b1161010d578063c79b009a116100a0578063ea44a7531161006f578063ea44a75314610712578063ecc676241461073b578063f242432a14610764578063f2fde38b1461078d578063f3bd629a146107b6576101ed565b8063c79b009a14610654578063cc33c8751461067f578063d6b0f484146106be578063e985e9c5146106d5576101ed565b8063a22cb465116100dc578063a22cb46514610599578063aaec748a146105c2578063ad7feb8d146105eb578063ada5e75614610614576101ed565b80638da5cb5b146104f357806390703ac21461051e578063936a777314610547578063938e3d7b14610570576101ed565b806352ce0e8811610185578063731120fa11610154578063731120fa1461043457806376f7d7de1461045d578063848b86e31461048857806389f902f6146104b1576101ed565b806352ce0e881461038e57806356e4b992146103b7578063588cb702146103f4578063715018a61461041d576101ed565b80632eb2c2d6116101c15780632eb2c2d6146102d257806334645e5f146102fb5780634e1273f414610326578063521eb27314610363576101ed565b8062fdd58e146101f2578063019c18d81461022f57806301ffc9a7146102585780630e89341c14610295575b600080fd5b3480156101fe57600080fd5b5061021960048036038101906102149190614134565b6107d2565b6040516102269190615986565b60405180910390f35b34801561023b57600080fd5b5061025660048036038101906102519190614347565b61089b565b005b34801561026457600080fd5b5061027f600480360381019061027a919061454b565b610949565b60405161028c9190615505565b60405180910390f35b3480156102a157600080fd5b506102bc60048036038101906102b7919061465f565b610a2b565b6040516102c99190615520565b60405180910390f35b3480156102de57600080fd5b506102f960048036038101906102f49190613faa565b610abf565b005b34801561030757600080fd5b50610310610b60565b60405161031d9190615942565b60405180910390f35b34801561033257600080fd5b5061034d60048036038101906103489190614170565b610b82565b60405161035a91906154ac565b60405180910390f35b34801561036f57600080fd5b50610378610d33565b60405161038591906153cf565b60405180910390f35b34801561039a57600080fd5b506103b560048036038101906103b0919061425b565b610d59565b005b3480156103c357600080fd5b506103de60048036038101906103d99190614623565b610f65565b6040516103eb9190615986565b60405180910390f35b34801561040057600080fd5b5061041b600480360381019061041691906143bf565b610f8a565b005b34801561042957600080fd5b50610432611025565b005b34801561044057600080fd5b5061045b60048036038101906104569190614383565b6110ad565b005b34801561046957600080fd5b5061047261117a565b60405161047f9190615942565b60405180910390f35b34801561049457600080fd5b506104af60048036038101906104aa9190613f45565b61119c565b005b3480156104bd57600080fd5b506104d860048036038101906104d3919061431e565b61125c565b6040516104ea969594939291906159a1565b60405180910390f35b3480156104ff57600080fd5b506105086112dd565b60405161051591906153cf565b60405180910390f35b34801561052a57600080fd5b50610545600480360381019061054091906144ad565b611307565b005b34801561055357600080fd5b5061056e600480360381019061056991906143bf565b611670565b005b34801561057c57600080fd5b506105976004803603810190610592919061459d565b611720565b005b3480156105a557600080fd5b506105c060048036038101906105bb91906140f8565b6117b2565b005b3480156105ce57600080fd5b506105e960048036038101906105e491906145e2565b611933565b005b3480156105f757600080fd5b50610612600480360381019061060d91906143bf565b6119c9565b005b34801561062057600080fd5b5061063b6004803603810190610636919061431e565b611a64565b60405161064b9493929190615a62565b60405180910390f35b34801561066057600080fd5b50610669611ac2565b6040516106769190615520565b60405180910390f35b34801561068b57600080fd5b506106a660048036038101906106a1919061465f565b611b50565b6040516106b593929190615a2b565b60405180910390f35b3480156106ca57600080fd5b506106d3611b7a565b005b3480156106e157600080fd5b506106fc60048036038101906106f79190613f6e565b611c5d565b6040516107099190615505565b60405180910390f35b34801561071e57600080fd5b50610739600480360381019061073491906141dc565b611cf1565b005b34801561074757600080fd5b50610762600480360381019061075d919061444a565b611f60565b005b34801561077057600080fd5b5061078b60048036038101906107869190614069565b6121b8565b005b34801561079957600080fd5b506107b460048036038101906107af9190613f45565b612259565b005b6107d060048036038101906107cb91906143fb565b612351565b005b60008073ffffffffffffffffffffffffffffffffffffffff168373ffffffffffffffffffffffffffffffffffffffff161415610843576040517f08c379a000000000000000000000000000000000000000000000000000000000815260040161083a906155c2565b60405180910390fd5b60008083815260200190815260200160002060008473ffffffffffffffffffffffffffffffffffffffff1673ffffffffffffffffffffffffffffffffffffffff16815260200190815260200160002054905092915050565b6108a3612b4a565b73ffffffffffffffffffffffffffffffffffffffff166108c16112dd565b73ffffffffffffffffffffffffffffffffffffffff1614610917576040517f08c379a000000000000000000000000000000000000000000000000000000000815260040161090e90615762565b60405180910390fd5b806006600084815260200190815260200160002060040160006101000a81548160ff0219169083151502179055505050565b60007fd9b67a26000000000000000000000000000000000000000000000000000000007bffffffffffffffffffffffffffffffffffffffffffffffffffffffff1916827bffffffffffffffffffffffffffffffffffffffffffffffffffffffff19161480610a1457507f0e89341c000000000000000000000000000000000000000000000000000000007bffffffffffffffffffffffffffffffffffffffffffffffffffffffff1916827bffffffffffffffffffffffffffffffffffffffffffffffffffffffff1916145b80610a245750610a2382612b52565b5b9050919050565b606060028054610a3a90615de3565b80601f0160208091040260200160405190810160405280929190818152602001828054610a6690615de3565b8015610ab35780601f10610a8857610100808354040283529160200191610ab3565b820191906000526020600020905b815481529060010190602001808311610a9657829003601f168201915b50505050509050919050565b610ac7612b4a565b73ffffffffffffffffffffffffffffffffffffffff168573ffffffffffffffffffffffffffffffffffffffff161480610b0d5750610b0c85610b07612b4a565b611c5d565b5b610b4c576040517f08c379a0000000000000000000000000000000000000000000000000000000008152600401610b4390615702565b60405180910390fd5b610b598585858585612bbc565b5050505050565b600760109054906101000a90046fffffffffffffffffffffffffffffffff1681565b60608151835114610bc8576040517f08c379a0000000000000000000000000000000000000000000000000000000008152600401610bbf906158e2565b60405180910390fd5b6000835167ffffffffffffffff811115610c0b577f4e487b7100000000000000000000000000000000000000000000000000000000600052604160045260246000fd5b604051908082528060200260200182016040528015610c395781602001602082028036833780820191505090505b50905060005b8451811015610d2857610cd2858281518110610c84577f4e487b7100000000000000000000000000000000000000000000000000000000600052603260045260246000fd5b6020026020010151858381518110610cc5577f4e487b7100000000000000000000000000000000000000000000000000000000600052603260045260246000fd5b60200260200101516107d2565b828281518110610d0b577f4e487b7100000000000000000000000000000000000000000000000000000000600052603260045260246000fd5b60200260200101818152505080610d2190615e4e565b9050610c3f565b508091505092915050565b600960009054906101000a900473ffffffffffffffffffffffffffffffffffffffff1681565b610d61612b4a565b73ffffffffffffffffffffffffffffffffffffffff16610d7f6112dd565b73ffffffffffffffffffffffffffffffffffffffff1614610dd5576040517f08c379a0000000000000000000000000000000000000000000000000000000008152600401610dcc90615762565b60405180910390fd5b82518451148015610de7575081518451145b8015610df4575080518451145b610e33576040517f08c379a0000000000000000000000000000000000000000000000000000000008152600401610e2a906156c2565b60405180910390fd5b60005b8451811015610f5e57610f4b858281518110610e7b577f4e487b7100000000000000000000000000000000000000000000000000000000600052603260045260246000fd5b6020026020010151858381518110610ebc577f4e487b7100000000000000000000000000000000000000000000000000000000600052603260045260246000fd5b6020026020010151858481518110610efd577f4e487b7100000000000000000000000000000000000000000000000000000000600052603260045260246000fd5b6020026020010151858581518110610f3e577f4e487b7100000000000000000000000000000000000000000000000000000000600052603260045260246000fd5b6020026020010151611f60565b8080610f5690615e4e565b915050610e36565b5050505050565b6005602052816000526040600020602052806000526040600020600091509150505481565b610f92612b4a565b73ffffffffffffffffffffffffffffffffffffffff16610fb06112dd565b73ffffffffffffffffffffffffffffffffffffffff1614611006576040517f08c379a0000000000000000000000000000000000000000000000000000000008152600401610ffd90615762565b60405180910390fd5b8060066000848152602001908152602001600020600301819055505050565b61102d612b4a565b73ffffffffffffffffffffffffffffffffffffffff1661104b6112dd565b73ffffffffffffffffffffffffffffffffffffffff16146110a1576040517f08c379a000000000000000000000000000000000000000000000000000000000815260040161109890615762565b60405180910390fd5b6110ab6000612f1c565b565b6110b5612b4a565b73ffffffffffffffffffffffffffffffffffffffff166110d36112dd565b73ffffffffffffffffffffffffffffffffffffffff1614611129576040517f08c379a000000000000000000000000000000000000000000000000000000000815260040161112090615762565b60405180910390fd5b806006600084815260200190815260200160002060010160006101000a8154816fffffffffffffffffffffffffffffffff02191690836fffffffffffffffffffffffffffffffff1602179055505050565b600760009054906101000a90046fffffffffffffffffffffffffffffffff1681565b6111a4612b4a565b73ffffffffffffffffffffffffffffffffffffffff166111c26112dd565b73ffffffffffffffffffffffffffffffffffffffff1614611218576040517f08c379a000000000000000000000000000000000000000000000000000000000815260040161120f90615762565b60405180910390fd5b80600960006101000a81548173ffffffffffffffffffffffffffffffffffffffff021916908373ffffffffffffffffffffffffffffffffffffffff16021790555050565b60066020528060005260406000206000915090508060000154908060010160009054906101000a90046fffffffffffffffffffffffffffffffff16908060010160109054906101000a90046fffffffffffffffffffffffffffffffff16908060020154908060030154908060040160009054906101000a900460ff16905086565b6000600360009054906101000a900473ffffffffffffffffffffffffffffffffffffffff16905090565b61130f612b4a565b73ffffffffffffffffffffffffffffffffffffffff1661132d6112dd565b73ffffffffffffffffffffffffffffffffffffffff1614611383576040517f08c379a000000000000000000000000000000000000000000000000000000000815260040161137a90615762565b60405180910390fd5b600760009054906101000a90046fffffffffffffffffffffffffffffffff166fffffffffffffffffffffffffffffffff16846fffffffffffffffffffffffffffffffff161015611408576040517f08c379a00000000000000000000000000000000000000000000000000000000081526004016113ff90615682565b60405180910390fd5b60006006600089815260200190815260200160002060010160109054906101000a90046fffffffffffffffffffffffffffffffff166fffffffffffffffffffffffffffffffff161461148f576040517f08c379a000000000000000000000000000000000000000000000000000000000815260040161148690615882565b60405180910390fd5b6040518060c00160405280878152602001866fffffffffffffffffffffffffffffffff168152602001856fffffffffffffffffffffffffffffffff1681526020018460001c8152602001838152602001821515815250600660008981526020019081526020016000206000820151816000015560208201518160010160006101000a8154816fffffffffffffffffffffffffffffffff02191690836fffffffffffffffffffffffffffffffff16021790555060408201518160010160106101000a8154816fffffffffffffffffffffffffffffffff02191690836fffffffffffffffffffffffffffffffff160217905550606082015181600201556080820151816003015560a08201518160040160006101000a81548160ff021916908315150217905550905050600760009054906101000a90046fffffffffffffffffffffffffffffffff166fffffffffffffffffffffffffffffffff16846fffffffffffffffffffffffffffffffff161115611667576007600081819054906101000a90046fffffffffffffffffffffffffffffffff168092919061162f90615e15565b91906101000a8154816fffffffffffffffffffffffffffffffff02191690836fffffffffffffffffffffffffffffffff160217905550505b50505050505050565b611678612b4a565b73ffffffffffffffffffffffffffffffffffffffff166116966112dd565b73ffffffffffffffffffffffffffffffffffffffff16146116ec576040517f08c379a00000000000000000000000000000000000000000000000000000000081526004016116e390615762565b60405180910390fd5b80600460008460001c815260200190815260200160002060010160008282546117159190615c2d565b925050819055505050565b611728612b4a565b73ffffffffffffffffffffffffffffffffffffffff166117466112dd565b73ffffffffffffffffffffffffffffffffffffffff161461179c576040517f08c379a000000000000000000000000000000000000000000000000000000000815260040161179390615762565b60405180910390fd5b8181600a91906117ad929190613a98565b505050565b8173ffffffffffffffffffffffffffffffffffffffff166117d1612b4a565b73ffffffffffffffffffffffffffffffffffffffff161415611828576040517f08c379a000000000000000000000000000000000000000000000000000000000815260040161181f906158c2565b60405180910390fd5b8060016000611835612b4a565b73ffffffffffffffffffffffffffffffffffffffff1673ffffffffffffffffffffffffffffffffffffffff16815260200190815260200160002060008473ffffffffffffffffffffffffffffffffffffffff1673ffffffffffffffffffffffffffffffffffffffff16815260200190815260200160002060006101000a81548160ff0219169083151502179055508173ffffffffffffffffffffffffffffffffffffffff166118e2612b4a565b73ffffffffffffffffffffffffffffffffffffffff167f17307eab39ab6107e8899845ad3d59bd9653f200f220920489ca2b5937696c31836040516119279190615505565b60405180910390a35050565b61193b612b4a565b73ffffffffffffffffffffffffffffffffffffffff166119596112dd565b73ffffffffffffffffffffffffffffffffffffffff16146119af576040517f08c379a00000000000000000000000000000000000000000000000000000000081526004016119a690615762565b60405180910390fd5b80600890805190602001906119c5929190613b1e565b5050565b6119d1612b4a565b73ffffffffffffffffffffffffffffffffffffffff166119ef6112dd565b73ffffffffffffffffffffffffffffffffffffffff1614611a45576040517f08c379a0000000000000000000000000000000000000000000000000000000008152600401611a3c90615762565b60405180910390fd5b8060066000848152602001908152602001600020600001819055505050565b6000806000808460001c93506004600085815260200190815260200160002060000154925060046000858152602001908152602001600020600101549150600460008581526020019081526020016000206002015490509193509193565b60088054611acf90615de3565b80601f0160208091040260200160405190810160405280929190818152602001828054611afb90615de3565b8015611b485780601f10611b1d57610100808354040283529160200191611b48565b820191906000526020600020905b815481529060010190602001808311611b2b57829003601f168201915b505050505081565b60046020528060005260406000206000915090508060000154908060010154908060020154905083565b611b82612b4a565b73ffffffffffffffffffffffffffffffffffffffff16611ba06112dd565b73ffffffffffffffffffffffffffffffffffffffff1614611bf6576040517f08c379a0000000000000000000000000000000000000000000000000000000008152600401611bed90615762565b60405180910390fd5b6007601081819054906101000a90046fffffffffffffffffffffffffffffffff1680929190611c2490615e15565b91906101000a8154816fffffffffffffffffffffffffffffffff02191690836fffffffffffffffffffffffffffffffff16021790555050565b6000600160008473ffffffffffffffffffffffffffffffffffffffff1673ffffffffffffffffffffffffffffffffffffffff16815260200190815260200160002060008373ffffffffffffffffffffffffffffffffffffffff1673ffffffffffffffffffffffffffffffffffffffff16815260200190815260200160002060009054906101000a900460ff16905092915050565b611cf9612b4a565b73ffffffffffffffffffffffffffffffffffffffff16611d176112dd565b73ffffffffffffffffffffffffffffffffffffffff1614611d6d576040517f08c379a0000000000000000000000000000000000000000000000000000000008152600401611d6490615762565b60405180910390fd5b8051835114611db1576040517f08c379a0000000000000000000000000000000000000000000000000000000008152600401611da8906157e2565b60405180910390fd5b600115158215151415611e24576007601081819054906101000a90046fffffffffffffffffffffffffffffffff1680929190611dec90615e15565b91906101000a8154816fffffffffffffffffffffffffffffffff02191690836fffffffffffffffffffffffffffffffff160217905550505b60005b8351811015611f5a57818181518110611e69577f4e487b7100000000000000000000000000000000000000000000000000000000600052603260045260246000fd5b602002602001015160056000600760109054906101000a90046fffffffffffffffffffffffffffffffff166fffffffffffffffffffffffffffffffff166fffffffffffffffffffffffffffffffff1681526020019081526020016000206000868481518110611f01577f4e487b7100000000000000000000000000000000000000000000000000000000600052603260045260246000fd5b602002602001015173ffffffffffffffffffffffffffffffffffffffff1673ffffffffffffffffffffffffffffffffffffffff168152602001908152602001600020819055508080611f5290615e4e565b915050611e27565b50505050565b611f68612b4a565b73ffffffffffffffffffffffffffffffffffffffff16611f866112dd565b73ffffffffffffffffffffffffffffffffffffffff1614611fdc576040517f08c379a0000000000000000000000000000000000000000000000000000000008152600401611fd390615762565b60405180910390fd5b60008460001c9050600060046000838152602001908152602001600020600101541461203d576040517f08c379a000000000000000000000000000000000000000000000000000000000815260040161203490615642565b60405180910390fd5b600760009054906101000a90046fffffffffffffffffffffffffffffffff166fffffffffffffffffffffffffffffffff166006600085815260200190815260200160002060010160109054906101000a90046fffffffffffffffffffffffffffffffff166fffffffffffffffffffffffffffffffff1610156120f4576040517f08c379a00000000000000000000000000000000000000000000000000000000081526004016120eb90615822565b60405180910390fd5b83821115612137576040517f08c379a000000000000000000000000000000000000000000000000000000000815260040161212e906157c2565b60405180910390fd5b60405180606001604052808381526020018581526020018481525060046000838152602001908152602001600020600082015181600001556020820151816001015560408201518160020155905050600082146121b1576121b0612199612b4a565b828460405180602001604052806000815250612fe2565b5b5050505050565b6121c0612b4a565b73ffffffffffffffffffffffffffffffffffffffff168573ffffffffffffffffffffffffffffffffffffffff161480612206575061220585612200612b4a565b611c5d565b5b612245576040517f08c379a000000000000000000000000000000000000000000000000000000000815260040161223c90615662565b60405180910390fd5b6122528585858585613178565b5050505050565b612261612b4a565b73ffffffffffffffffffffffffffffffffffffffff1661227f6112dd565b73ffffffffffffffffffffffffffffffffffffffff16146122d5576040517f08c379a00000000000000000000000000000000000000000000000000000000081526004016122cc90615762565b60405180910390fd5b600073ffffffffffffffffffffffffffffffffffffffff168173ffffffffffffffffffffffffffffffffffffffff161415612345576040517f08c379a000000000000000000000000000000000000000000000000000000000815260040161233c906155e2565b60405180910390fd5b61234e81612f1c565b50565b60008360001c905060008260001c9050600061236b612b4a565b9050600060046000858152602001908152602001600020905060008160010154116123cb576040517f08c379a00000000000000000000000000000000000000000000000000000000081526004016123c2906155a2565b60405180910390fd5b8581600001546123db9190615c2d565b81600101541015612421576040517f08c379a0000000000000000000000000000000000000000000000000000000008152600401612418906157a2565b60405180910390fd5b600060066000836002015481526020019081526020016000206040518060c0016040529081600082015481526020016001820160009054906101000a90046fffffffffffffffffffffffffffffffff166fffffffffffffffffffffffffffffffff166fffffffffffffffffffffffffffffffff1681526020016001820160109054906101000a90046fffffffffffffffffffffffffffffffff166fffffffffffffffffffffffffffffffff166fffffffffffffffffffffffffffffffff16815260200160028201548152602001600382015481526020016004820160009054906101000a900460ff1615151515815250509050600081602001516fffffffffffffffffffffffffffffffff161161256d576040517f08c379a000000000000000000000000000000000000000000000000000000000815260040161256490615622565b60405180910390fd5b86816080015110156125b4576040517f08c379a00000000000000000000000000000000000000000000000000000000081526004016125ab90615862565b60405180910390fd5b600115158160a00151151514156127605760003073ffffffffffffffffffffffffffffffffffffffff166356e4b992600760109054906101000a90046fffffffffffffffffffffffffffffffff1661260a612b4a565b6040518363ffffffff1660e01b815260040161262792919061595d565b60206040518083038186803b15801561263f57600080fd5b505afa158015612653573d6000803e3d6000fd5b505050506040513d601f19601f820116820180604052508101906126779190614688565b116126b7576040517f08c379a00000000000000000000000000000000000000000000000000000000081526004016126ae90615782565b60405180910390fd5b60056000600760109054906101000a90046fffffffffffffffffffffffffffffffff166fffffffffffffffffffffffffffffffff166fffffffffffffffffffffffffffffffff16815260200190815260200160002060008473ffffffffffffffffffffffffffffffffffffffff1673ffffffffffffffffffffffffffffffffffffffff168152602001908152602001600020600081548092919061275a90615db9565b91905055505b600760009054906101000a90046fffffffffffffffffffffffffffffffff166fffffffffffffffffffffffffffffffff1681602001516fffffffffffffffffffffffffffffffff1611612a4a5760006004600086815260200190815260200160002060405180606001604052908160008201548152602001600182015481526020016002820154815250509050600060066000836040015181526020019081526020016000206040518060c0016040529081600082015481526020016001820160009054906101000a90046fffffffffffffffffffffffffffffffff166fffffffffffffffffffffffffffffffff166fffffffffffffffffffffffffffffffff1681526020016001820160109054906101000a90046fffffffffffffffffffffffffffffffff166fffffffffffffffffffffffffffffffff166fffffffffffffffffffffffffffffffff16815260200160028201548152602001600382015481526020016004820160009054906101000a900460ff16151515158152505090506000826020015111612927576040517f08c379a000000000000000000000000000000000000000000000000000000000815260040161291e90615842565b60405180910390fd5b80604001516fffffffffffffffffffffffffffffffff1683602001516fffffffffffffffffffffffffffffffff161015612996576040517f08c379a000000000000000000000000000000000000000000000000000000000815260040161298d906158a2565b60405180910390fd5b60006129a286886107d2565b10156129e3576040517f08c379a00000000000000000000000000000000000000000000000000000000081526004016129da90615802565b60405180910390fd5b8583606001511415612a4757886129fa86886107d2565b1015612a3b576040517f08c379a0000000000000000000000000000000000000000000000000000000008152600401612a32906156a2565b60405180910390fd5b612a4685878b6133fa565b5b50505b6000349050878260000151612a5f9190615c83565b8114612aa0576040517f08c379a0000000000000000000000000000000000000000000000000000000008152600401612a9790615582565b60405180910390fd5b600960009054906101000a900473ffffffffffffffffffffffffffffffffffffffff1673ffffffffffffffffffffffffffffffffffffffff166108fc829081150290604051600060405180830381858888f19350505050158015612b08573d6000803e3d6000fd5b50612b2484878a60405180602001604052806000815250612fe2565b87836000016000828254612b389190615c2d565b92505081905550505050505050505050565b600033905090565b60007f01ffc9a7000000000000000000000000000000000000000000000000000000007bffffffffffffffffffffffffffffffffffffffffffffffffffffffff1916827bffffffffffffffffffffffffffffffffffffffffffffffffffffffff1916149050919050565b8151835114612c00576040517f08c379a0000000000000000000000000000000000000000000000000000000008152600401612bf790615902565b60405180910390fd5b600073ffffffffffffffffffffffffffffffffffffffff168473ffffffffffffffffffffffffffffffffffffffff161415612c70576040517f08c379a0000000000000000000000000000000000000000000000000000000008152600401612c67906156e2565b60405180910390fd5b6000612c7a612b4a565b9050612c8a818787878787613617565b60005b8451811015612e87576000858281518110612cd1577f4e487b7100000000000000000000000000000000000000000000000000000000600052603260045260246000fd5b602002602001015190506000858381518110612d16577f4e487b7100000000000000000000000000000000000000000000000000000000600052603260045260246000fd5b60200260200101519050600080600084815260200190815260200160002060008b73ffffffffffffffffffffffffffffffffffffffff1673ffffffffffffffffffffffffffffffffffffffff16815260200190815260200160002054905081811015612db7576040517f08c379a0000000000000000000000000000000000000000000000000000000008152600401612dae90615742565b60405180910390fd5b81810360008085815260200190815260200160002060008c73ffffffffffffffffffffffffffffffffffffffff1673ffffffffffffffffffffffffffffffffffffffff168152602001908152602001600020819055508160008085815260200190815260200160002060008b73ffffffffffffffffffffffffffffffffffffffff1673ffffffffffffffffffffffffffffffffffffffff1681526020019081526020016000206000828254612e6c9190615c2d565b9250508190555050505080612e8090615e4e565b9050612c8d565b508473ffffffffffffffffffffffffffffffffffffffff168673ffffffffffffffffffffffffffffffffffffffff168273ffffffffffffffffffffffffffffffffffffffff167f4a39dc06d4c0dbc64b70af90fd698a233a518aa5d07e595d983b8c0526c8f7fb8787604051612efe9291906154ce565b60405180910390a4612f1481878787878761361f565b505050505050565b6000600360009054906101000a900473ffffffffffffffffffffffffffffffffffffffff16905081600360006101000a81548173ffffffffffffffffffffffffffffffffffffffff021916908373ffffffffffffffffffffffffffffffffffffffff1602179055508173ffffffffffffffffffffffffffffffffffffffff168173ffffffffffffffffffffffffffffffffffffffff167f8be0079c531659141344cd1fd0a4f28419497f9722a3daafe3b4186f6b6457e060405160405180910390a35050565b600073ffffffffffffffffffffffffffffffffffffffff168473ffffffffffffffffffffffffffffffffffffffff161415613052576040517f08c379a000000000000000000000000000000000000000000000000000000000815260040161304990615922565b60405180910390fd5b600061305c612b4a565b905061307d8160008761306e886137ef565b613077886137ef565b87613617565b8260008086815260200190815260200160002060008773ffffffffffffffffffffffffffffffffffffffff1673ffffffffffffffffffffffffffffffffffffffff16815260200190815260200160002060008282546130dc9190615c2d565b925050819055508473ffffffffffffffffffffffffffffffffffffffff16600073ffffffffffffffffffffffffffffffffffffffff168273ffffffffffffffffffffffffffffffffffffffff167fc3d58168c5ae7397731d063d5bbf3d657854427343f4c083240f7aacaa2d0f62878760405161315a929190615a02565b60405180910390a4613171816000878787876138b5565b5050505050565b600073ffffffffffffffffffffffffffffffffffffffff168473ffffffffffffffffffffffffffffffffffffffff1614156131e8576040517f08c379a00000000000000000000000000000000000000000000000000000000081526004016131df906156e2565b60405180910390fd5b60006131f2612b4a565b9050613212818787613203886137ef565b61320c886137ef565b87613617565b600080600086815260200190815260200160002060008873ffffffffffffffffffffffffffffffffffffffff1673ffffffffffffffffffffffffffffffffffffffff168152602001908152602001600020549050838110156132a9576040517f08c379a00000000000000000000000000000000000000000000000000000000081526004016132a090615742565b60405180910390fd5b83810360008087815260200190815260200160002060008973ffffffffffffffffffffffffffffffffffffffff1673ffffffffffffffffffffffffffffffffffffffff168152602001908152602001600020819055508360008087815260200190815260200160002060008873ffffffffffffffffffffffffffffffffffffffff1673ffffffffffffffffffffffffffffffffffffffff168152602001908152602001600020600082825461335e9190615c2d565b925050819055508573ffffffffffffffffffffffffffffffffffffffff168773ffffffffffffffffffffffffffffffffffffffff168373ffffffffffffffffffffffffffffffffffffffff167fc3d58168c5ae7397731d063d5bbf3d657854427343f4c083240f7aacaa2d0f6288886040516133db929190615a02565b60405180910390a46133f18288888888886138b5565b50505050505050565b600073ffffffffffffffffffffffffffffffffffffffff168373ffffffffffffffffffffffffffffffffffffffff16141561346a576040517f08c379a000000000000000000000000000000000000000000000000000000000815260040161346190615722565b60405180910390fd5b6000613474612b4a565b90506134a481856000613486876137ef565b61348f876137ef565b60405180602001604052806000815250613617565b600080600085815260200190815260200160002060008673ffffffffffffffffffffffffffffffffffffffff1673ffffffffffffffffffffffffffffffffffffffff1681526020019081526020016000205490508281101561353b576040517f08c379a000000000000000000000000000000000000000000000000000000000815260040161353290615602565b60405180910390fd5b82810360008086815260200190815260200160002060008773ffffffffffffffffffffffffffffffffffffffff1673ffffffffffffffffffffffffffffffffffffffff16815260200190815260200160002081905550600073ffffffffffffffffffffffffffffffffffffffff168573ffffffffffffffffffffffffffffffffffffffff168373ffffffffffffffffffffffffffffffffffffffff167fc3d58168c5ae7397731d063d5bbf3d657854427343f4c083240f7aacaa2d0f628787604051613608929190615a02565b60405180910390a45050505050565b505050505050565b61363e8473ffffffffffffffffffffffffffffffffffffffff16613a85565b156137e7578373ffffffffffffffffffffffffffffffffffffffff1663bc197c8187878686866040518663ffffffff1660e01b81526004016136849594939291906153ea565b602060405180830381600087803b15801561369e57600080fd5b505af19250505080156136cf57506040513d601f19601f820116820180604052508101906136cc9190614574565b60015b61375e576136db615f42565b806136e65750613723565b806040517f08c379a000000000000000000000000000000000000000000000000000000000815260040161371a9190615520565b60405180910390fd5b6040517f08c379a000000000000000000000000000000000000000000000000000000000815260040161375590615542565b60405180910390fd5b63bc197c8160e01b7bffffffffffffffffffffffffffffffffffffffffffffffffffffffff1916817bffffffffffffffffffffffffffffffffffffffffffffffffffffffff1916146137e5576040517f08c379a00000000000000000000000000000000000000000000000000000000081526004016137dc90615562565b60405180910390fd5b505b505050505050565b60606000600167ffffffffffffffff811115613834577f4e487b7100000000000000000000000000000000000000000000000000000000600052604160045260246000fd5b6040519080825280602002602001820160405280156138625781602001602082028036833780820191505090505b50905082816000815181106138a0577f4e487b7100000000000000000000000000000000000000000000000000000000600052603260045260246000fd5b60200260200101818152505080915050919050565b6138d48473ffffffffffffffffffffffffffffffffffffffff16613a85565b15613a7d578373ffffffffffffffffffffffffffffffffffffffff1663f23a6e6187878686866040518663ffffffff1660e01b815260040161391a959493929190615452565b602060405180830381600087803b15801561393457600080fd5b505af192505050801561396557506040513d601f19601f820116820180604052508101906139629190614574565b60015b6139f457613971615f42565b8061397c57506139b9565b806040517f08c379a00000000000000000000000000000000000000000000000000000000081526004016139b09190615520565b60405180910390fd5b6040517f08c379a00000000000000000000000000000000000000000000000000000000081526004016139eb90615542565b60405180910390fd5b63f23a6e6160e01b7bffffffffffffffffffffffffffffffffffffffffffffffffffffffff1916817bffffffffffffffffffffffffffffffffffffffffffffffffffffffff191614613a7b576040517f08c379a0000000000000000000000000000000000000000000000000000000008152600401613a7290615562565b60405180910390fd5b505b505050505050565b600080823b905060008111915050919050565b828054613aa490615de3565b90600052602060002090601f016020900481019282613ac65760008555613b0d565b82601f10613adf57803560ff1916838001178555613b0d565b82800160010185558215613b0d579182015b82811115613b0c578235825591602001919060010190613af1565b5b509050613b1a9190613ba4565b5090565b828054613b2a90615de3565b90600052602060002090601f016020900481019282613b4c5760008555613b93565b82601f10613b6557805160ff1916838001178555613b93565b82800160010185558215613b93579182015b82811115613b92578251825591602001919060010190613b77565b5b509050613ba09190613ba4565b5090565b5b80821115613bbd576000816000905550600101613ba5565b5090565b6000613bd4613bcf84615ad8565b615aa7565b90508083825260208201905082856020860282011115613bf357600080fd5b60005b85811015613c235781613c098882613d81565b845260208401935060208301925050600181019050613bf6565b5050509392505050565b6000613c40613c3b84615b04565b615aa7565b90508083825260208201905082856020860282011115613c5f57600080fd5b60005b85811015613c8f5781613c758882613e29565b845260208401935060208301925050600181019050613c62565b5050509392505050565b6000613cac613ca784615b30565b615aa7565b90508083825260208201905082856020860282011115613ccb57600080fd5b60005b85811015613cfb5781613ce18882613f1b565b845260208401935060208301925050600181019050613cce565b5050509392505050565b6000613d18613d1384615b5c565b615aa7565b905082815260208101848484011115613d3057600080fd5b613d3b848285615d77565b509392505050565b6000613d56613d5184615b8c565b615aa7565b905082815260208101848484011115613d6e57600080fd5b613d79848285615d77565b509392505050565b600081359050613d9081615ff8565b92915050565b600082601f830112613da757600080fd5b8135613db7848260208601613bc1565b91505092915050565b600082601f830112613dd157600080fd5b8135613de1848260208601613c2d565b91505092915050565b600082601f830112613dfb57600080fd5b8135613e0b848260208601613c99565b91505092915050565b600081359050613e238161600f565b92915050565b600081359050613e3881616026565b92915050565b600081359050613e4d8161603d565b92915050565b600081519050613e628161603d565b92915050565b600082601f830112613e7957600080fd5b8135613e89848260208601613d05565b91505092915050565b60008083601f840112613ea457600080fd5b8235905067ffffffffffffffff811115613ebd57600080fd5b602083019150836001820283011115613ed557600080fd5b9250929050565b600082601f830112613eed57600080fd5b8135613efd848260208601613d43565b91505092915050565b600081359050613f1581616054565b92915050565b600081359050613f2a8161606b565b92915050565b600081519050613f3f8161606b565b92915050565b600060208284031215613f5757600080fd5b6000613f6584828501613d81565b91505092915050565b60008060408385031215613f8157600080fd5b6000613f8f85828601613d81565b9250506020613fa085828601613d81565b9150509250929050565b600080600080600060a08688031215613fc257600080fd5b6000613fd088828901613d81565b9550506020613fe188828901613d81565b945050604086013567ffffffffffffffff811115613ffe57600080fd5b61400a88828901613dea565b935050606086013567ffffffffffffffff81111561402757600080fd5b61403388828901613dea565b925050608086013567ffffffffffffffff81111561405057600080fd5b61405c88828901613e68565b9150509295509295909350565b600080600080600060a0868803121561408157600080fd5b600061408f88828901613d81565b95505060206140a088828901613d81565b94505060406140b188828901613f1b565b93505060606140c288828901613f1b565b925050608086013567ffffffffffffffff8111156140df57600080fd5b6140eb88828901613e68565b9150509295509295909350565b6000806040838503121561410b57600080fd5b600061411985828601613d81565b925050602061412a85828601613e14565b9150509250929050565b6000806040838503121561414757600080fd5b600061415585828601613d81565b925050602061416685828601613f1b565b9150509250929050565b6000806040838503121561418357600080fd5b600083013567ffffffffffffffff81111561419d57600080fd5b6141a985828601613d96565b925050602083013567ffffffffffffffff8111156141c657600080fd5b6141d285828601613dea565b9150509250929050565b6000806000606084860312156141f157600080fd5b600084013567ffffffffffffffff81111561420b57600080fd5b61421786828701613d96565b935050602061422886828701613e14565b925050604084013567ffffffffffffffff81111561424557600080fd5b61425186828701613dea565b9150509250925092565b6000806000806080858703121561427157600080fd5b600085013567ffffffffffffffff81111561428b57600080fd5b61429787828801613dc0565b945050602085013567ffffffffffffffff8111156142b457600080fd5b6142c087828801613dea565b935050604085013567ffffffffffffffff8111156142dd57600080fd5b6142e987828801613dc0565b925050606085013567ffffffffffffffff81111561430657600080fd5b61431287828801613dea565b91505092959194509250565b60006020828403121561433057600080fd5b600061433e84828501613e29565b91505092915050565b6000806040838503121561435a57600080fd5b600061436885828601613e29565b925050602061437985828601613e14565b9150509250929050565b6000806040838503121561439657600080fd5b60006143a485828601613e29565b92505060206143b585828601613f06565b9150509250929050565b600080604083850312156143d257600080fd5b60006143e085828601613e29565b92505060206143f185828601613f1b565b9150509250929050565b60008060006060848603121561441057600080fd5b600061441e86828701613e29565b935050602061442f86828701613f1b565b925050604061444086828701613e29565b9150509250925092565b6000806000806080858703121561446057600080fd5b600061446e87828801613e29565b945050602061447f87828801613f1b565b935050604061449087828801613e29565b92505060606144a187828801613f1b565b91505092959194509250565b600080600080600080600060e0888a0312156144c857600080fd5b60006144d68a828b01613e29565b97505060206144e78a828b01613f1b565b96505060406144f88a828b01613f06565b95505060606145098a828b01613f06565b945050608061451a8a828b01613e29565b93505060a061452b8a828b01613f1b565b92505060c061453c8a828b01613e14565b91505092959891949750929550565b60006020828403121561455d57600080fd5b600061456b84828501613e3e565b91505092915050565b60006020828403121561458657600080fd5b600061459484828501613e53565b91505092915050565b600080602083850312156145b057600080fd5b600083013567ffffffffffffffff8111156145ca57600080fd5b6145d685828601613e92565b92509250509250929050565b6000602082840312156145f457600080fd5b600082013567ffffffffffffffff81111561460e57600080fd5b61461a84828501613edc565b91505092915050565b6000806040838503121561463657600080fd5b600061464485828601613f06565b925050602061465585828601613d81565b9150509250929050565b60006020828403121561467157600080fd5b600061467f84828501613f1b565b91505092915050565b60006020828403121561469a57600080fd5b60006146a884828501613f30565b91505092915050565b60006146bd83836153b1565b60208301905092915050565b6146d281615cdd565b82525050565b60006146e382615bcc565b6146ed8185615bfa565b93506146f883615bbc565b8060005b8381101561472957815161471088826146b1565b975061471b83615bed565b9250506001810190506146fc565b5085935050505092915050565b61473f81615cef565b82525050565b61474e81615cfb565b82525050565b600061475f82615bd7565b6147698185615c0b565b9350614779818560208601615d86565b61478281615f24565b840191505092915050565b600061479882615be2565b6147a28185615c1c565b93506147b2818560208601615d86565b6147bb81615f24565b840191505092915050565b60006147d3603483615c1c565b91507f455243313135353a207472616e7366657220746f206e6f6e204552433131353560008301527f526563656976657220696d706c656d656e7465720000000000000000000000006020830152604082019050919050565b6000614839602883615c1c565b91507f455243313135353a204552433131353552656365697665722072656a6563746560008301527f6420746f6b656e730000000000000000000000000000000000000000000000006020830152604082019050919050565b600061489f601083615c1c565b91507f496e76616c6964204554482070616964000000000000000000000000000000006000830152602082019050919050565b60006148df602183615c1c565b91507f54686520746f6b656e20746f206d696e7420646f6573206e6f7420657869737460008301527f73000000000000000000000000000000000000000000000000000000000000006020830152604082019050919050565b6000614945602b83615c1c565b91507f455243313135353a2062616c616e636520717565727920666f7220746865207a60008301527f65726f20616464726573730000000000000000000000000000000000000000006020830152604082019050919050565b60006149ab602683615c1c565b91507f4f776e61626c653a206e6577206f776e657220697320746865207a65726f206160008301527f64647265737300000000000000000000000000000000000000000000000000006020830152604082019050919050565b6000614a11602483615c1c565b91507f455243313135353a206275726e20616d6f756e7420657863656564732062616c60008301527f616e6365000000000000000000000000000000000000000000000000000000006020830152604082019050919050565b6000614a77601d83615c1c565b91507f546f6b656e206973206e6f74206f70656e20666f72206d696e74696e670000006000830152602082019050919050565b6000614ab7601483615c1c565b91507f546f6b656e20616c7265616479206578697374730000000000000000000000006000830152602082019050919050565b6000614af7602983615c1c565b91507f455243313135353a2063616c6c6572206973206e6f74206f776e6572206e6f7260008301527f20617070726f76656400000000000000000000000000000000000000000000006020830152604082019050919050565b6000614b5d601a83615c1c565b91507f596f752063616e6e6f7420676f206261636b20696e2074696d650000000000006000830152602082019050919050565b6000614b9d602283615c1c565b91507f596f752068617665206e6f7420656e6f75676820746f6b656e7320746f20627560008301527f726e0000000000000000000000000000000000000000000000000000000000006020830152604082019050919050565b6000614c03602083615c1c565b91507f4c656e67746873206f6620696e7075742073686f756c6420626520657175616c6000830152602082019050919050565b6000614c43602583615c1c565b91507f455243313135353a207472616e7366657220746f20746865207a65726f20616460008301527f64726573730000000000000000000000000000000000000000000000000000006020830152604082019050919050565b6000614ca9603283615c1c565b91507f455243313135353a207472616e736665722063616c6c6572206973206e6f742060008301527f6f776e6572206e6f7220617070726f76656400000000000000000000000000006020830152604082019050919050565b6000614d0f602383615c1c565b91507f455243313135353a206275726e2066726f6d20746865207a65726f206164647260008301527f65737300000000000000000000000000000000000000000000000000000000006020830152604082019050919050565b6000614d75602a83615c1c565b91507f455243313135353a20696e73756666696369656e742062616c616e636520666f60008301527f72207472616e73666572000000000000000000000000000000000000000000006020830152604082019050919050565b6000614ddb602083615c1c565b91507f4f776e61626c653a2063616c6c6572206973206e6f7420746865206f776e65726000830152602082019050919050565b6000614e1b603583615c1c565b91507f596f7520617265206e6f742077686974656c697374656420746f206d696e742060008301527f7468697320616d6f756e74206f6620746f6b656e7300000000000000000000006020830152604082019050919050565b6000614e81602d83615c1c565b91507f496e73756666696369656e7420746f6b656e73206c65667420666f722074686960008301527f73207472616e73616374696f6e000000000000000000000000000000000000006020830152604082019050919050565b6000614ee7603183615c1c565b91507f596f752063616e6e6f74206d696e74206d6f726520746f6b656e73207468616e60008301527f2074686520746f74616c20737570706c790000000000000000000000000000006020830152604082019050919050565b6000614f4d602783615c1c565b91507f4c656e67746873206f6620696e707574206172726179732073686f756c64206260008301527f6520657175616c000000000000000000000000000000000000000000000000006020830152604082019050919050565b6000614fb3603183615c1c565b91507f596f752068617665206e6f2062616c616e6365206f662074686520616363657360008301527f7320746f6b656e2070726f76696465642e0000000000000000000000000000006020830152604082019050919050565b6000615019602883615c1c565b91507f596f752063616e6e6f742061646420746f6b656e7320666f722070726576696f60008301527f75732077617665730000000000000000000000000000000000000000000000006020830152604082019050919050565b600061507f603883615c1c565b91507f54686520746f6b656e2070726f766964656420746f2070726f766520796f752060008301527f63616e206d696e7420646f6573206e6f742065786973747300000000000000006020830152604082019050919050565b60006150e5604683615c1c565b91507f596f752063616e6e6f74206d696e74207468697320616d6f756e7420696e206f60008301527f6e65207472616e73616374696f6e20666f7220746f6b656e7320696e2074686960208301527f73207469657200000000000000000000000000000000000000000000000000006040830152606082019050919050565b6000615171601383615c1c565b91507f5469657220616c726561647920657869737473000000000000000000000000006000830152602082019050919050565b60006151b1603d83615c1c565b91507f596f7520617265206e6f7420616c6c6f77656420746f206d696e74207468697360008301527f20746f6b656e206174207468697320706f696e7420696e2074696d652e0000006020830152604082019050919050565b6000615217602983615c1c565b91507f455243313135353a2073657474696e6720617070726f76616c2073746174757360008301527f20666f722073656c6600000000000000000000000000000000000000000000006020830152604082019050919050565b600061527d602983615c1c565b91507f455243313135353a206163636f756e747320616e6420696473206c656e67746860008301527f206d69736d6174636800000000000000000000000000000000000000000000006020830152604082019050919050565b60006152e3602883615c1c565b91507f455243313135353a2069647320616e6420616d6f756e7473206c656e6774682060008301527f6d69736d617463680000000000000000000000000000000000000000000000006020830152604082019050919050565b6000615349602183615c1c565b91507f455243313135353a206d696e7420746f20746865207a65726f2061646472657360008301527f73000000000000000000000000000000000000000000000000000000000000006020830152604082019050919050565b6153ab81615d31565b82525050565b6153ba81615d6d565b82525050565b6153c981615d6d565b82525050565b60006020820190506153e460008301846146c9565b92915050565b600060a0820190506153ff60008301886146c9565b61540c60208301876146c9565b818103604083015261541e81866146d8565b9050818103606083015261543281856146d8565b905081810360808301526154468184614754565b90509695505050505050565b600060a08201905061546760008301886146c9565b61547460208301876146c9565b61548160408301866153c0565b61548e60608301856153c0565b81810360808301526154a08184614754565b90509695505050505050565b600060208201905081810360008301526154c681846146d8565b905092915050565b600060408201905081810360008301526154e881856146d8565b905081810360208301526154fc81846146d8565b90509392505050565b600060208201905061551a6000830184614736565b92915050565b6000602082019050818103600083015261553a818461478d565b905092915050565b6000602082019050818103600083015261555b816147c6565b9050919050565b6000602082019050818103600083015261557b8161482c565b9050919050565b6000602082019050818103600083015261559b81614892565b9050919050565b600060208201905081810360008301526155bb816148d2565b9050919050565b600060208201905081810360008301526155db81614938565b9050919050565b600060208201905081810360008301526155fb8161499e565b9050919050565b6000602082019050818103600083015261561b81614a04565b9050919050565b6000602082019050818103600083015261563b81614a6a565b9050919050565b6000602082019050818103600083015261565b81614aaa565b9050919050565b6000602082019050818103600083015261567b81614aea565b9050919050565b6000602082019050818103600083015261569b81614b50565b9050919050565b600060208201905081810360008301526156bb81614b90565b9050919050565b600060208201905081810360008301526156db81614bf6565b9050919050565b600060208201905081810360008301526156fb81614c36565b9050919050565b6000602082019050818103600083015261571b81614c9c565b9050919050565b6000602082019050818103600083015261573b81614d02565b9050919050565b6000602082019050818103600083015261575b81614d68565b9050919050565b6000602082019050818103600083015261577b81614dce565b9050919050565b6000602082019050818103600083015261579b81614e0e565b9050919050565b600060208201905081810360008301526157bb81614e74565b9050919050565b600060208201905081810360008301526157db81614eda565b9050919050565b600060208201905081810360008301526157fb81614f40565b9050919050565b6000602082019050818103600083015261581b81614fa6565b9050919050565b6000602082019050818103600083015261583b8161500c565b9050919050565b6000602082019050818103600083015261585b81615072565b9050919050565b6000602082019050818103600083015261587b816150d8565b9050919050565b6000602082019050818103600083015261589b81615164565b9050919050565b600060208201905081810360008301526158bb816151a4565b9050919050565b600060208201905081810360008301526158db8161520a565b9050919050565b600060208201905081810360008301526158fb81615270565b9050919050565b6000602082019050818103600083015261591b816152d6565b9050919050565b6000602082019050818103600083015261593b8161533c565b9050919050565b600060208201905061595760008301846153a2565b92915050565b600060408201905061597260008301856153a2565b61597f60208301846146c9565b9392505050565b600060208201905061599b60008301846153c0565b92915050565b600060c0820190506159b660008301896153c0565b6159c360208301886153a2565b6159d060408301876153a2565b6159dd60608301866153c0565b6159ea60808301856153c0565b6159f760a0830184614736565b979650505050505050565b6000604082019050615a1760008301856153c0565b615a2460208301846153c0565b9392505050565b6000606082019050615a4060008301866153c0565b615a4d60208301856153c0565b615a5a6040830184614745565b949350505050565b6000608082019050615a7760008301876153c0565b615a8460208301866153c0565b615a9160408301856153c0565b615a9e6060830184614745565b95945050505050565b6000604051905081810181811067ffffffffffffffff82111715615ace57615acd615ef5565b5b8060405250919050565b600067ffffffffffffffff821115615af357615af2615ef5565b5b602082029050602081019050919050565b600067ffffffffffffffff821115615b1f57615b1e615ef5565b5b602082029050602081019050919050565b600067ffffffffffffffff821115615b4b57615b4a615ef5565b5b602082029050602081019050919050565b600067ffffffffffffffff821115615b7757615b76615ef5565b5b601f19601f8301169050602081019050919050565b600067ffffffffffffffff821115615ba757615ba6615ef5565b5b601f19601f8301169050602081019050919050565b6000819050602082019050919050565b600081519050919050565b600081519050919050565b600081519050919050565b6000602082019050919050565b600082825260208201905092915050565b600082825260208201905092915050565b600082825260208201905092915050565b6000615c3882615d6d565b9150615c4383615d6d565b9250827fffffffffffffffffffffffffffffffffffffffffffffffffffffffffffffffff03821115615c7857615c77615e97565b5b828201905092915050565b6000615c8e82615d6d565b9150615c9983615d6d565b9250817fffffffffffffffffffffffffffffffffffffffffffffffffffffffffffffffff0483118215151615615cd257615cd1615e97565b5b828202905092915050565b6000615ce882615d4d565b9050919050565b60008115159050919050565b6000819050919050565b60007fffffffff0000000000000000000000000000000000000000000000000000000082169050919050565b60006fffffffffffffffffffffffffffffffff82169050919050565b600073ffffffffffffffffffffffffffffffffffffffff82169050919050565b6000819050919050565b82818337600083830152505050565b60005b83811015615da4578082015181840152602081019050615d89565b83811115615db3576000848401525b50505050565b6000615dc482615d6d565b91506000821415615dd857615dd7615e97565b5b600182039050919050565b60006002820490506001821680615dfb57607f821691505b60208210811415615e0f57615e0e615ec6565b5b50919050565b6000615e2082615d31565b91506fffffffffffffffffffffffffffffffff821415615e4357615e42615e97565b5b600182019050919050565b6000615e5982615d6d565b91507fffffffffffffffffffffffffffffffffffffffffffffffffffffffffffffffff821415615e8c57615e8b615e97565b5b600182019050919050565b7f4e487b7100000000000000000000000000000000000000000000000000000000600052601160045260246000fd5b7f4e487b7100000000000000000000000000000000000000000000000000000000600052602260045260246000fd5b7f4e487b7100000000000000000000000000000000000000000000000000000000600052604160045260246000fd5b6000601f19601f8301169050919050565b60008160e01c9050919050565b600060443d1015615f5257615ff5565b60046000803e615f63600051615f35565b6308c379a08114615f745750615ff5565b60405160043d036004823e80513d602482011167ffffffffffffffff82111715615fa057505050615ff5565b808201805167ffffffffffffffff811115615fbf575050505050615ff5565b8060208301013d8501811115615fda57505050505050615ff5565b615fe382615f24565b60208401016040528296505050505050505b90565b61600181615cdd565b811461600c57600080fd5b50565b61601881615cef565b811461602357600080fd5b50565b61602f81615cfb565b811461603a57600080fd5b50565b61604681615d05565b811461605157600080fd5b50565b61605d81615d31565b811461606857600080fd5b50565b61607481615d6d565b811461607f57600080fd5b5056fea2646970667358221220dd5bff31a32de363b8c6f2ebd783a11934f2ea764d3096c381fc1b2c70428cad64736f6c634300080000334f6e6c79206c696d6974656420706572736f6e616c206e6f6e2d636f6d6d65726369616c2075736520616e6420726573616c652072696768747320696e20746865204e465420617265206772616e74656420616e6420616c6c20636f7079726967687420616e64206f7468657220726967687473206172652072657365727665642e20546865207465726d7320616e6420636f6e646974696f6e73206f6620416c69656e2053616d757261692044696e6f2057617272696f7273202868747470733a2f2f64696e6f77617272696f72732e696f2920617265206170706c696361626c652e",
  "immutableReferences": {},
  "source": "//SPDX-License-Identifier: UNLICENSED\npragma solidity ^0.8.0;\n\nimport \"openzeppelin-solidity/contracts/token/ERC1155/ERC1155.sol\";\nimport \"openzeppelin-solidity/contracts/access/Ownable.sol\";\nimport \"openzeppelin-solidity/contracts/utils/math/SafeMath.sol\";\n\n// In Remix, use:\n//import \"https://github.com/OpenZeppelin/openzeppelin-contracts/blob/master/contracts/token/ERC1155/ERC1155.sol\";\n//import \"https://github.com/OpenZeppelin/openzeppelin-contracts/blob/master/contracts/access/Ownable.sol\";\n\n/**\n * Smart contract used for Alien Samurai Dino Warriors NFT's. Legal terms:\n * Only limited personal non-commercial use and resale rights in the NFT are granted and all copyright and other rights are reserved.\n * The terms and conditions of Alien Samurai Dino Warriors (https://dinowarriors.io) are applicable.\n */\ncontract DinoWarriors is ERC1155, Ownable() {\n\n    using SafeMath for uint128;\n    using SafeMath for uint256;\n\n    // Struct to keep info on all tokens\n    struct TokenInfo {\n        uint256 mintedAmount;\n        uint256 totalAmount;\n        bytes32 tier; // Info on aggregated tier level\n    }\n\n    // Map each token description to the technical information\n    mapping(uint256 => TokenInfo) public tokenInfo;\n\n    // Inner mapping: from address to allowed amount of mint transactions.\n    // Outer mapping: current presale list to inner mapping\n    mapping(uint128 => mapping(address => uint256)) public whitelist;\n\n    struct Tier {\n        uint256 price; // Price in Wei\n        uint128 mintable; /*By who can the token be minted?\n                            - 0: nobody can mint.\n                            - x: everyone with a drop reward between wave 1 and wave x can mint.\n                              x can be increased over time to have stepwise priority for pre-sales\n                            - Equal to latestDropWave + 1: everyone can mint */\n        uint128 dropWave; // In which drop was the tier released?\n        uint256 tokenToBurn; // If this token is used to claim minting rights, burn it\n        uint256 maxMintPerTransaction; // Maximum amount of tokens to mint in 1 transaction\n        bool whitelist; // If true, only token owners listed in the whitelist mapping are allowed to mint\n    }\n\n\n    // Map each tier to it's information\n    /** @dev Mapping with tier information */\n    mapping(bytes32 => Tier) public tiers;\n\n    // Keep track of latest drop\n    uint128 public latestDropWave = 1;\n\n    // Keep track of current whitelist\n    uint128 public latestWhitelistWave = 1;\n\n    // A link to the legal terms of the smart contract\n    string public legalTerms;\n\n    // Address receiving the funds after minting with fees\n    address public wallet;\n\n    // Contract uri for OpenSea\n    string contractURI;\n    /**\n     * @dev The constructor will call the constructer of the ERC1155 contract,\n     * and hardcode:\n     * - legal terms of the contract\n     * - Initial tiers to start with\n     *- Initial tokens to start with\n     * - Which tokens are preminted by Envoy\n     * @param uri_ The URI to link metadata to the NFT's\n     */\n    constructor(\n        string memory uri_,\n        string memory contractURI_\n        )\n        ERC1155(uri_){\n            wallet = _msgSender();\n            legalTerms = \"Only limited personal non-commercial use and resale rights in the NFT are granted and all copyright and other rights are reserved. The terms and conditions of Alien Samurai Dino Warriors (https://dinowarriors.io) are applicable.\";\n            contractURI = contractURI_;\n    }\n\n  //\n  // ******************* OWNERSHIP *******************\n  //\n\n\n    function setContractURI(string calldata uri_) external onlyOwner {\n        contractURI = uri_;\n    }\n\n    /**\n     * Function for the owner to update the wallet to which minting fees are sent.\n     * By default, this will be the owner of the contract\n     * @param wallet_ the address to receive funds\n     */\n    function updateWallet(address wallet_) external onlyOwner {\n        wallet = wallet_; \n    }\n\n    /**\n     * @notice Function for the owner to change the link to legal terms.\n     * @param legalTerms_ The link to the legal terms.\n     */\n    function setLegalTerms(string memory legalTerms_) external onlyOwner{\n        legalTerms = legalTerms_;\n    }\n\n    function tokenInfoFromBytes32(bytes32 token) public view returns (uint256 id, uint256 mintedAmount, uint256 totalAmount, bytes32 tier){\n        id = uint256(token);\n        mintedAmount = tokenInfo[id].mintedAmount;\n        totalAmount = tokenInfo[id].totalAmount;\n        tier = tokenInfo[id].tier;\n    }\n    // Functions to manage tiers\n    \n    /**\n     * Functions to create new tiers, or to modify price and mintable of existing tier.\n     * Only the owner can run this function.\n     * Drop waves cannot be altered, and should always be higher than the latest drop wave.\n     * @param name The human readable key of the tier\n     * @param price_ The price that is required for minting tokens of this tier\n     * @param mintable_ Wetter the tokens in this tier are already mintable (0 for no).\n     * - 0: nobody can mint.\n     * - x: everyone with a drop reward between wave 1 and wave x can mint.\n     *      x can be increased over time to have stepwise priority for pre-sales\n     * - Equal to latestDropWave + 1: everyone can mint \n     * @param dropWave_ In which wave is this drop? For the ASDW cards, this will be 1.\n     * @param tokenToBurn_ If only current token owners are allowed to mint, they will need\n     * to burn their token in the minting process if it is this token.\n     * @param maxMintPerTransaction_ the maximum amount to mint per transaction\n     * @param whitelist_ wetter only minters on the whitelist can mint or not\n     */\n    function addTier(\n        bytes32 name,\n        uint256 price_,\n        uint128 mintable_,\n        uint128 dropWave_,\n        bytes32 tokenToBurn_,\n        uint256 maxMintPerTransaction_,\n        bool whitelist_) public onlyOwner{\n        \n        require(dropWave_ >= latestDropWave,\n            \"You cannot go back in time\");\n\n        require(tiers[name].dropWave == 0,\n            \"Tier already exists\");\n        \n\n        tiers[name] = Tier({price: price_,\n                            mintable: mintable_,\n                            dropWave: dropWave_,\n                            tokenToBurn: uint256(tokenToBurn_),\n                            maxMintPerTransaction: maxMintPerTransaction_,\n                            whitelist: whitelist_});\n\n        if (dropWave_ > latestDropWave) {\n            latestDropWave++;\n        }\n    }\n\n    // /**\n    //  * Function to add multiple tiers in 1 transaction\n    //  * @dev disabled because contract got to big\n    //  * @param names The names of the tiers to add\n    //  * @param prices_ The price for each token\n    //  * @param mintable_ Which tiers can already be minted?\n    //  * @param dropWaves_ The different drop waves\n    //  * @param tokensToBurn_ Which tokens should be burned when provided in the minting process?\n    //  * @param maxMintPerTransaction_ the maximum amount to mint per transaction\n    //  * @param whitelist_ wetter only minters on the whitelist can mint or not\n    //  */\n    // function addTiersBatch(\n    //     bytes32[] memory names,\n    //     uint256[] memory prices_,\n    //     uint128[] memory mintable_,\n    //     uint128[] memory dropWaves_,\n    //     bytes32[] memory tokensToBurn_,\n    //     uint256[] memory maxMintPerTransaction_,\n    //     bool[] memory whitelist_) external onlyOwner{\n        \n    //     for(uint256 i = 0; i<names.length; i++){\n    //         this.addTier(names[i], prices_[i], mintable_[i], dropWaves_[i], tokensToBurn_[i], maxMintPerTransaction_[i], whitelist_[i]);\n    //     }    \n    // }\n    /**\n     * Make a tier (un)mintable for (part of) the minters. Only the owner can run this function.\n     * @param name The human readable key of the tier\n     * @param mintable_ Wetter the tokens in this tier are already mintable (0 for no).\n     * - 0: nobody can mint.\n     * - x: everyone with a drop reward between wave 1 and wave x can mint.\n     *      x can be increased over time to have stepwise priority for pre-sales\n     * - Equal to latestDropWave + 1: everyone can mint \n     */\n    function setTierMintability(\n        bytes32 name,\n        uint128 mintable_) external onlyOwner{\n            tiers[name].mintable = mintable_;\n    }\n\n    /**\n     * Change the price of an existing tier.\n     * @param name The human readable key of the tier\n     * @param price_ New price in wei for the tier\n     */\n    function setTierPrice(\n        bytes32 name,\n        uint256 price_) external onlyOwner{\n            tiers[name].price = price_;\n    }\n\n    /**\n     * Change the max amount of tokens to mint in one transaction for this tier.\n     * @param name The human readable key of the tier\n     * @param maxMintPerTransaction_ New max amount of tokens to mint in 1 transaction\n     */\n    function setTierMaxMintPerTransaction(\n        bytes32 name,\n        uint256 maxMintPerTransaction_) external onlyOwner{\n            tiers[name].maxMintPerTransaction = maxMintPerTransaction_;\n    }\n\n\n    /**\n     * Change the max amount of tokens to mint in one transaction for this tier.\n     * @param name The human readable key of the tier\n     * @param whitelist_ true if only persons in the whitelist are allowed to mint\n     */\n    function setTierWhitelist(\n        bytes32 name,\n        bool whitelist_) external onlyOwner{\n            tiers[name].whitelist = whitelist_;\n    }\n    /**\n     * Function to add new tokens. Only the owner can run this function.\n     * New Tokens should always have a new human readable name as key,\n     * And they need to be in a tier of the latest wave available.\n     * @param name human readable name of the token\n     * @param totalAmount_ the total amount of tokens available for this token\n     * @param tier_ the tier in which the NFT is released, containing the price, dropwave,...\n     * @param amountToPreMint The amount of tokens to be preminted by the owner\n     */\n    function addToken(bytes32 name,\n        uint256 totalAmount_,\n        bytes32 tier_,\n        uint256 amountToPreMint) public onlyOwner{\n        \n        uint256 nameAsInt = uint256(name);\n        require(tokenInfo[nameAsInt].totalAmount == 0,\n             \"Token already exists\");\n\n        // Implicit test if tier exists\n        require(tiers[tier_].dropWave >= latestDropWave,\n            \"You cannot add tokens for previous waves\");\n\n        require(amountToPreMint <= totalAmount_,\n            \"You cannot mint more tokens than the total supply\");\n\n        tokenInfo[nameAsInt] = TokenInfo({\n                                    mintedAmount: amountToPreMint,\n                                    totalAmount: totalAmount_,\n                                    tier: tier_\n                                    });\n\n        if(amountToPreMint != 0){\n            ERC1155._mint(_msgSender(), nameAsInt, amountToPreMint, \"\");\n        }\n    }\n\n    /**\n     * Overload function when no tokens need to be preminted\n     */\n    // function addToken(bytes32 name,\n    //     uint256 totalAmount_,\n    //     bytes32 tier_) public onlyOwner{\n    //     this.addToken(name, totalAmount_, tier_, 0);\n    // }\n\n    /**\n     * Add multiple tokens at once.\n     * @param names Array containing the token names\n     * @param totalAmounts_ Array containing the total amount for each token. Should have the same length as names.\n     * @param tiers_ Array containing the tier for each token. Should have the same length as names.\n     * @param amountsToPreMint_ Array containing the amount of tokens to premint for each token.\n     *   Should have the same length as names.\n     */\n    function addTokensBatch(bytes32[] memory names,\n        uint256[] memory totalAmounts_,\n        bytes32[] memory tiers_,\n        uint256[] memory amountsToPreMint_) public onlyOwner{\n            require(names.length == totalAmounts_.length\n                && names.length == tiers_.length\n                && names.length == amountsToPreMint_.length,\n                \"Lengths of input should be equal\");\n\n            for(uint256 i = 0; i<names.length; i++){\n                addToken(names[i], totalAmounts_[i], tiers_[i], amountsToPreMint_[i]);\n            }\n        }\n    /**\n     * Add new tokens of an existing token. Only the owner can run this function.\n     * @param name the name of the token to add\n     * @param additionalTokenAmount the amount of tokens to add\n     */\n    function increaseTokenAmount(bytes32 name,\n        uint256 additionalTokenAmount) external onlyOwner{\n        tokenInfo[uint256(name)].totalAmount += additionalTokenAmount;\n    }\n\n    /**\n     * Function to mint tokens.\n     * In order to mint tokens, following criteria must be met:\n     * - There are still unminted tokens of tokenToMint\n     * - The price in ETH sent should equal the price of the tier of tokenToMint.\n     * - Depending on the 'mintability' field of the tier of the token,\n     *   the minter needs to provide a second token to prove he is allowed to mint.\n     *   Of course, the minter should have a positive balance for this token.\n     * @param tokenToMint Human readable name of the token that will be minted\n     * @param tokenToUse Token provided by the minter to prove he is allowed to mint.\n     * The 'mintability' of the 'tier' of tokenToMint will define if the token allows minting or not.\n     * The owner should own the token, and the token will possibly be burned in the process.\n     */\n    function _mint(bytes32 tokenToMint, uint256 amount, bytes32 tokenToUse) external payable {\n        uint256 tokenToMintAsInt = uint256(tokenToMint);\n        uint256 tokenToUseAsInt = uint256(tokenToUse);\n\n        address account = _msgSender();\n        TokenInfo storage tokenToMintObject = tokenInfo[tokenToMintAsInt];\n\n        require(tokenToMintObject.totalAmount > 0,\n            \"The token to mint does not exists\");\n\n        require(tokenToMintObject.totalAmount >= tokenToMintObject.mintedAmount + amount,\n            \"Insufficient tokens left for this transaction\");\n        \n        Tier memory tierToMint = tiers[tokenToMintObject.tier];\n\n        require(tierToMint.mintable > 0,\n            \"Token is not open for minting\");\n             \n        require(tierToMint.maxMintPerTransaction >= amount,\n            \"You cannot mint this amount in one transaction for tokens in this tier\");\n\n        if(tierToMint.whitelist == true) {\n            require(this.whitelist(latestWhitelistWave, _msgSender()) > 0,\n                \"You are not whitelisted to mint this amount of tokens\");\n            whitelist[latestWhitelistWave][account]--;\n        }\n\n        // Check if everyone is allowed to mint.\n        // If not, check if the token provided gives the right to mint,\n        // and burn it if this is required.\n        if(tierToMint.mintable <= latestDropWave){\n\n            TokenInfo memory tokenToUseObject = tokenInfo[tokenToUseAsInt];\n            Tier memory tierToUse = tiers[tokenToUseObject.tier];\n\n\n            require(tokenToUseObject.totalAmount > 0,\n                \"The token provided to prove you can mint does not exists\");\n\n            // Check if the token provided gives minting access\n            require(tierToMint.mintable >= tierToUse.dropWave,\n                    \"You are not allowed to mint this token at this point in time.\");\n            \n            // Check if the owner actually owns the token used to claim minting\n            require(ERC1155.balanceOf(account, tokenToUseAsInt) >= 0 ,\n                \"You have no balance of the access token provided.\");\n\n            // Check if the token needs to be burned before being able to mint\n            if(tierToMint.tokenToBurn == tokenToUseAsInt){\n                require(ERC1155.balanceOf(account, tokenToUseAsInt) >= amount ,\n                    \"You have not enough tokens to burn\");\n                ERC1155._burn(account, tokenToUseAsInt, amount);\n            }\n        }\n\n        uint256 weiAmount = msg.value;\n        require(weiAmount == tierToMint.price * amount, \"Invalid ETH paid\");\n        // Send ETH to wallet\n        payable(wallet).transfer(weiAmount);\n        \n\n        ERC1155._mint(account, tokenToMintAsInt, amount, \"\");\n\n        tokenToMintObject.mintedAmount+=amount;\n\n    }\n\n    /*\n     * Overloaded function to allow minting tokens without providing a secondary token.\n     * This will only work if everyone is allowed to mint the token and is only for ease of use.\n     * @param tokenToMint Human readable name of the token that will be minted\n     */\n    // function _mint(bytes32 tokenToMint, uint256 amount) external payable {\n    //     this._mint(tokenToMint, amount,'');\n    // }\n\n    /**\n     * Update the accounts in the whitelist for minting.\n     * @param to a list of addresses to be whitelisted\n     * @param newWhitelistWave if true, the old whitelisted address cannot mint anymore\n     * @param maxAmounts the maximum amount of tokens to mint for this account\n     */\n    function updateWhitelist(\n        address[] memory to,\n        bool newWhitelistWave,\n        uint256[] memory maxAmounts\n    ) external onlyOwner {\n     \n        require(to.length == maxAmounts.length,\n            \"Lengths of input arrays should be equal\");   \n        if(newWhitelistWave == true) {\n            latestWhitelistWave++;\n        }\n\n        for(uint256 i = 0; i < to.length; i++){\n            whitelist[latestWhitelistWave][to[i]] = maxAmounts[i];\n        }\n    }\n\n    /**\n     * Function to increase the latest whitelist wave, so no one is in the latest wave anymore.\n     */\n\n    function disableWhitelist() external onlyOwner {\n        latestWhitelistWave++;\n    }\n\n}",
  "sourcePath": "/Users/Baas/repos/envoy/repos/dinowars/contracts/contracts/DinoWarriors.sol",
  "compiler": {
    "name": "solc",
    "version": "0.8.0+commit.c7dfd78e.Emscripten.clang"
  },
  "schemaVersion": "3.4.2",
  "updatedAt": "2021-09-28T09:53:43.411Z",
  "devdoc": {
    "kind": "dev",
    "methods": {
      "_mint(bytes32,uint256,bytes32)": {
        "params": {
          "tokenToMint": "Human readable name of the token that will be minted",
          "tokenToUse": "Token provided by the minter to prove he is allowed to mint. The 'mintability' of the 'tier' of tokenToMint will define if the token allows minting or not. The owner should own the token, and the token will possibly be burned in the process."
        }
      },
      "addTier(bytes32,uint256,uint128,uint128,bytes32,uint256,bool)": {
        "params": {
          "dropWave_": "In which wave is this drop? For the ASDW cards, this will be 1.",
          "maxMintPerTransaction_": "the maximum amount to mint per transaction",
          "mintable_": "Wetter the tokens in this tier are already mintable (0 for no). - 0: nobody can mint. - x: everyone with a drop reward between wave 1 and wave x can mint.      x can be increased over time to have stepwise priority for pre-sales - Equal to latestDropWave + 1: everyone can mint ",
          "name": "The human readable key of the tier",
          "price_": "The price that is required for minting tokens of this tier",
          "tokenToBurn_": "If only current token owners are allowed to mint, they will need to burn their token in the minting process if it is this token.",
          "whitelist_": "wetter only minters on the whitelist can mint or not"
        }
      },
      "addToken(bytes32,uint256,bytes32,uint256)": {
        "params": {
          "amountToPreMint": "The amount of tokens to be preminted by the owner",
          "name": "human readable name of the token",
          "tier_": "the tier in which the NFT is released, containing the price, dropwave,...",
          "totalAmount_": "the total amount of tokens available for this token"
        }
      },
      "addTokensBatch(bytes32[],uint256[],bytes32[],uint256[])": {
        "params": {
          "amountsToPreMint_": "Array containing the amount of tokens to premint for each token.   Should have the same length as names.",
          "names": "Array containing the token names",
          "tiers_": "Array containing the tier for each token. Should have the same length as names.",
          "totalAmounts_": "Array containing the total amount for each token. Should have the same length as names."
        }
      },
      "balanceOf(address,uint256)": {
        "details": "See {IERC1155-balanceOf}. Requirements: - `account` cannot be the zero address."
      },
      "balanceOfBatch(address[],uint256[])": {
        "details": "See {IERC1155-balanceOfBatch}. Requirements: - `accounts` and `ids` must have the same length."
      },
      "constructor": {
        "details": "The constructor will call the constructer of the ERC1155 contract, and hardcode: - legal terms of the contract - Initial tiers to start with - Initial tokens to start with - Which tokens are preminted by Envoy",
        "params": {
          "uri_": "The URI to link metadata to the NFT's"
        }
      },
      "increaseTokenAmount(bytes32,uint256)": {
        "params": {
          "additionalTokenAmount": "the amount of tokens to add",
          "name": "the name of the token to add"
        }
      },
      "isApprovedForAll(address,address)": {
        "details": "See {IERC1155-isApprovedForAll}."
      },
      "owner()": {
        "details": "Returns the address of the current owner."
      },
      "renounceOwnership()": {
        "details": "Leaves the contract without owner. It will not be possible to call `onlyOwner` functions anymore. Can only be called by the current owner. NOTE: Renouncing ownership will leave the contract without an owner, thereby removing any functionality that is only available to the owner."
      },
      "safeBatchTransferFrom(address,address,uint256[],uint256[],bytes)": {
        "details": "See {IERC1155-safeBatchTransferFrom}."
      },
      "safeTransferFrom(address,address,uint256,uint256,bytes)": {
        "details": "See {IERC1155-safeTransferFrom}."
      },
      "setApprovalForAll(address,bool)": {
        "details": "See {IERC1155-setApprovalForAll}."
      },
      "setLegalTerms(string)": {
        "params": {
          "legalTerms_": "The link to the legal terms."
        }
      },
      "setTierMaxMintPerTransaction(bytes32,uint256)": {
        "params": {
          "maxMintPerTransaction_": "New max amount of tokens to mint in 1 transaction",
          "name": "The human readable key of the tier"
        }
      },
      "setTierMintability(bytes32,uint128)": {
        "params": {
          "mintable_": "Wetter the tokens in this tier are already mintable (0 for no). - 0: nobody can mint. - x: everyone with a drop reward between wave 1 and wave x can mint.      x can be increased over time to have stepwise priority for pre-sales - Equal to latestDropWave + 1: everyone can mint ",
          "name": "The human readable key of the tier"
        }
      },
      "setTierPrice(bytes32,uint256)": {
        "params": {
          "name": "The human readable key of the tier",
          "price_": "New price in wei for the tier"
        }
      },
      "setTierWhitelist(bytes32,bool)": {
        "params": {
          "name": "The human readable key of the tier",
          "whitelist_": "true if only persons in the whitelist are allowed to mint"
        }
      },
      "supportsInterface(bytes4)": {
        "details": "See {IERC165-supportsInterface}."
      },
      "transferOwnership(address)": {
        "details": "Transfers ownership of the contract to a new account (`newOwner`). Can only be called by the current owner."
      },
      "updateWallet(address)": {
        "params": {
          "wallet_": "the address to receive funds"
        }
      },
      "updateWhitelist(address[],bool,uint256[])": {
        "params": {
          "maxAmounts": "the maximum amount of tokens to mint for this account",
          "newWhitelistWave": "if true, the old whitelisted address cannot mint anymore",
          "to": "a list of addresses to be whitelisted"
        }
      },
      "uri(uint256)": {
        "details": "See {IERC1155MetadataURI-uri}. This implementation returns the same URI for *all* token types. It relies on the token type ID substitution mechanism https://eips.ethereum.org/EIPS/eip-1155#metadata[defined in the EIP]. Clients calling this function must replace the `\\{id\\}` substring with the actual token type ID."
      }
    },
    "stateVariables": {
      "tiers": {
        "details": "Mapping with tier information "
      }
    },
    "version": 1
  },
  "userdoc": {
    "kind": "user",
    "methods": {
      "_mint(bytes32,uint256,bytes32)": {
        "notice": "Function to mint tokens. In order to mint tokens, following criteria must be met: - There are still unminted tokens of tokenToMint - The price in ETH sent should equal the price of the tier of tokenToMint. - Depending on the 'mintability' field of the tier of the token,   the minter needs to provide a second token to prove he is allowed to mint.   Of course, the minter should have a positive balance for this token."
      },
      "addTier(bytes32,uint256,uint128,uint128,bytes32,uint256,bool)": {
        "notice": "Functions to create new tiers, or to modify price and mintable of existing tier. Only the owner can run this function. Drop waves cannot be altered, and should always be higher than the latest drop wave."
      },
      "addToken(bytes32,uint256,bytes32,uint256)": {
        "notice": "Function to add new tokens. Only the owner can run this function. New Tokens should always have a new human readable name as key, And they need to be in a tier of the latest wave available."
      },
      "addTokensBatch(bytes32[],uint256[],bytes32[],uint256[])": {
        "notice": "Add multiple tokens at once."
      },
      "disableWhitelist()": {
        "notice": "Function to increase the latest whitelist wave, so no one is in the latest wave anymore."
      },
      "increaseTokenAmount(bytes32,uint256)": {
        "notice": "Add new tokens of an existing token. Only the owner can run this function."
      },
      "setLegalTerms(string)": {
        "notice": "Function for the owner to change the link to legal terms."
      },
      "setTierMaxMintPerTransaction(bytes32,uint256)": {
        "notice": "Change the max amount of tokens to mint in one transaction for this tier."
      },
      "setTierMintability(bytes32,uint128)": {
        "notice": "Make a tier (un)mintable for (part of) the minters. Only the owner can run this function."
      },
      "setTierPrice(bytes32,uint256)": {
        "notice": "Change the price of an existing tier."
      },
      "setTierWhitelist(bytes32,bool)": {
        "notice": "Change the max amount of tokens to mint in one transaction for this tier."
      },
      "updateWallet(address)": {
        "notice": "Function for the owner to update the wallet to which minting fees are sent. By default, this will be the owner of the contract"
      },
      "updateWhitelist(address[],bool,uint256[])": {
        "notice": "Update the accounts in the whitelist for minting."
      }
    },
    "notice": "Smart contract used for Alien Samurai Dino Warriors NFT's. Legal terms: Only limited personal non-commercial use and resale rights in the NFT are granted and all copyright and other rights are reserved. The terms and conditions of Alien Samurai Dino Warriors (https://dinowarriors.io) are applicable.",
    "version": 1
  }
}